{
  "transactions": [
    {
      "hash": "0xd3ea29d5624ad3518fa5236c6a54adf3fd179c559b7bf7360fc36a2a292b45dd",
      "transactionType": "CALL",
      "contractName": null,
      "contractAddress": "0xdc5cb61cdbc8ef3223847d5e555960b3e0cf9167",
      "function": "createVault((address,address,uint256,address,uint256,string,string,uint64),uint256)",
      "arguments": [
        "(0xF28546cFbBBB0474aa77ec692e35AbebB6ba98E1, 0x2A58A3D405c527491Daae4C62561B949e7F87EFE, 1, 0xD89721502BECE8Afc055825b95C4e4458e618cf2, 50000000000000, TermMax Honey Vault, TMX-HONEY, 10000000)",
        "0"
      ],
      "transaction": {
        "from": "0xe355d5d8aa52ef0fbbd037c4a3c5e6fd659cf46b",
        "to": "0xdc5cb61cdbc8ef3223847d5e555960b3e0cf9167",
        "gas": "0x722d9",
        "value": "0x0",
        "input": "0x7e79099500000000000000000000000000000000000000000000000000000000000000400000000000000000000000000000000000000000000000000000000000000000000000000000000000000000f28546cfbbbb0474aa77ec692e35abebb6ba98e10000000000000000000000002a58a3d405c527491daae4c62561b949e7f87efe0000000000000000000000000000000000000000000000000000000000000001000000000000000000000000d89721502bece8afc055825b95c4e4458e618cf200000000000000000000000000000000000000000000000000002d79883d200000000000000000000000000000000000000000000000000000000000000001000000000000000000000000000000000000000000000000000000000000000140000000000000000000000000000000000000000000000000000000000098968000000000000000000000000000000000000000000000000000000000000000135465726d4d617820486f6e6579205661756c74000000000000000000000000000000000000000000000000000000000000000000000000000000000000000009544d582d484f4e45590000000000000000000000000000000000000000000000",
        "nonce": "0x48",
        "chainId": "0x138c5"
      },
      "additionalContracts": [
        {
          "transactionType": "CREATE2",
          "address": "0x87745b23a1aa02fecd6ce0f623ca9f6295852004",
          "initCode": "0x3d602d80600a3d3981f3363d3d373d3d3d363d735be41ce1865b0a31b9b9d3deb253de39133ece695af43d82803e903d91602b57fd5bf3"
        }
      ],
      "isFixedGasLimit": false
    },
    {
      "hash": "0x64764db609155e6b33b80c10583626bdd17d269f69a431f650d46e54fdd14a00",
      "transactionType": "CALL",
      "contractName": null,
      "contractAddress": "0xf28546cfbbbb0474aa77ec692e35abebb6ba98e1",
      "function": "submitVaultGuardian(address,address)",
      "arguments": [
        "0x87745b23A1AA02fecd6cE0F623CA9f6295852004",
        "0x2A58A3D405c527491Daae4C62561B949e7F87EFE"
      ],
      "transaction": {
        "from": "0xe355d5d8aa52ef0fbbd037c4a3c5e6fd659cf46b",
        "to": "0xf28546cfbbbb0474aa77ec692e35abebb6ba98e1",
        "gas": "0x15e44",
        "value": "0x0",
        "input": "0xd240ef4b00000000000000000000000087745b23a1aa02fecd6ce0f623ca9f62958520040000000000000000000000002a58a3d405c527491daae4c62561b949e7f87efe",
        "nonce": "0x49",
        "chainId": "0x138c5"
      },
      "additionalContracts": [],
      "isFixedGasLimit": false
    },
    {
      "hash": "0x6eb91cb7ed8a966b5fe54da5764d5b3f12066a14e68a1d7b143cccf7c3141101",
      "transactionType": "CALL",
      "contractName": null,
      "contractAddress": "0xf28546cfbbbb0474aa77ec692e35abebb6ba98e1",
      "function": "setIsAllocatorForVault(address,address,bool)",
      "arguments": [
        "0x87745b23A1AA02fecd6cE0F623CA9f6295852004",
        "0x2A58A3D405c527491Daae4C62561B949e7F87EFE",
        "true"
      ],
      "transaction": {
        "from": "0xe355d5d8aa52ef0fbbd037c4a3c5e6fd659cf46b",
        "to": "0xf28546cfbbbb0474aa77ec692e35abebb6ba98e1",
        "gas": "0x151f5",
        "value": "0x0",
        "input": "0x0f1e44f300000000000000000000000087745b23a1aa02fecd6ce0f623ca9f62958520040000000000000000000000002a58a3d405c527491daae4c62561b949e7f87efe0000000000000000000000000000000000000000000000000000000000000001",
        "nonce": "0x4a",
        "chainId": "0x138c5"
      },
      "additionalContracts": [],
      "isFixedGasLimit": false
    }
  ],
  "receipts": [
    {
      "status": "0x1",
      "cumulativeGasUsed": "0x4e121",
      "logs": [
        {
          "address": "0x87745b23a1aa02fecd6ce0f623ca9f6295852004",
          "topics": [
            "0x8be0079c531659141344cd1fd0a4f28419497f9722a3daafe3b4186f6b6457e0",
            "0x0000000000000000000000000000000000000000000000000000000000000000",
            "0x000000000000000000000000f28546cfbbbb0474aa77ec692e35abebb6ba98e1"
          ],
          "data": "0x",
          "blockHash": "0xbe9fca024c3c0c28b85946803f7b9acf36c61e932d1910ac6717e72bad7f82a0",
          "blockNumber": "0x5ef7ac",
          "blockTimestamp": "0x68679c8b",
          "transactionHash": "0xd3ea29d5624ad3518fa5236c6a54adf3fd179c559b7bf7360fc36a2a292b45dd",
          "transactionIndex": "0x0",
          "logIndex": "0x0",
          "removed": false
        },
        {
          "address": "0x87745b23a1aa02fecd6ce0f623ca9f6295852004",
          "topics": [
            "0xc7f505b2f371ae2175ee4913f4499e1f2633a7b5936321eed1cdaeb6115181d2"
          ],
          "data": "0x0000000000000000000000000000000000000000000000000000000000000001",
          "blockHash": "0xbe9fca024c3c0c28b85946803f7b9acf36c61e932d1910ac6717e72bad7f82a0",
          "blockNumber": "0x5ef7ac",
          "blockTimestamp": "0x68679c8b",
          "transactionHash": "0xd3ea29d5624ad3518fa5236c6a54adf3fd179c559b7bf7360fc36a2a292b45dd",
          "transactionIndex": "0x0",
          "logIndex": "0x1",
          "removed": false
        },
        {
          "address": "0xdc5cb61cdbc8ef3223847d5e555960b3e0cf9167",
          "topics": [
            "0x8d49b14f2b628cc0c1a7ad5e098155260cd1881003c9d3107c728be96f706b33",
            "0x00000000000000000000000087745b23a1aa02fecd6ce0f623ca9f6295852004",
            "0x000000000000000000000000e355d5d8aa52ef0fbbd037c4a3c5e6fd659cf46b",
            "0x6327bba7f936bb81e4ce83be0921a10d1a1c7ebce591950c625c184444bca5ef"
          ],
          "data": "0x",
          "blockHash": "0xbe9fca024c3c0c28b85946803f7b9acf36c61e932d1910ac6717e72bad7f82a0",
          "blockNumber": "0x5ef7ac",
          "blockTimestamp": "0x68679c8b",
          "transactionHash": "0xd3ea29d5624ad3518fa5236c6a54adf3fd179c559b7bf7360fc36a2a292b45dd",
          "transactionIndex": "0x0",
          "logIndex": "0x2",
          "removed": false
        }
      ],
      "logsBloom": "0x000000000000000008000000000000000000000000000000008000000000000000005000008080000000000000000000000000000000000000000000000000000000000000000000000000000000000000010000000000000000100000000000000000000a0000000000000000000800000000000000000000000000000000400000040000000000000800000000000200000000000080000002000000400000000000000000000000000000000000000000000000000000000000000000000000000200000000a00000000000001000020000000004000000000000040020000000000000000020000000200000000000000000000000020000000000004000",
      "type": "0x2",
      "transactionHash": "0xd3ea29d5624ad3518fa5236c6a54adf3fd179c559b7bf7360fc36a2a292b45dd",
      "transactionIndex": "0x0",
      "blockHash": "0xbe9fca024c3c0c28b85946803f7b9acf36c61e932d1910ac6717e72bad7f82a0",
      "blockNumber": "0x5ef7ac",
      "gasUsed": "0x4e121",
      "effectiveGasPrice": "0x8",
      "from": "0xe355d5d8aa52ef0fbbd037c4a3c5e6fd659cf46b",
      "to": "0xdc5cb61cdbc8ef3223847d5e555960b3e0cf9167",
      "contractAddress": null
    },
    {
      "status": "0x1",
      "cumulativeGasUsed": "0xfd97",
      "logs": [
        {
          "address": "0x87745b23a1aa02fecd6ce0f623ca9f6295852004",
          "topics": [
            "0xcb11cc8aade2f5a556749d1b2380d108a16fac3431e6a5d5ce12ef9de0bd76e3",
            "0x000000000000000000000000f28546cfbbbb0474aa77ec692e35abebb6ba98e1"
          ],
          "data": "0x0000000000000000000000002a58a3d405c527491daae4c62561b949e7f87efe",
          "blockHash": "0xc846f16a669cdda873ffe1071b02e8348cd179a46f6667ae686e44a1f09ede68",
          "blockNumber": "0x5ef7ae",
          "blockTimestamp": "0x68679c8e",
          "transactionHash": "0x64764db609155e6b33b80c10583626bdd17d269f69a431f650d46e54fdd14a00",
          "transactionIndex": "0x0",
          "logIndex": "0x0",
          "removed": false
        }
      ],
      "logsBloom": "0x00000000000000000800000000000040000000000000000000000000000200000000000000008000000800000000000000000000000000000000000000000000000000000000000000000000000000000000000000000000000000000000000000000000000000000000000000000000000000000000000000000000000000000000000000000000000000000000000000000000000000000000000000000000000000000000000000000000000000000000000000000000000000000000000000000200000000800000000000000000020000000000000000000000040000000000000000000000000000000000000000000000000000000000000000000000",
      "type": "0x2",
      "transactionHash": "0x64764db609155e6b33b80c10583626bdd17d269f69a431f650d46e54fdd14a00",
      "transactionIndex": "0x0",
      "blockHash": "0xc846f16a669cdda873ffe1071b02e8348cd179a46f6667ae686e44a1f09ede68",
      "blockNumber": "0x5ef7ae",
      "gasUsed": "0xfd97",
      "effectiveGasPrice": "0x8",
      "from": "0xe355d5d8aa52ef0fbbd037c4a3c5e6fd659cf46b",
      "to": "0xf28546cfbbbb0474aa77ec692e35abebb6ba98e1",
      "contractAddress": null
    },
    {
      "status": "0x1",
      "cumulativeGasUsed": "0xf4ae",
      "logs": [
        {
          "address": "0x87745b23a1aa02fecd6ce0f623ca9f6295852004",
          "topics": [
            "0x74dc60cbc81a9472d04ad1d20e151d369c41104d655ed3f2f3091166a502cd8d",
            "0x0000000000000000000000002a58a3d405c527491daae4c62561b949e7f87efe"
          ],
          "data": "0x0000000000000000000000000000000000000000000000000000000000000001",
          "blockHash": "0xb1cf3175e4c430a47f54670d4e66efc88fd23bae8197ae6e8b75cf1e8be51209",
          "blockNumber": "0x5ef7b0",
          "blockTimestamp": "0x68679c92",
          "transactionHash": "0x6eb91cb7ed8a966b5fe54da5764d5b3f12066a14e68a1d7b143cccf7c3141101",
          "transactionIndex": "0x0",
          "logIndex": "0x0",
          "removed": false
        }
      ],
      "logsBloom": "0x00000000000000000800000000000000000000000000000000000000000000000000000000048000000000000000000000000000000000000000000000000000000000000000000000000000000000000000000000000000000000000000000000000200040000000000000000000000000000000000800000000000000000000000000000000000000000000000000000000000000000000000000000000000000000000000000000000000000000000000000000000000000000000000000000000200000000000000000000000000000000000000000000000000000000000000000000000001000000000000000000000000000800000000000000000000",
      "type": "0x2",
      "transactionHash": "0x6eb91cb7ed8a966b5fe54da5764d5b3f12066a14e68a1d7b143cccf7c3141101",
      "transactionIndex": "0x0",
      "blockHash": "0xb1cf3175e4c430a47f54670d4e66efc88fd23bae8197ae6e8b75cf1e8be51209",
      "blockNumber": "0x5ef7b0",
      "gasUsed": "0xf4ae",
      "effectiveGasPrice": "0x8",
      "from": "0xe355d5d8aa52ef0fbbd037c4a3c5e6fd659cf46b",
      "to": "0xf28546cfbbbb0474aa77ec692e35abebb6ba98e1",
      "contractAddress": null
    }
  ],
  "libraries": [],
  "pending": [],
  "returns": {},
  "timestamp": 1751620936,
  "chain": 80069,
  "commit": "22f532e"
}