{
  "transactions": [
    {
      "hash": "0xbdcf704f2f89d2ad7921d085ea311717d1871507f745ea5255295735738cc1dc",
      "transactionType": "CALL",
      "contractName": "Faucet",
      "contractAddress": "0x34230231a3e309fa68d81ed6a0183282dd629859",
      "function": "addToken(string,string,uint8)",
      "arguments": [
        "PT-sUSDE-25SEP2025",
        "PT-sUSDE-25SEP2025",
        "18"
      ],
      "transaction": {
        "from": "0xe355d5d8aa52ef0fbbd037c4a3c5e6fd659cf46b",
        "to": "0x34230231a3e309fa68d81ed6a0183282dd629859",
        "gas": "0x146205",
        "value": "0x0",
        "input": "0xf3bdd863000000000000000000000000000000000000000000000000000000000000006000000000000000000000000000000000000000000000000000000000000000a00000000000000000000000000000000000000000000000000000000000000012000000000000000000000000000000000000000000000000000000000000001250542d73555344452d3235534550323032350000000000000000000000000000000000000000000000000000000000000000000000000000000000000000001250542d73555344452d3235534550323032350000000000000000000000000000",
        "nonce": "0xd9e",
        "chainId": "0xaa36a7"
      },
      "additionalContracts": [
        {
          "transactionType": "CREATE",
          "address": "0x5c4045efc806c1c84ed05334b9af00ad9a4c0d9b",
          "initCode": "0x60a0604052346103a757610c3680380380610019816103ab565b9283398101906080818303126103a75780516001600160a01b038116908190036103a75760208201516001600160401b0381116103a7578361005c9184016103d0565b60408301519093906001600160401b0381116103a7576060916100809185016103d0565b92015160ff811681036103a75783516001600160401b0381116102b857600354600181811c9116801561039d575b602082101461029a57601f811161033a575b50602094601f82116001146102d7579481929394955f926102cc575b50508160011b915f199060031b1c1916176003555b82516001600160401b0381116102b857600454600181811c911680156102ae575b602082101461029a57601f8111610237575b506020601f82116001146101d457819293945f926101c9575b50508160011b915f199060031b1c1916176004555b81156101b657600580546001600160a01b03198116841790915560405192906001600160a01b03167f8be0079c531659141344cd1fd0a4f28419497f9722a3daafe3b4186f6b6457e05f80a360805261081490816104228239608051816104460152f35b631e4fbdf760e01b5f525f60045260245ffd5b015190505f8061013d565b601f1982169060045f52805f20915f5b81811061021f57509583600195969710610207575b505050811b01600455610152565b01515f1960f88460031b161c191690555f80806101f9565b9192602060018192868b0151815501940192016101e4565b60045f527f8a35acfbc15ff81a39ae7d344fd709f28e8600b4aa8c65c6b64bfe7fe36bd19b601f830160051c81019160208410610290575b601f0160051c01905b8181106102855750610124565b5f8155600101610278565b909150819061026f565b634e487b7160e01b5f52602260045260245ffd5b90607f1690610112565b634e487b7160e01b5f52604160045260245ffd5b015190505f806100dc565b601f1982169560035f52805f20915f5b8881106103225750836001959697981061030a575b505050811b016003556100f1565b01515f1960f88460031b161c191690555f80806102fc565b919260206001819286850151815501940192016102e7565b60035f527fc2575a0e9e593c00f959f8c92f12db2869c3395a3b0502d05e2516446f71f85b601f830160051c81019160208410610393575b601f0160051c01905b81811061038857506100c0565b5f815560010161037b565b9091508190610372565b90607f16906100ae565b5f80fd5b6040519190601f01601f191682016001600160401b038111838210176102b857604052565b81601f820112156103a7578051906001600160401b0382116102b8576103ff601f8301601f19166020016103ab565b92828452602083830101116103a757815f9260208093018386015e830101529056fe6080806040526004361015610012575f80fd5b5f3560e01c90816306fdde03146105e857508063095ea7b31461056657806318160ddd1461054957806323b872dd1461046a578063313ce5671461042d57806340c10f191461038b57806370a0823114610354578063715018a6146102f95780638da5cb5b146102d157806395d89b41146101b6578063a9059cbb14610185578063dd62ed3e146101355763f2fde38b146100ab575f80fd5b34610131576020366003190112610131576100c46106e1565b6100cc6107b7565b6001600160a01b0316801561011e57600580546001600160a01b0319811683179091556001600160a01b03167f8be0079c531659141344cd1fd0a4f28419497f9722a3daafe3b4186f6b6457e05f80a3005b631e4fbdf760e01b5f525f60045260245ffd5b5f80fd5b346101315760403660031901126101315761014e6106e1565b6101566106f7565b6001600160a01b039182165f908152600160209081526040808320949093168252928352819020549051908152f35b34610131576040366003190112610131576101ab6101a16106e1565b602435903361070d565b602060405160018152f35b34610131575f366003190112610131576040515f6004548060011c906001811680156102c7575b6020831081146102b3578285529081156102975750600114610242575b50819003601f01601f191681019067ffffffffffffffff82118183101761022e5761022a829182604052826106b7565b0390f35b634e487b7160e01b5f52604160045260245ffd5b905060045f527f8a35acfbc15ff81a39ae7d344fd709f28e8600b4aa8c65c6b64bfe7fe36bd19b5f905b828210610281575060209150820101826101fa565b600181602092548385880101520191019061026c565b90506020925060ff191682840152151560051b820101826101fa565b634e487b7160e01b5f52602260045260245ffd5b91607f16916101dd565b34610131575f366003190112610131576005546040516001600160a01b039091168152602090f35b34610131575f366003190112610131576103116107b7565b600580546001600160a01b031981169091555f906001600160a01b03167f8be0079c531659141344cd1fd0a4f28419497f9722a3daafe3b4186f6b6457e08280a3005b34610131576020366003190112610131576001600160a01b036103756106e1565b165f525f602052602060405f2054604051908152f35b34610131576040366003190112610131576103a46106e1565b6001600160a01b0316602435811561041a57600254908082018092116104065760207fddf252ad1be2c89b69c2b068fc378daa952ba7f163c4a11628f55a4df523b3ef915f9360025584845283825260408420818154019055604051908152a3005b634e487b7160e01b5f52601160045260245ffd5b63ec442f0560e01b5f525f60045260245ffd5b34610131575f36600319011261013157602060405160ff7f0000000000000000000000000000000000000000000000000000000000000000168152f35b34610131576060366003190112610131576104836106e1565b61048b6106f7565b6001600160a01b0382165f818152600160209081526040808320338452909152902054909260443592915f1981106104c9575b506101ab935061070d565b83811061052e57841561051b573315610508576101ab945f52600160205260405f2060018060a01b0333165f526020528360405f2091039055846104be565b634a1406b160e11b5f525f60045260245ffd5b63e602df0560e01b5f525f60045260245ffd5b8390637dc7a0d960e11b5f523360045260245260445260645ffd5b34610131575f366003190112610131576020600254604051908152f35b346101315760403660031901126101315761057f6106e1565b60243590331561051b576001600160a01b031690811561050857335f52600160205260405f20825f526020528060405f20556040519081527f8c5be1e5ebec7d5bd14f71427d1e84f3dd0314c0f7b2291e5b200ac8c7c3b92560203392a3602060405160018152f35b34610131575f366003190112610131575f6003548060011c906001811680156106ad575b6020831081146102b35782855290811561029757506001146106585750819003601f01601f191681019067ffffffffffffffff82118183101761022e5761022a829182604052826106b7565b905060035f527fc2575a0e9e593c00f959f8c92f12db2869c3395a3b0502d05e2516446f71f85b5f905b828210610697575060209150820101826101fa565b6001816020925483858801015201910190610682565b91607f169161060c565b602060409281835280519182918282860152018484015e5f828201840152601f01601f1916010190565b600435906001600160a01b038216820361013157565b602435906001600160a01b038216820361013157565b6001600160a01b03169081156107a4576001600160a01b031691821561041a57815f525f60205260405f205481811061078b57817fddf252ad1be2c89b69c2b068fc378daa952ba7f163c4a11628f55a4df523b3ef92602092855f525f84520360405f2055845f525f825260405f20818154019055604051908152a3565b8263391434e360e21b5f5260045260245260445260645ffd5b634b637e8f60e11b5f525f60045260245ffd5b6005546001600160a01b031633036107cb57565b63118cdaa760e01b5f523360045260245ffdfea2646970667358221220a86c3c548e79e69a581a35ef876a0ec109475d86c4954f25fd7de1f180f3068164736f6c634300081b003300000000000000000000000034230231a3e309fa68d81ed6a0183282dd629859000000000000000000000000000000000000000000000000000000000000008000000000000000000000000000000000000000000000000000000000000000c00000000000000000000000000000000000000000000000000000000000000012000000000000000000000000000000000000000000000000000000000000001250542d73555344452d3235534550323032350000000000000000000000000000000000000000000000000000000000000000000000000000000000000000001250542d73555344452d3235534550323032350000000000000000000000000000"
        },
        {
          "transactionType": "CREATE",
          "address": "0x7ad1a7a220842b50df61fce50b284f2ed4f5826c",
          "initCode": "0x60803460b857601f61051838819003918201601f19168301916001600160401b0383118484101760bc5780849260209460405283398101031260b857516001600160a01b0381169081900360b857801560a5575f80546001600160a01b031981168317825560405192916001600160a01b03909116907f8be0079c531659141344cd1fd0a4f28419497f9722a3daafe3b4186f6b6457e09080a361044790816100d18239f35b631e4fbdf760e01b5f525f60045260245ffd5b5f80fd5b634e487b7160e01b5f52604160045260245ffdfe6080806040526004361015610012575f80fd5b5f3560e01c908163313ce567146103bc5750806354fd4d50146103a1578063715018a61461034a5780637284e416146102d65780638da5cb5b146102af5780639276e261146101bc5780639a6fc8f51461017a578063f2fde38b146100f15763feaf968c1461007f575f80fd5b346100ed575f3660031901126100ed576001546002546003546004546005546100e9946001600160501b0390811694939291165b604080516001600160501b03968716815260208101959095528401929092526060830152909116608082015290819060a0820190565b0390f35b5f80fd5b346100ed5760203660031901126100ed576004356001600160a01b038116908190036100ed5761011f6103eb565b8015610167575f80546001600160a01b03198116831782556001600160a01b0316907f8be0079c531659141344cd1fd0a4f28419497f9722a3daafe3b4186f6b6457e09080a3005b631e4fbdf760e01b5f525f60045260245ffd5b346100ed5760203660031901126100ed576101936103d5565b506001546002546003546004546005546100e9946001600160501b0390811694939291166100b3565b346100ed5760a03660031901126100ed5760405160a0810181811067ffffffffffffffff82111761029b576040526101f26103d5565b815260208101906024358252604081019060443582526060810160643581526084356001600160501b03811681036100ed576001600160501b03602092818560807f0559884fd3a460db3073b7fc896cc77986f16e378210ded43186175bf646fc5f97019485526102616103eb565b51169687831960015416176001555195866002555160035551918260045551166001600160501b03196005541617600555604051908152a3005b634e487b7160e01b5f52604160045260245ffd5b346100ed575f3660031901126100ed575f546040516001600160a01b039091168152602090f35b346100ed575f3660031901126100ed576040516040810181811067ffffffffffffffff82111761029b57604052600b8152604060208201916a54657374204f7261636c6560a81b83528151928391602083525180918160208501528484015e5f828201840152601f01601f19168101030190f35b346100ed575f3660031901126100ed576103626103eb565b5f80546001600160a01b0319811682556001600160a01b03167f8be0079c531659141344cd1fd0a4f28419497f9722a3daafe3b4186f6b6457e08280a3005b346100ed575f3660031901126100ed57602060405160018152f35b346100ed575f3660031901126100ed5780600860209252f35b600435906001600160501b03821682036100ed57565b5f546001600160a01b031633036103fe57565b63118cdaa760e01b5f523360045260245ffdfea26469706673582212202daec443b3462d410351801c2286c42d2abc35f6720e79773e086f4282a14d9664736f6c634300081b0033000000000000000000000000e355d5d8aa52ef0fbbd037c4a3c5e6fd659cf46b"
        }
      ],
      "isFixedGasLimit": false
    },
    {
      "hash": "0x2f4e6df673e1d5e7f75a534f2b6f1237601e3f5f1f15d552309db544944f9423",
      "transactionType": "CALL",
      "contractName": "MockPriceFeed",
      "contractAddress": "0x7ad1a7a220842b50df61fce50b284f2ed4f5826c",
      "function": "updateRoundData((uint80,int256,uint256,uint256,uint80))",
      "arguments": [
        "(1, 98000000, 1754379528, 1754379528, 1)"
      ],
      "transaction": {
        "from": "0xe355d5d8aa52ef0fbbd037c4a3c5e6fd659cf46b",
        "to": "0x7ad1a7a220842b50df61fce50b284f2ed4f5826c",
        "gas": "0x2e2f5",
        "value": "0x0",
        "input": "0x9276e26100000000000000000000000000000000000000000000000000000000000000010000000000000000000000000000000000000000000000000000000005d75c80000000000000000000000000000000000000000000000000000000006891b508000000000000000000000000000000000000000000000000000000006891b5080000000000000000000000000000000000000000000000000000000000000001",
        "nonce": "0xd9f",
        "chainId": "0xaa36a7"
      },
      "additionalContracts": [],
      "isFixedGasLimit": false
    },
    {
      "hash": "0x119f60a9aa1a1fda6786aedf34495aead495a108c59eb78f63b1d78b6cbb2b79",
      "transactionType": "CALL",
      "contractName": "MockPriceFeed",
      "contractAddress": "0x7ad1a7a220842b50df61fce50b284f2ed4f5826c",
      "function": "transferOwnership(address)",
      "arguments": [
        "0x2A58A3D405c527491Daae4C62561B949e7F87EFE"
      ],
      "transaction": {
        "from": "0xe355d5d8aa52ef0fbbd037c4a3c5e6fd659cf46b",
        "to": "0x7ad1a7a220842b50df61fce50b284f2ed4f5826c",
        "gas": "0x99dc",
        "value": "0x0",
        "input": "0xf2fde38b0000000000000000000000002a58a3d405c527491daae4c62561b949e7f87efe",
        "nonce": "0xda0",
        "chainId": "0xaa36a7"
      },
      "additionalContracts": [],
      "isFixedGasLimit": false
    },
    {
      "hash": "0xc9ea8d4912cdf5c4248d95217d3e8ec97d798124474d40575eb4769ddbb30b47",
      "transactionType": "CALL",
      "contractName": "ERC1967Proxy",
      "contractAddress": "0x7662fcf152a9e18280a77f4a8108229e86d398ab",
      "function": null,
      "arguments": null,
      "transaction": {
        "from": "0xe355d5d8aa52ef0fbbd037c4a3c5e6fd659cf46b",
        "to": "0x7662fcf152a9e18280a77f4a8108229e86d398ab",
        "gas": "0x23a44",
        "value": "0x0",
        "input": "0x13182df7000000000000000000000000614eaff71890b3c2677adb111252ee1be5a53ef70000000000000000000000005c4045efc806c1c84ed05334b9af00ad9a4c0d9b0000000000000000000000007ad1a7a220842b50df61fce50b284f2ed4f5826c0000000000000000000000007ad1a7a220842b50df61fce50b284f2ed4f5826c0000000000000000000000000000000000000000000000000000000001e13380",
        "nonce": "0xda1",
        "chainId": "0xaa36a7"
      },
      "additionalContracts": [],
      "isFixedGasLimit": false
    },
    {
      "hash": "0xb372f160b8775355f21d477cd8870fc540c2207450c7160aaec5bcfc9ac80c6f",
      "transactionType": "CALL",
      "contractName": "ERC1967Proxy",
      "contractAddress": "0x7662fcf152a9e18280a77f4a8108229e86d398ab",
      "function": null,
      "arguments": null,
      "transaction": {
        "from": "0xe355d5d8aa52ef0fbbd037c4a3c5e6fd659cf46b",
        "to": "0x7662fcf152a9e18280a77f4a8108229e86d398ab",
        "gas": "0x1cb30",
        "value": "0x0",
        "input": "0x198506f3000000000000000000000000614eaff71890b3c2677adb111252ee1be5a53ef70000000000000000000000005c4045efc806c1c84ed05334b9af00ad9a4c0d9b",
        "nonce": "0xda2",
        "chainId": "0xaa36a7"
      },
      "additionalContracts": [],
      "isFixedGasLimit": false
    },
    {
      "hash": "0xefa4e51902971e0c71e5db6289c4b8dcd488e4c94ebcf822151be49f3c2940b1",
      "transactionType": "CALL",
      "contractName": "ERC1967Proxy",
      "contractAddress": "0x7662fcf152a9e18280a77f4a8108229e86d398ab",
      "function": null,
      "arguments": null,
      "transaction": {
        "from": "0xe355d5d8aa52ef0fbbd037c4a3c5e6fd659cf46b",
        "to": "0x7662fcf152a9e18280a77f4a8108229e86d398ab",
        "gas": "0x1a4e7a",
        "value": "0x0",
        "input": "0xdc496c20000000000000000000000000c0339131b13cb78fc13eee1f2f20ae2ae98f1d03d9eb2aaa5f19c272f06ea2b4c8449687a8c2ac90aa2cfba9b3c9de0dca6ca695000000000000000000000000000000000000000000000000000000000000008000000000000000000000000000000000000000000000000000000000000000000000000000000000000000005c4045efc806c1c84ed05334b9af00ad9a4c0d9b000000000000000000000000cc121ab1098625728950b200490d28f8b2c324fd0000000000000000000000007662fcf152a9e18280a77f4a8108229e86d398ab00000000000000000000000000000000000000000000000000000000000000000000000000000000000000009ec927f61542dcd12def83797d8d1022064dcfa40000000000000000000000000000000000000000000000000000000068d5d78000000000000000000000000000000000000000000000000000000000001e848000000000000000000000000000000000000000000000000000000000001e848000000000000000000000000000000000000000000000000000000000002dc6c000000000000000000000000000000000000000000000000000000000002dc6c000000000000000000000000000000000000000000000000000000000000f42400000000000000000000000000000000000000000000000000000000000061a80000000000000000000000000614eaff71890b3c2677adb111252ee1be5a53ef700000000000000000000000000000000000000000000000000000000059a538000000000000000000000000000000000000000000000000000000000055d4a800000000000000000000000000000000000000000000000000000000000000001000000000000000000000000000000000000000000000000000000000000026000000000000000000000000000000000000000000000000000000000000002a000000000000000000000000000000000000000000000000000000000000003000000000000000000000000000000000000000000000000000000000000000020ffffffffffffffffffffffffffffffffffffffffffffffffffffffffffffffff0000000000000000000000000000000000000000000000000000000000000021555344432f50542d73555344452d32355345503230323540303153455032303235000000000000000000000000000000000000000000000000000000000000000000000000000000000000000000000000000000000000000000000000000021555344432f50542d73555344452d3235534550323032354030315345503230323500000000000000000000000000000000000000000000000000000000000000",
        "nonce": "0xda3",
        "chainId": "0xaa36a7"
      },
      "additionalContracts": [
        {
          "transactionType": "CREATE2",
          "address": "0x0ccb2fede9d7cbaa42bfab50d6b57763584d9d85",
          "initCode": "0x3d602d80600a3d3981f3363d3d373d3d3d363d730ca2e2bf347e94b49cdc8bb0426f2026cadc1b6d5af43d82803e903d91602b57fd5bf3"
        },
        {
          "transactionType": "CREATE",
          "address": "0x7edeef405e63813ac61e08be83079d9bcd835d59",
          "initCode": "0x3d602d80600a3d3981f3363d3d373d3d3d363d73d04b80ec42eda733a8bfaf14b38747c7f7c2830e5af43d82803e903d91602b57fd5bf3"
        },
        {
          "transactionType": "CREATE",
          "address": "0x3ad2380fe5acc048c7713f544e1d7e96dab2596a",
          "initCode": "0x3d602d80600a3d3981f3363d3d373d3d3d363d73d04b80ec42eda733a8bfaf14b38747c7f7c2830e5af43d82803e903d91602b57fd5bf3"
        },
        {
          "transactionType": "CREATE",
          "address": "0xca10f035e2b6eba6aa9ba0ee6f1a2a2b1b5b2cfe",
          "initCode": "0x3d602d80600a3d3981f3363d3d373d3d3d363d739828358901cf279754eafac0540ca8923269ef415af43d82803e903d91602b57fd5bf3"
        }
      ],
      "isFixedGasLimit": false
    }
  ],
  "receipts": [
    {
      "status": "0x1",
      "cumulativeGasUsed": "0xf3c8e3",
      "logs": [
        {
          "address": "0x5c4045efc806c1c84ed05334b9af00ad9a4c0d9b",
          "topics": [
            "0x8be0079c531659141344cd1fd0a4f28419497f9722a3daafe3b4186f6b6457e0",
            "0x0000000000000000000000000000000000000000000000000000000000000000",
            "0x00000000000000000000000034230231a3e309fa68d81ed6a0183282dd629859"
          ],
          "data": "0x",
          "blockHash": "0x60923827ebe1b4a5bd1cd167680222e0ea62d93c5b2d83f3ec2baa67aab85c8f",
          "blockNumber": "0x880eaa",
          "blockTimestamp": "0x6891b520",
          "transactionHash": "0xbdcf704f2f89d2ad7921d085ea311717d1871507f745ea5255295735738cc1dc",
          "transactionIndex": "0x76",
          "logIndex": "0xec",
          "removed": false
        },
        {
          "address": "0x7ad1a7a220842b50df61fce50b284f2ed4f5826c",
          "topics": [
            "0x8be0079c531659141344cd1fd0a4f28419497f9722a3daafe3b4186f6b6457e0",
            "0x0000000000000000000000000000000000000000000000000000000000000000",
            "0x000000000000000000000000e355d5d8aa52ef0fbbd037c4a3c5e6fd659cf46b"
          ],
          "data": "0x",
          "blockHash": "0x60923827ebe1b4a5bd1cd167680222e0ea62d93c5b2d83f3ec2baa67aab85c8f",
          "blockNumber": "0x880eaa",
          "blockTimestamp": "0x6891b520",
          "transactionHash": "0xbdcf704f2f89d2ad7921d085ea311717d1871507f745ea5255295735738cc1dc",
          "transactionIndex": "0x76",
          "logIndex": "0xed",
          "removed": false
        }
      ],
      "logsBloom": "0x00000000000000020000000000000000000000000000000000800100000000000000000000000000000000000000000000000000000000000000000000000000000220000000000000000000000000000001000000000000000000000000000000000000020000000000000000000800000000000000000000000000000000400000000000000000000000000000000200000000000000000000000004000000000000010000000000000000000000000000000000000000000000000000000000000000000000000000000000000000000000000000000000000000040020000000000000000020000000000000010000000000000000040000000000004000",
      "type": "0x2",
      "transactionHash": "0xbdcf704f2f89d2ad7921d085ea311717d1871507f745ea5255295735738cc1dc",
      "transactionIndex": "0x76",
      "blockHash": "0x60923827ebe1b4a5bd1cd167680222e0ea62d93c5b2d83f3ec2baa67aab85c8f",
      "blockNumber": "0x880eaa",
      "gasUsed": "0xdefe1",
      "effectiveGasPrice": "0x35c05e",
      "from": "0xe355d5d8aa52ef0fbbd037c4a3c5e6fd659cf46b",
      "to": "0x34230231a3e309fa68d81ed6a0183282dd629859",
      "contractAddress": null
    },
    {
      "status": "0x1",
      "cumulativeGasUsed": "0xb05a25",
      "logs": [
        {
          "address": "0x7ad1a7a220842b50df61fce50b284f2ed4f5826c",
          "topics": [
            "0x0559884fd3a460db3073b7fc896cc77986f16e378210ded43186175bf646fc5f",
            "0x0000000000000000000000000000000000000000000000000000000005d75c80",
            "0x0000000000000000000000000000000000000000000000000000000000000001"
          ],
          "data": "0x000000000000000000000000000000000000000000000000000000006891b508",
          "blockHash": "0x9cc1811df7fb16811c83365d389785876c58f15cb7a10466eb4ae5ebb52c1566",
          "blockNumber": "0x880eab",
          "blockTimestamp": "0x6891b52c",
          "transactionHash": "0x2f4e6df673e1d5e7f75a534f2b6f1237601e3f5f1f15d552309db544944f9423",
          "transactionIndex": "0x79",
          "logIndex": "0xe0",
          "removed": false
        }
      ],
      "logsBloom": "0x00000000000000020000000000000000000000000000000000000000000000000000000000000000000000000000000000000000000200000000000000040000000020000000000000000040000000000000000000040000000000000000000000000000000000000000000000000000000000000000000000000000000000000000000000000000000000000000000000000480000000000000000000000400000000010000000000000000000000000000000000000000000000000000000000000000000000000000000000000000000000000000000000000000000040080000000000000000000000000000000000000000000000000000000000000000",
      "type": "0x2",
      "transactionHash": "0x2f4e6df673e1d5e7f75a534f2b6f1237601e3f5f1f15d552309db544944f9423",
      "transactionIndex": "0x79",
      "blockHash": "0x9cc1811df7fb16811c83365d389785876c58f15cb7a10466eb4ae5ebb52c1566",
      "blockNumber": "0x880eab",
      "gasUsed": "0x216ff",
      "effectiveGasPrice": "0x351563",
      "from": "0xe355d5d8aa52ef0fbbd037c4a3c5e6fd659cf46b",
      "to": "0x7ad1a7a220842b50df61fce50b284f2ed4f5826c",
      "contractAddress": null
    },
    {
      "status": "0x1",
      "cumulativeGasUsed": "0x112354e",
      "logs": [
        {
          "address": "0x7ad1a7a220842b50df61fce50b284f2ed4f5826c",
          "topics": [
            "0x8be0079c531659141344cd1fd0a4f28419497f9722a3daafe3b4186f6b6457e0",
            "0x000000000000000000000000e355d5d8aa52ef0fbbd037c4a3c5e6fd659cf46b",
            "0x0000000000000000000000002a58a3d405c527491daae4c62561b949e7f87efe"
          ],
          "data": "0x",
          "blockHash": "0xf0bd6c683c28b3e319e05b916ce31db78c11b51a6a068d2d942af0927ff74542",
          "blockNumber": "0x880eac",
          "blockTimestamp": "0x6891b538",
          "transactionHash": "0x119f60a9aa1a1fda6786aedf34495aead495a108c59eb78f63b1d78b6cbb2b79",
          "transactionIndex": "0x93",
          "logIndex": "0x14b",
          "removed": false
        }
      ],
      "logsBloom": "0x00000000000000020000000000000000000000000000000000800000000000000000000000040000000000000000000000000000000000000000000000000000000020000000000000000000000000000001000000000000000000000000000000000000040000000000000000000000000000000000000000000000000000400000000000000000000000000000000200000000000000000000000000000000000000010000000000000000000000000000000000000000000000000000000000000000000000000000000000000000000000000000000000000000000000000000000000000021000000000000000000000000000000000000000000004000",
      "type": "0x2",
      "transactionHash": "0x119f60a9aa1a1fda6786aedf34495aead495a108c59eb78f63b1d78b6cbb2b79",
      "transactionIndex": "0x93",
      "blockHash": "0xf0bd6c683c28b3e319e05b916ce31db78c11b51a6a068d2d942af0927ff74542",
      "blockNumber": "0x880eac",
      "gasUsed": "0x6f65",
      "effectiveGasPrice": "0x33441d",
      "from": "0xe355d5d8aa52ef0fbbd037c4a3c5e6fd659cf46b",
      "to": "0x7ad1a7a220842b50df61fce50b284f2ed4f5826c",
      "contractAddress": null
    },
    {
      "status": "0x1",
      "cumulativeGasUsed": "0xe1d593",
      "logs": [
        {
          "address": "0x614eaff71890b3c2677adb111252ee1be5a53ef7",
          "topics": [
            "0x3fa96d5be1017ee5b004406bdd188cafc8b272e02d02e80dfae54d13ab6524e6",
            "0x0000000000000000000000005c4045efc806c1c84ed05334b9af00ad9a4c0d9b",
            "0x0000000000000000000000007ad1a7a220842b50df61fce50b284f2ed4f5826c",
            "0x0000000000000000000000007ad1a7a220842b50df61fce50b284f2ed4f5826c"
          ],
          "data": "0x0000000000000000000000000000000000000000000000000000000001e13380000000000000000000000000000000000000000000000000000000006891b544",
          "blockHash": "0x183dd898eb23ff5e4e9fd41171f6ebe30ddaced8834ab79aa44722f99e9bf561",
          "blockNumber": "0x880ead",
          "blockTimestamp": "0x6891b544",
          "transactionHash": "0xc9ea8d4912cdf5c4248d95217d3e8ec97d798124474d40575eb4769ddbb30b47",
          "transactionIndex": "0x74",
          "logIndex": "0x12e",
          "removed": false
        }
      ],
      "logsBloom": "0x00000000000000000000000000000000000000000000000000000000000000000000000000000000000000000002000000000000000000000000000000000000000008000000000800000002000000000000000000000000000000000000000000000000000000000000080040000000000000000000000000000000000000000000000000000000100000000000000000040000000000000000000000000000001000000000000000000000000000000000000000000000000000000000000000000000000000000000000000000000408000000000000000000000000000000000000000000000000000000000000000000000400000000000000000000000",
      "type": "0x2",
      "transactionHash": "0xc9ea8d4912cdf5c4248d95217d3e8ec97d798124474d40575eb4769ddbb30b47",
      "transactionIndex": "0x74",
      "blockHash": "0x183dd898eb23ff5e4e9fd41171f6ebe30ddaced8834ab79aa44722f99e9bf561",
      "blockNumber": "0x880ead",
      "gasUsed": "0x19cde",
      "effectiveGasPrice": "0x32a357",
      "from": "0xe355d5d8aa52ef0fbbd037c4a3c5e6fd659cf46b",
      "to": "0x7662fcf152a9e18280a77f4a8108229e86d398ab",
      "contractAddress": null
    },
    {
      "status": "0x1",
      "cumulativeGasUsed": "0x189c2b6",
      "logs": [
        {
          "address": "0x614eaff71890b3c2677adb111252ee1be5a53ef7",
          "topics": [
            "0x1fde9522e8fecea62ddfd7a16a09129167e338cfdce86f3b8742a7aacaf34535",
            "0x0000000000000000000000005c4045efc806c1c84ed05334b9af00ad9a4c0d9b",
            "0x0000000000000000000000007ad1a7a220842b50df61fce50b284f2ed4f5826c",
            "0x0000000000000000000000007ad1a7a220842b50df61fce50b284f2ed4f5826c"
          ],
          "data": "0x0000000000000000000000000000000000000000000000000000000001e13380",
          "blockHash": "0xb1af591b0275dd45b626ddac024c14f48bad319731102f135c381809f2642f16",
          "blockNumber": "0x880eae",
          "blockTimestamp": "0x6891b550",
          "transactionHash": "0xb372f160b8775355f21d477cd8870fc540c2207450c7160aaec5bcfc9ac80c6f",
          "transactionIndex": "0x9a",
          "logIndex": "0x179",
          "removed": false
        }
      ],
      "logsBloom": "0x00000000000000000000000000000000000000000000000000000000000000000000000000000000000000000002000000000000000000000000000000000000000008000000000000000002000000000000000000000000000000000000000000000000000000000000080040000000000000000000000000000000000000000000000000000000100000000000020000000000000000000000000000000000001000000000000000000000000000000000000000000000000000000000000000000000000000004000000000000000400400000000000000000000000000000000000000000000000000000000000000000000400000000000000000000000",
      "type": "0x2",
      "transactionHash": "0xb372f160b8775355f21d477cd8870fc540c2207450c7160aaec5bcfc9ac80c6f",
      "transactionIndex": "0x9a",
      "blockHash": "0xb1af591b0275dd45b626ddac024c14f48bad319731102f135c381809f2642f16",
      "blockNumber": "0x880eae",
      "gasUsed": "0x139fa",
      "effectiveGasPrice": "0x312830",
      "from": "0xe355d5d8aa52ef0fbbd037c4a3c5e6fd659cf46b",
      "to": "0x7662fcf152a9e18280a77f4a8108229e86d398ab",
      "contractAddress": null
    },
    {
      "status": "0x1",
      "cumulativeGasUsed": "0x119d611",
      "logs": [
        {
          "address": "0x0ccb2fede9d7cbaa42bfab50d6b57763584d9d85",
          "topics": [
            "0x8be0079c531659141344cd1fd0a4f28419497f9722a3daafe3b4186f6b6457e0",
            "0x0000000000000000000000000000000000000000000000000000000000000000",
            "0x0000000000000000000000007662fcf152a9e18280a77f4a8108229e86d398ab"
          ],
          "data": "0x",
          "blockHash": "0x86cddd6c70af6bacfcb5bf381c4884d13dd9885ec5e4bdbcb6c83fa7031db849",
          "blockNumber": "0x880eaf",
          "blockTimestamp": "0x6891b55c",
          "transactionHash": "0xefa4e51902971e0c71e5db6289c4b8dcd488e4c94ebcf822151be49f3c2940b1",
          "transactionIndex": "0x8d",
          "logIndex": "0x13a",
          "removed": false
        },
        {
          "address": "0x7edeef405e63813ac61e08be83079d9bcd835d59",
          "topics": [
            "0x8be0079c531659141344cd1fd0a4f28419497f9722a3daafe3b4186f6b6457e0",
            "0x0000000000000000000000000000000000000000000000000000000000000000",
            "0x0000000000000000000000000ccb2fede9d7cbaa42bfab50d6b57763584d9d85"
          ],
          "data": "0x",
          "blockHash": "0x86cddd6c70af6bacfcb5bf381c4884d13dd9885ec5e4bdbcb6c83fa7031db849",
          "blockNumber": "0x880eaf",
          "blockTimestamp": "0x6891b55c",
          "transactionHash": "0xefa4e51902971e0c71e5db6289c4b8dcd488e4c94ebcf822151be49f3c2940b1",
          "transactionIndex": "0x8d",
          "logIndex": "0x13b",
          "removed": false
        },
        {
          "address": "0x7edeef405e63813ac61e08be83079d9bcd835d59",
          "topics": [
            "0xc7f505b2f371ae2175ee4913f4499e1f2633a7b5936321eed1cdaeb6115181d2"
          ],
          "data": "0x0000000000000000000000000000000000000000000000000000000000000001",
          "blockHash": "0x86cddd6c70af6bacfcb5bf381c4884d13dd9885ec5e4bdbcb6c83fa7031db849",
          "blockNumber": "0x880eaf",
          "blockTimestamp": "0x6891b55c",
          "transactionHash": "0xefa4e51902971e0c71e5db6289c4b8dcd488e4c94ebcf822151be49f3c2940b1",
          "transactionIndex": "0x8d",
          "logIndex": "0x13c",
          "removed": false
        },
        {
          "address": "0x3ad2380fe5acc048c7713f544e1d7e96dab2596a",
          "topics": [
            "0x8be0079c531659141344cd1fd0a4f28419497f9722a3daafe3b4186f6b6457e0",
            "0x0000000000000000000000000000000000000000000000000000000000000000",
            "0x0000000000000000000000000ccb2fede9d7cbaa42bfab50d6b57763584d9d85"
          ],
          "data": "0x",
          "blockHash": "0x86cddd6c70af6bacfcb5bf381c4884d13dd9885ec5e4bdbcb6c83fa7031db849",
          "blockNumber": "0x880eaf",
          "blockTimestamp": "0x6891b55c",
          "transactionHash": "0xefa4e51902971e0c71e5db6289c4b8dcd488e4c94ebcf822151be49f3c2940b1",
          "transactionIndex": "0x8d",
          "logIndex": "0x13d",
          "removed": false
        },
        {
          "address": "0x3ad2380fe5acc048c7713f544e1d7e96dab2596a",
          "topics": [
            "0xc7f505b2f371ae2175ee4913f4499e1f2633a7b5936321eed1cdaeb6115181d2"
          ],
          "data": "0x0000000000000000000000000000000000000000000000000000000000000001",
          "blockHash": "0x86cddd6c70af6bacfcb5bf381c4884d13dd9885ec5e4bdbcb6c83fa7031db849",
          "blockNumber": "0x880eaf",
          "blockTimestamp": "0x6891b55c",
          "transactionHash": "0xefa4e51902971e0c71e5db6289c4b8dcd488e4c94ebcf822151be49f3c2940b1",
          "transactionIndex": "0x8d",
          "logIndex": "0x13e",
          "removed": false
        },
        {
          "address": "0xca10f035e2b6eba6aa9ba0ee6f1a2a2b1b5b2cfe",
          "topics": [
            "0x8be0079c531659141344cd1fd0a4f28419497f9722a3daafe3b4186f6b6457e0",
            "0x0000000000000000000000000000000000000000000000000000000000000000",
            "0x0000000000000000000000000ccb2fede9d7cbaa42bfab50d6b57763584d9d85"
          ],
          "data": "0x",
          "blockHash": "0x86cddd6c70af6bacfcb5bf381c4884d13dd9885ec5e4bdbcb6c83fa7031db849",
          "blockNumber": "0x880eaf",
          "blockTimestamp": "0x6891b55c",
          "transactionHash": "0xefa4e51902971e0c71e5db6289c4b8dcd488e4c94ebcf822151be49f3c2940b1",
          "transactionIndex": "0x8d",
          "logIndex": "0x13f",
          "removed": false
        },
        {
          "address": "0xca10f035e2b6eba6aa9ba0ee6f1a2a2b1b5b2cfe",
          "topics": [
            "0xc7f505b2f371ae2175ee4913f4499e1f2633a7b5936321eed1cdaeb6115181d2"
          ],
          "data": "0x0000000000000000000000000000000000000000000000000000000000000001",
          "blockHash": "0x86cddd6c70af6bacfcb5bf381c4884d13dd9885ec5e4bdbcb6c83fa7031db849",
          "blockNumber": "0x880eaf",
          "blockTimestamp": "0x6891b55c",
          "transactionHash": "0xefa4e51902971e0c71e5db6289c4b8dcd488e4c94ebcf822151be49f3c2940b1",
          "transactionIndex": "0x8d",
          "logIndex": "0x140",
          "removed": false
        },
        {
          "address": "0x0ccb2fede9d7cbaa42bfab50d6b57763584d9d85",
          "topics": [
            "0x923c07a7269eb05c7b48c4002081d856ef37b3cbc4c2bae12d7493178477e306",
            "0x0000000000000000000000005c4045efc806c1c84ed05334b9af00ad9a4c0d9b",
            "0x000000000000000000000000cc121ab1098625728950b200490d28f8b2c324fd"
          ],
          "data": "0x0000000000000000000000000000000000000000000000000000000068d5d7800000000000000000000000007edeef405e63813ac61e08be83079d9bcd835d590000000000000000000000003ad2380fe5acc048c7713f544e1d7e96dab2596a000000000000000000000000ca10f035e2b6eba6aa9ba0ee6f1a2a2b1b5b2cfe",
          "blockHash": "0x86cddd6c70af6bacfcb5bf381c4884d13dd9885ec5e4bdbcb6c83fa7031db849",
          "blockNumber": "0x880eaf",
          "blockTimestamp": "0x6891b55c",
          "transactionHash": "0xefa4e51902971e0c71e5db6289c4b8dcd488e4c94ebcf822151be49f3c2940b1",
          "transactionIndex": "0x8d",
          "logIndex": "0x141",
          "removed": false
        },
        {
          "address": "0x0ccb2fede9d7cbaa42bfab50d6b57763584d9d85",
          "topics": [
            "0xc7f505b2f371ae2175ee4913f4499e1f2633a7b5936321eed1cdaeb6115181d2"
          ],
          "data": "0x0000000000000000000000000000000000000000000000000000000000000001",
          "blockHash": "0x86cddd6c70af6bacfcb5bf381c4884d13dd9885ec5e4bdbcb6c83fa7031db849",
          "blockNumber": "0x880eaf",
          "blockTimestamp": "0x6891b55c",
          "transactionHash": "0xefa4e51902971e0c71e5db6289c4b8dcd488e4c94ebcf822151be49f3c2940b1",
          "transactionIndex": "0x8d",
          "logIndex": "0x142",
          "removed": false
        },
        {
          "address": "0xc0339131b13cb78fc13eee1f2f20ae2ae98f1d03",
          "topics": [
            "0x3f53d2c2743b2b162c0aa5d678be4058d3ae2043700424be52c04105df3e2411",
            "0x0000000000000000000000000ccb2fede9d7cbaa42bfab50d6b57763584d9d85",
            "0x0000000000000000000000005c4045efc806c1c84ed05334b9af00ad9a4c0d9b",
            "0x000000000000000000000000cc121ab1098625728950b200490d28f8b2c324fd"
          ],
          "data": "0x",
          "blockHash": "0x86cddd6c70af6bacfcb5bf381c4884d13dd9885ec5e4bdbcb6c83fa7031db849",
          "blockNumber": "0x880eaf",
          "blockTimestamp": "0x6891b55c",
          "transactionHash": "0xefa4e51902971e0c71e5db6289c4b8dcd488e4c94ebcf822151be49f3c2940b1",
          "transactionIndex": "0x8d",
          "logIndex": "0x143",
          "removed": false
        }
      ],
      "logsBloom": "0x00000004000000000000008000000100000000010000100000800000200000000000008000000000000000000000000000000000000000000000000000400400000000121000008000000002000000000001000000400000000000000000000208100000020000000000002040000800000008000000000000040080000000400000000000000000000800000000020000000000000080000000000000040000080080000000000000000000000000000000000000000000001000000000000000000000000000000000000000000000400000000004000100100000000020000000000000000000000000000000000000000000000000000080000000000000",
      "type": "0x2",
      "transactionHash": "0xefa4e51902971e0c71e5db6289c4b8dcd488e4c94ebcf822151be49f3c2940b1",
      "transactionIndex": "0x8d",
      "blockHash": "0x86cddd6c70af6bacfcb5bf381c4884d13dd9885ec5e4bdbcb6c83fa7031db849",
      "blockNumber": "0x880eaf",
      "gasUsed": "0x130ba4",
      "effectiveGasPrice": "0x3167e8",
      "from": "0xe355d5d8aa52ef0fbbd037c4a3c5e6fd659cf46b",
      "to": "0x7662fcf152a9e18280a77f4a8108229e86d398ab",
      "contractAddress": null
    }
  ],
  "libraries": [],
  "pending": [],
  "returns": {},
  "timestamp": 1754379614,
  "chain": 11155111,
  "commit": "26b17abc"
}