{
  "transactions": [
    {
      "hash": "0xb0998282792ae6a6ac596d0db24c3c2ce935b642247ae13b0c352645aa08e40e",
      "transactionType": "CALL",
      "contractName": null,
      "contractAddress": "0x6025550717afdbae1820fcd3558e3c6c7c288a7f",
      "function": "createVault((address,address,address,uint256,address,uint256,string,string,uint64,uint64,uint64),uint256)",
      "arguments": [
        "(0x7662FcF152a9E18280A77f4A8108229E86D398Ab, 0x71752Dc37b36A597dDf3dF5dcb56e67aF34d0377, 0x17538a672437aB77F3811559d3caA91bE38d8F3c, 86400, 0xE7e6EA2B6A1D7E7d80727290a86CCC9FE5fbe0C1, 50000000000000, Edge-testnet-Vault, Edge-testnet-Vault, 10000000, 0, 0)",
        "0"
      ],
      "transaction": {
        "from": "0xe355d5d8aa52ef0fbbd037c4a3c5e6fd659cf46b",
        "to": "0x6025550717afdbae1820fcd3558e3c6c7c288a7f",
        "gas": "0x803f0",
        "value": "0x0",
        "input": "0x8e49c884000000000000000000000000000000000000000000000000000000000000004000000000000000000000000000000000000000000000000000000000000000000000000000000000000000007662fcf152a9e18280a77f4a8108229e86d398ab00000000000000000000000071752dc37b36a597ddf3df5dcb56e67af34d037700000000000000000000000017538a672437ab77f3811559d3caa91be38d8f3c0000000000000000000000000000000000000000000000000000000000015180000000000000000000000000e7e6ea2b6a1d7e7d80727290a86ccc9fe5fbe0c100000000000000000000000000000000000000000000000000002d79883d2000000000000000000000000000000000000000000000000000000000000000016000000000000000000000000000000000000000000000000000000000000001a00000000000000000000000000000000000000000000000000000000000989680000000000000000000000000000000000000000000000000000000000000000000000000000000000000000000000000000000000000000000000000000000000000000000000000000000000000000000000000000000000000000000000012456467652d746573746e65742d5661756c7400000000000000000000000000000000000000000000000000000000000000000000000000000000000000000012456467652d746573746e65742d5661756c740000000000000000000000000000",
        "nonce": "0xd9a",
        "chainId": "0xaa36a7"
      },
      "additionalContracts": [
        {
          "transactionType": "CREATE2",
          "address": "0x92ea0471924140ff04f1321b68d078f78dd11b32",
          "initCode": "0x3d602d80600a3d3981f3363d3d373d3d3d363d7327944b81b0b724c093989ab44c8f9891433281ff5af43d82803e903d91602b57fd5bf3"
        }
      ],
      "isFixedGasLimit": false
    }
  ],
  "receipts": [
    {
      "status": "0x1",
      "cumulativeGasUsed": "0x108cb2a",
      "logs": [
        {
          "address": "0x92ea0471924140ff04f1321b68d078f78dd11b32",
          "topics": [
            "0x8be0079c531659141344cd1fd0a4f28419497f9722a3daafe3b4186f6b6457e0",
            "0x0000000000000000000000000000000000000000000000000000000000000000",
            "0x0000000000000000000000007662fcf152a9e18280a77f4a8108229e86d398ab"
          ],
          "data": "0x",
          "blockHash": "0x321bff1b3f728d4d3fc1684772b668bd7b27a94b34025fe7ee403d93d7789c22",
          "blockNumber": "0x880e3f",
          "blockTimestamp": "0x6891b01c",
          "transactionHash": "0xb0998282792ae6a6ac596d0db24c3c2ce935b642247ae13b0c352645aa08e40e",
          "transactionIndex": "0x92",
          "logIndex": "0x156",
          "removed": false
        },
        {
          "address": "0x92ea0471924140ff04f1321b68d078f78dd11b32",
          "topics": [
            "0x20affe2401825617c69366f8c3a3493d9822d1021d0b3023c4e77ea5b3d0fbc5",
            "0x0000000000000000000000006025550717afdbae1820fcd3558e3c6c7c288a7f"
          ],
          "data": "0x0000000000000000000000000000000000000000000000000000000000989680",
          "blockHash": "0x321bff1b3f728d4d3fc1684772b668bd7b27a94b34025fe7ee403d93d7789c22",
          "blockNumber": "0x880e3f",
          "blockTimestamp": "0x6891b01c",
          "transactionHash": "0xb0998282792ae6a6ac596d0db24c3c2ce935b642247ae13b0c352645aa08e40e",
          "transactionIndex": "0x92",
          "logIndex": "0x157",
          "removed": false
        },
        {
          "address": "0x92ea0471924140ff04f1321b68d078f78dd11b32",
          "topics": [
            "0xd28e9b90ee9b37c5936ff84392d71f29ff18117d7e76bcee60615262a90a3f75",
            "0x0000000000000000000000006025550717afdbae1820fcd3558e3c6c7c288a7f"
          ],
          "data": "0x0000000000000000000000000000000000000000000000000000000000015180",
          "blockHash": "0x321bff1b3f728d4d3fc1684772b668bd7b27a94b34025fe7ee403d93d7789c22",
          "blockNumber": "0x880e3f",
          "blockTimestamp": "0x6891b01c",
          "transactionHash": "0xb0998282792ae6a6ac596d0db24c3c2ce935b642247ae13b0c352645aa08e40e",
          "transactionIndex": "0x92",
          "logIndex": "0x158",
          "removed": false
        },
        {
          "address": "0x92ea0471924140ff04f1321b68d078f78dd11b32",
          "topics": [
            "0x0cdc8c1df674ca6c4f86f6d47b02a15083c5d3bf098ea38f02c2762bad0afad2",
            "0x0000000000000000000000006025550717afdbae1820fcd3558e3c6c7c288a7f"
          ],
          "data": "0x0000000000000000000000000000000000000000000000000000000000000000",
          "blockHash": "0x321bff1b3f728d4d3fc1684772b668bd7b27a94b34025fe7ee403d93d7789c22",
          "blockNumber": "0x880e3f",
          "blockTimestamp": "0x6891b01c",
          "transactionHash": "0xb0998282792ae6a6ac596d0db24c3c2ce935b642247ae13b0c352645aa08e40e",
          "transactionIndex": "0x92",
          "logIndex": "0x159",
          "removed": false
        },
        {
          "address": "0x92ea0471924140ff04f1321b68d078f78dd11b32",
          "topics": [
            "0x37df918c2fd5f0501a9fdf1651bcdbad7a05d7b163702a82bbe497ee835ebc47",
            "0x0000000000000000000000006025550717afdbae1820fcd3558e3c6c7c288a7f"
          ],
          "data": "0x0000000000000000000000000000000000000000000000000000000000000000",
          "blockHash": "0x321bff1b3f728d4d3fc1684772b668bd7b27a94b34025fe7ee403d93d7789c22",
          "blockNumber": "0x880e3f",
          "blockTimestamp": "0x6891b01c",
          "transactionHash": "0xb0998282792ae6a6ac596d0db24c3c2ce935b642247ae13b0c352645aa08e40e",
          "transactionIndex": "0x92",
          "logIndex": "0x15a",
          "removed": false
        },
        {
          "address": "0x92ea0471924140ff04f1321b68d078f78dd11b32",
          "topics": [
            "0xcb11cc8aade2f5a556749d1b2380d108a16fac3431e6a5d5ce12ef9de0bd76e3",
            "0x0000000000000000000000006025550717afdbae1820fcd3558e3c6c7c288a7f"
          ],
          "data": "0x00000000000000000000000017538a672437ab77f3811559d3caa91be38d8f3c",
          "blockHash": "0x321bff1b3f728d4d3fc1684772b668bd7b27a94b34025fe7ee403d93d7789c22",
          "blockNumber": "0x880e3f",
          "blockTimestamp": "0x6891b01c",
          "transactionHash": "0xb0998282792ae6a6ac596d0db24c3c2ce935b642247ae13b0c352645aa08e40e",
          "transactionIndex": "0x92",
          "logIndex": "0x15b",
          "removed": false
        },
        {
          "address": "0x92ea0471924140ff04f1321b68d078f78dd11b32",
          "topics": [
            "0x51fa58fd85e72d533eb3933ef4dd0bb83a9614f46e076ffa025b0dcbb8dff315",
            "0x0000000000000000000000006025550717afdbae1820fcd3558e3c6c7c288a7f"
          ],
          "data": "0x00000000000000000000000000000000000000000000000000002d79883d2000",
          "blockHash": "0x321bff1b3f728d4d3fc1684772b668bd7b27a94b34025fe7ee403d93d7789c22",
          "blockNumber": "0x880e3f",
          "blockTimestamp": "0x6891b01c",
          "transactionHash": "0xb0998282792ae6a6ac596d0db24c3c2ce935b642247ae13b0c352645aa08e40e",
          "transactionIndex": "0x92",
          "logIndex": "0x15c",
          "removed": false
        },
        {
          "address": "0x92ea0471924140ff04f1321b68d078f78dd11b32",
          "topics": [
            "0xbd0a63c12948fbc9194a5839019f99c9d71db924e5c70018265bc778b8f1a506"
          ],
          "data": "0x00000000000000000000000071752dc37b36a597ddf3df5dcb56e67af34d0377",
          "blockHash": "0x321bff1b3f728d4d3fc1684772b668bd7b27a94b34025fe7ee403d93d7789c22",
          "blockNumber": "0x880e3f",
          "blockTimestamp": "0x6891b01c",
          "transactionHash": "0xb0998282792ae6a6ac596d0db24c3c2ce935b642247ae13b0c352645aa08e40e",
          "transactionIndex": "0x92",
          "logIndex": "0x15d",
          "removed": false
        },
        {
          "address": "0x92ea0471924140ff04f1321b68d078f78dd11b32",
          "topics": [
            "0xc7f505b2f371ae2175ee4913f4499e1f2633a7b5936321eed1cdaeb6115181d2"
          ],
          "data": "0x0000000000000000000000000000000000000000000000000000000000000001",
          "blockHash": "0x321bff1b3f728d4d3fc1684772b668bd7b27a94b34025fe7ee403d93d7789c22",
          "blockNumber": "0x880e3f",
          "blockTimestamp": "0x6891b01c",
          "transactionHash": "0xb0998282792ae6a6ac596d0db24c3c2ce935b642247ae13b0c352645aa08e40e",
          "transactionIndex": "0x92",
          "logIndex": "0x15e",
          "removed": false
        },
        {
          "address": "0x6025550717afdbae1820fcd3558e3c6c7c288a7f",
          "topics": [
            "0xfac42f3698c5904e90fb16020492752ee10a041c8365163937481c1ad53000a9",
            "0x00000000000000000000000092ea0471924140ff04f1321b68d078f78dd11b32",
            "0x000000000000000000000000e355d5d8aa52ef0fbbd037c4a3c5e6fd659cf46b"
          ],
          "data": "0x00000000000000000000000000000000000000000000000000000000000000200000000000000000000000007662fcf152a9e18280a77f4a8108229e86d398ab00000000000000000000000071752dc37b36a597ddf3df5dcb56e67af34d037700000000000000000000000017538a672437ab77f3811559d3caa91be38d8f3c0000000000000000000000000000000000000000000000000000000000015180000000000000000000000000e7e6ea2b6a1d7e7d80727290a86ccc9fe5fbe0c100000000000000000000000000000000000000000000000000002d79883d2000000000000000000000000000000000000000000000000000000000000000016000000000000000000000000000000000000000000000000000000000000001a00000000000000000000000000000000000000000000000000000000000989680000000000000000000000000000000000000000000000000000000000000000000000000000000000000000000000000000000000000000000000000000000000000000000000000000000000000000000000000000000000000000000000012456467652d746573746e65742d5661756c7400000000000000000000000000000000000000000000000000000000000000000000000000000000000000000012456467652d746573746e65742d5661756c740000000000000000000000000000",
          "blockHash": "0x321bff1b3f728d4d3fc1684772b668bd7b27a94b34025fe7ee403d93d7789c22",
          "blockNumber": "0x880e3f",
          "blockTimestamp": "0x6891b01c",
          "transactionHash": "0xb0998282792ae6a6ac596d0db24c3c2ce935b642247ae13b0c352645aa08e40e",
          "transactionIndex": "0x92",
          "logIndex": "0x15f",
          "removed": false
        }
      ],
      "logsBloom": "0x00000002000000000000000000000040000000000000000800880000000200000000000000000000004800000000000000000000000000000000000000000000000800000000200000000008000000000081800000400000000000000000000000000000020000000000400000000800000000000000000008400000000001420000000000000000000802000040400200000000000080000000000000000000000080000000000000000000000000028000000000000000000000000000000000082000000004000000000000004008000000100004000000000000000020000100000001000021000000000000000000000200000000500080100000004000",
      "type": "0x2",
      "transactionHash": "0xb0998282792ae6a6ac596d0db24c3c2ce935b642247ae13b0c352645aa08e40e",
      "transactionIndex": "0x92",
      "blockHash": "0x321bff1b3f728d4d3fc1684772b668bd7b27a94b34025fe7ee403d93d7789c22",
      "blockNumber": "0x880e3f",
      "gasUsed": "0x57b09",
      "effectiveGasPrice": "0x26b6bf",
      "from": "0xe355d5d8aa52ef0fbbd037c4a3c5e6fd659cf46b",
      "to": "0x6025550717afdbae1820fcd3558e3c6c7c288a7f",
      "contractAddress": null
    }
  ],
  "libraries": [],
  "pending": [],
  "returns": {},
  "timestamp": 1754378269,
  "chain": 11155111,
  "commit": "26b17abc"
}