{
  "transactions": [
    {
      "hash": "0x44f5ccc0ae0762b8cb8856b79a51086a1bc93ce576707e98fde19defe60c65e9",
      "transactionType": "CALL",
      "contractName": null,
      "contractAddress": "0x6025550717afdbae1820fcd3558e3c6c7c288a7f",
      "function": "createVault((address,address,address,uint256,address,uint256,string,string,uint64,uint64,uint64),uint256)",
      "arguments": [
        "(0x7662FcF152a9E18280A77f4A8108229E86D398Ab, 0xa60DFAD00a26822Ead2189aa14B1e534F7152F70, 0xE6Be5360C4390aFB1bD80B5Db30C0E65e3C4eD42, 86400, 0xCc121AB1098625728950b200490D28F8B2c324FD, 50000000000000, MEV-testnet-Vault, MEV-testnet-Vault, 10000000, 0, 0)",
        "0"
      ],
      "transaction": {
        "from": "0xe355d5d8aa52ef0fbbd037c4a3c5e6fd659cf46b",
        "to": "0x6025550717afdbae1820fcd3558e3c6c7c288a7f",
        "gas": "0x8070d",
        "value": "0x0",
        "input": "0x8e49c884000000000000000000000000000000000000000000000000000000000000004000000000000000000000000000000000000000000000000000000000000000000000000000000000000000007662fcf152a9e18280a77f4a8108229e86d398ab000000000000000000000000a60dfad00a26822ead2189aa14b1e534f7152f70000000000000000000000000e6be5360c4390afb1bd80b5db30c0e65e3c4ed420000000000000000000000000000000000000000000000000000000000015180000000000000000000000000cc121ab1098625728950b200490d28f8b2c324fd00000000000000000000000000000000000000000000000000002d79883d2000000000000000000000000000000000000000000000000000000000000000016000000000000000000000000000000000000000000000000000000000000001a000000000000000000000000000000000000000000000000000000000009896800000000000000000000000000000000000000000000000000000000000000000000000000000000000000000000000000000000000000000000000000000000000000000000000000000000000000000000000000000000000000000000000114d45562d746573746e65742d5661756c7400000000000000000000000000000000000000000000000000000000000000000000000000000000000000000000114d45562d746573746e65742d5661756c74000000000000000000000000000000",
        "nonce": "0xda9",
        "chainId": "0xaa36a7"
      },
      "additionalContracts": [
        {
          "transactionType": "CREATE2",
          "address": "0x371e1666784493d178273f81ba8fe85b7b6f389d",
          "initCode": "0x3d602d80600a3d3981f3363d3d373d3d3d363d7327944b81b0b724c093989ab44c8f9891433281ff5af43d82803e903d91602b57fd5bf3"
        }
      ],
      "isFixedGasLimit": false
    }
  ],
  "receipts": [
    {
      "status": "0x1",
      "cumulativeGasUsed": "0x1ae565f",
      "logs": [
        {
          "address": "0x371e1666784493d178273f81ba8fe85b7b6f389d",
          "topics": [
            "0x8be0079c531659141344cd1fd0a4f28419497f9722a3daafe3b4186f6b6457e0",
            "0x0000000000000000000000000000000000000000000000000000000000000000",
            "0x0000000000000000000000007662fcf152a9e18280a77f4a8108229e86d398ab"
          ],
          "data": "0x",
          "blockHash": "0xe04e38cfd0978de05da822c6d6e574a16770379d42b77f0d1c0778c7c3f8f24e",
          "blockNumber": "0x880f03",
          "blockTimestamp": "0x6891b958",
          "transactionHash": "0x44f5ccc0ae0762b8cb8856b79a51086a1bc93ce576707e98fde19defe60c65e9",
          "transactionIndex": "0xb4",
          "logIndex": "0x170",
          "removed": false
        },
        {
          "address": "0x371e1666784493d178273f81ba8fe85b7b6f389d",
          "topics": [
            "0x20affe2401825617c69366f8c3a3493d9822d1021d0b3023c4e77ea5b3d0fbc5",
            "0x0000000000000000000000006025550717afdbae1820fcd3558e3c6c7c288a7f"
          ],
          "data": "0x0000000000000000000000000000000000000000000000000000000000989680",
          "blockHash": "0xe04e38cfd0978de05da822c6d6e574a16770379d42b77f0d1c0778c7c3f8f24e",
          "blockNumber": "0x880f03",
          "blockTimestamp": "0x6891b958",
          "transactionHash": "0x44f5ccc0ae0762b8cb8856b79a51086a1bc93ce576707e98fde19defe60c65e9",
          "transactionIndex": "0xb4",
          "logIndex": "0x171",
          "removed": false
        },
        {
          "address": "0x371e1666784493d178273f81ba8fe85b7b6f389d",
          "topics": [
            "0xd28e9b90ee9b37c5936ff84392d71f29ff18117d7e76bcee60615262a90a3f75",
            "0x0000000000000000000000006025550717afdbae1820fcd3558e3c6c7c288a7f"
          ],
          "data": "0x0000000000000000000000000000000000000000000000000000000000015180",
          "blockHash": "0xe04e38cfd0978de05da822c6d6e574a16770379d42b77f0d1c0778c7c3f8f24e",
          "blockNumber": "0x880f03",
          "blockTimestamp": "0x6891b958",
          "transactionHash": "0x44f5ccc0ae0762b8cb8856b79a51086a1bc93ce576707e98fde19defe60c65e9",
          "transactionIndex": "0xb4",
          "logIndex": "0x172",
          "removed": false
        },
        {
          "address": "0x371e1666784493d178273f81ba8fe85b7b6f389d",
          "topics": [
            "0x0cdc8c1df674ca6c4f86f6d47b02a15083c5d3bf098ea38f02c2762bad0afad2",
            "0x0000000000000000000000006025550717afdbae1820fcd3558e3c6c7c288a7f"
          ],
          "data": "0x0000000000000000000000000000000000000000000000000000000000000000",
          "blockHash": "0xe04e38cfd0978de05da822c6d6e574a16770379d42b77f0d1c0778c7c3f8f24e",
          "blockNumber": "0x880f03",
          "blockTimestamp": "0x6891b958",
          "transactionHash": "0x44f5ccc0ae0762b8cb8856b79a51086a1bc93ce576707e98fde19defe60c65e9",
          "transactionIndex": "0xb4",
          "logIndex": "0x173",
          "removed": false
        },
        {
          "address": "0x371e1666784493d178273f81ba8fe85b7b6f389d",
          "topics": [
            "0x37df918c2fd5f0501a9fdf1651bcdbad7a05d7b163702a82bbe497ee835ebc47",
            "0x0000000000000000000000006025550717afdbae1820fcd3558e3c6c7c288a7f"
          ],
          "data": "0x0000000000000000000000000000000000000000000000000000000000000000",
          "blockHash": "0xe04e38cfd0978de05da822c6d6e574a16770379d42b77f0d1c0778c7c3f8f24e",
          "blockNumber": "0x880f03",
          "blockTimestamp": "0x6891b958",
          "transactionHash": "0x44f5ccc0ae0762b8cb8856b79a51086a1bc93ce576707e98fde19defe60c65e9",
          "transactionIndex": "0xb4",
          "logIndex": "0x174",
          "removed": false
        },
        {
          "address": "0x371e1666784493d178273f81ba8fe85b7b6f389d",
          "topics": [
            "0xcb11cc8aade2f5a556749d1b2380d108a16fac3431e6a5d5ce12ef9de0bd76e3",
            "0x0000000000000000000000006025550717afdbae1820fcd3558e3c6c7c288a7f"
          ],
          "data": "0x000000000000000000000000e6be5360c4390afb1bd80b5db30c0e65e3c4ed42",
          "blockHash": "0xe04e38cfd0978de05da822c6d6e574a16770379d42b77f0d1c0778c7c3f8f24e",
          "blockNumber": "0x880f03",
          "blockTimestamp": "0x6891b958",
          "transactionHash": "0x44f5ccc0ae0762b8cb8856b79a51086a1bc93ce576707e98fde19defe60c65e9",
          "transactionIndex": "0xb4",
          "logIndex": "0x175",
          "removed": false
        },
        {
          "address": "0x371e1666784493d178273f81ba8fe85b7b6f389d",
          "topics": [
            "0x51fa58fd85e72d533eb3933ef4dd0bb83a9614f46e076ffa025b0dcbb8dff315",
            "0x0000000000000000000000006025550717afdbae1820fcd3558e3c6c7c288a7f"
          ],
          "data": "0x00000000000000000000000000000000000000000000000000002d79883d2000",
          "blockHash": "0xe04e38cfd0978de05da822c6d6e574a16770379d42b77f0d1c0778c7c3f8f24e",
          "blockNumber": "0x880f03",
          "blockTimestamp": "0x6891b958",
          "transactionHash": "0x44f5ccc0ae0762b8cb8856b79a51086a1bc93ce576707e98fde19defe60c65e9",
          "transactionIndex": "0xb4",
          "logIndex": "0x176",
          "removed": false
        },
        {
          "address": "0x371e1666784493d178273f81ba8fe85b7b6f389d",
          "topics": [
            "0xbd0a63c12948fbc9194a5839019f99c9d71db924e5c70018265bc778b8f1a506"
          ],
          "data": "0x000000000000000000000000a60dfad00a26822ead2189aa14b1e534f7152f70",
          "blockHash": "0xe04e38cfd0978de05da822c6d6e574a16770379d42b77f0d1c0778c7c3f8f24e",
          "blockNumber": "0x880f03",
          "blockTimestamp": "0x6891b958",
          "transactionHash": "0x44f5ccc0ae0762b8cb8856b79a51086a1bc93ce576707e98fde19defe60c65e9",
          "transactionIndex": "0xb4",
          "logIndex": "0x177",
          "removed": false
        },
        {
          "address": "0x371e1666784493d178273f81ba8fe85b7b6f389d",
          "topics": [
            "0xc7f505b2f371ae2175ee4913f4499e1f2633a7b5936321eed1cdaeb6115181d2"
          ],
          "data": "0x0000000000000000000000000000000000000000000000000000000000000001",
          "blockHash": "0xe04e38cfd0978de05da822c6d6e574a16770379d42b77f0d1c0778c7c3f8f24e",
          "blockNumber": "0x880f03",
          "blockTimestamp": "0x6891b958",
          "transactionHash": "0x44f5ccc0ae0762b8cb8856b79a51086a1bc93ce576707e98fde19defe60c65e9",
          "transactionIndex": "0xb4",
          "logIndex": "0x178",
          "removed": false
        },
        {
          "address": "0x6025550717afdbae1820fcd3558e3c6c7c288a7f",
          "topics": [
            "0xfac42f3698c5904e90fb16020492752ee10a041c8365163937481c1ad53000a9",
            "0x000000000000000000000000371e1666784493d178273f81ba8fe85b7b6f389d",
            "0x000000000000000000000000e355d5d8aa52ef0fbbd037c4a3c5e6fd659cf46b"
          ],
          "data": "0x00000000000000000000000000000000000000000000000000000000000000200000000000000000000000007662fcf152a9e18280a77f4a8108229e86d398ab000000000000000000000000a60dfad00a26822ead2189aa14b1e534f7152f70000000000000000000000000e6be5360c4390afb1bd80b5db30c0e65e3c4ed420000000000000000000000000000000000000000000000000000000000015180000000000000000000000000cc121ab1098625728950b200490d28f8b2c324fd00000000000000000000000000000000000000000000000000002d79883d2000000000000000000000000000000000000000000000000000000000000000016000000000000000000000000000000000000000000000000000000000000001a000000000000000000000000000000000000000000000000000000000009896800000000000000000000000000000000000000000000000000000000000000000000000000000000000000000000000000000000000000000000000000000000000000000000000000000000000000000000000000000000000000000000000114d45562d746573746e65742d5661756c7400000000000000000000000000000000000000000000000000000000000000000000000000000000000000000000114d45562d746573746e65742d5661756c74000000000000000000000000000000",
          "blockHash": "0xe04e38cfd0978de05da822c6d6e574a16770379d42b77f0d1c0778c7c3f8f24e",
          "blockNumber": "0x880f03",
          "blockTimestamp": "0x6891b958",
          "transactionHash": "0x44f5ccc0ae0762b8cb8856b79a51086a1bc93ce576707e98fde19defe60c65e9",
          "transactionIndex": "0xb4",
          "logIndex": "0x179",
          "removed": false
        }
      ],
      "logsBloom": "0x00000002000002000000000000000040000000000000000800880000000200000000000000000000004800000000000000000000000000000000000000000000000800000000200000000008000000000001800000404000000000000000000000002000020000000000400000000800000000000800000000400000000001420000000000000000000800000040400200000000000080000000000000000000000080000000000000000000000000028000000000000000000000000000000000082000000004000000001000004010000000000004000000000000000020000100000001000020000000000000000000000200000000500080100000004000",
      "type": "0x2",
      "transactionHash": "0x44f5ccc0ae0762b8cb8856b79a51086a1bc93ce576707e98fde19defe60c65e9",
      "transactionIndex": "0xb4",
      "blockHash": "0xe04e38cfd0978de05da822c6d6e574a16770379d42b77f0d1c0778c7c3f8f24e",
      "blockNumber": "0x880f03",
      "gasUsed": "0x57d2a",
      "effectiveGasPrice": "0xd8c268",
      "from": "0xe355d5d8aa52ef0fbbd037c4a3c5e6fd659cf46b",
      "to": "0x6025550717afdbae1820fcd3558e3c6c7c288a7f",
      "contractAddress": null
    }
  ],
  "libraries": [],
  "pending": [],
  "returns": {},
  "timestamp": 1754380632,
  "chain": 11155111,
  "commit": "26b17abc"
}