{
  "transactions": [
    {
      "hash": "0x9315b1fe0e53d6d2d27c38ac40352e69152923fdac8f24f92632d487e93a7efb",
      "transactionType": "CALL",
      "contractName": null,
      "contractAddress": "0x6025550717afdbae1820fcd3558e3c6c7c288a7f",
      "function": "createVault((address,address,address,uint256,address,uint256,string,string,uint64,uint64,uint64),uint256)",
      "arguments": [
        "(0x7662FcF152a9E18280A77f4A8108229E86D398Ab, 0x3406875997ECB92700c695B0A3125BCCe64CCBed, 0x652Ed04CC2e4982F4Fe951Fc130Df21495dBC55a, 86400, 0xCc121AB1098625728950b200490D28F8B2c324FD, 50000000000000, KeyRock-testnet-Vault, KeyRock-testnet-Vault, 10000000, 0, 0)",
        "0"
      ],
      "transaction": {
        "from": "0xe355d5d8aa52ef0fbbd037c4a3c5e6fd659cf46b",
        "to": "0x6025550717afdbae1820fcd3558e3c6c7c288a7f",
        "gas": "0x79554",
        "value": "0x0",
        "input": "0x8e49c884000000000000000000000000000000000000000000000000000000000000004000000000000000000000000000000000000000000000000000000000000000000000000000000000000000007662fcf152a9e18280a77f4a8108229e86d398ab0000000000000000000000003406875997ecb92700c695b0a3125bcce64ccbed000000000000000000000000652ed04cc2e4982f4fe951fc130df21495dbc55a0000000000000000000000000000000000000000000000000000000000015180000000000000000000000000cc121ab1098625728950b200490d28f8b2c324fd00000000000000000000000000000000000000000000000000002d79883d2000000000000000000000000000000000000000000000000000000000000000016000000000000000000000000000000000000000000000000000000000000001a000000000000000000000000000000000000000000000000000000000009896800000000000000000000000000000000000000000000000000000000000000000000000000000000000000000000000000000000000000000000000000000000000000000000000000000000000000000000000000000000000000000000000154b6579526f636b2d746573746e65742d5661756c74000000000000000000000000000000000000000000000000000000000000000000000000000000000000154b6579526f636b2d746573746e65742d5661756c740000000000000000000000",
        "nonce": "0xdab",
        "chainId": "0xaa36a7"
      },
      "additionalContracts": [
        {
          "transactionType": "CREATE2",
          "address": "0x7dce42830a55d0923b042b03e9de68ee679f7015",
          "initCode": "0x3d602d80600a3d3981f3363d3d373d3d3d363d7327944b81b0b724c093989ab44c8f9891433281ff5af43d82803e903d91602b57fd5bf3"
        }
      ],
      "isFixedGasLimit": false
    }
  ],
  "receipts": [
    {
      "status": "0x1",
      "cumulativeGasUsed": "0xbb32e8",
      "logs": [
        {
          "address": "0x7dce42830a55d0923b042b03e9de68ee679f7015",
          "topics": [
            "0x8be0079c531659141344cd1fd0a4f28419497f9722a3daafe3b4186f6b6457e0",
            "0x0000000000000000000000000000000000000000000000000000000000000000",
            "0x0000000000000000000000007662fcf152a9e18280a77f4a8108229e86d398ab"
          ],
          "data": "0x",
          "blockHash": "0xd8eeb1c50eae61e37c55f40b058fcc25001a7669ed9fcd55d1040caff0155c5f",
          "blockNumber": "0x8834b2",
          "blockTimestamp": "0x68937f90",
          "transactionHash": "0x9315b1fe0e53d6d2d27c38ac40352e69152923fdac8f24f92632d487e93a7efb",
          "transactionIndex": "0x6b",
          "logIndex": "0xcf",
          "removed": false
        },
        {
          "address": "0x7dce42830a55d0923b042b03e9de68ee679f7015",
          "topics": [
            "0x20affe2401825617c69366f8c3a3493d9822d1021d0b3023c4e77ea5b3d0fbc5",
            "0x0000000000000000000000006025550717afdbae1820fcd3558e3c6c7c288a7f"
          ],
          "data": "0x0000000000000000000000000000000000000000000000000000000000989680",
          "blockHash": "0xd8eeb1c50eae61e37c55f40b058fcc25001a7669ed9fcd55d1040caff0155c5f",
          "blockNumber": "0x8834b2",
          "blockTimestamp": "0x68937f90",
          "transactionHash": "0x9315b1fe0e53d6d2d27c38ac40352e69152923fdac8f24f92632d487e93a7efb",
          "transactionIndex": "0x6b",
          "logIndex": "0xd0",
          "removed": false
        },
        {
          "address": "0x7dce42830a55d0923b042b03e9de68ee679f7015",
          "topics": [
            "0xd28e9b90ee9b37c5936ff84392d71f29ff18117d7e76bcee60615262a90a3f75",
            "0x0000000000000000000000006025550717afdbae1820fcd3558e3c6c7c288a7f"
          ],
          "data": "0x0000000000000000000000000000000000000000000000000000000000015180",
          "blockHash": "0xd8eeb1c50eae61e37c55f40b058fcc25001a7669ed9fcd55d1040caff0155c5f",
          "blockNumber": "0x8834b2",
          "blockTimestamp": "0x68937f90",
          "transactionHash": "0x9315b1fe0e53d6d2d27c38ac40352e69152923fdac8f24f92632d487e93a7efb",
          "transactionIndex": "0x6b",
          "logIndex": "0xd1",
          "removed": false
        },
        {
          "address": "0x7dce42830a55d0923b042b03e9de68ee679f7015",
          "topics": [
            "0x0cdc8c1df674ca6c4f86f6d47b02a15083c5d3bf098ea38f02c2762bad0afad2",
            "0x0000000000000000000000006025550717afdbae1820fcd3558e3c6c7c288a7f"
          ],
          "data": "0x0000000000000000000000000000000000000000000000000000000000000000",
          "blockHash": "0xd8eeb1c50eae61e37c55f40b058fcc25001a7669ed9fcd55d1040caff0155c5f",
          "blockNumber": "0x8834b2",
          "blockTimestamp": "0x68937f90",
          "transactionHash": "0x9315b1fe0e53d6d2d27c38ac40352e69152923fdac8f24f92632d487e93a7efb",
          "transactionIndex": "0x6b",
          "logIndex": "0xd2",
          "removed": false
        },
        {
          "address": "0x7dce42830a55d0923b042b03e9de68ee679f7015",
          "topics": [
            "0x37df918c2fd5f0501a9fdf1651bcdbad7a05d7b163702a82bbe497ee835ebc47",
            "0x0000000000000000000000006025550717afdbae1820fcd3558e3c6c7c288a7f"
          ],
          "data": "0x0000000000000000000000000000000000000000000000000000000000000000",
          "blockHash": "0xd8eeb1c50eae61e37c55f40b058fcc25001a7669ed9fcd55d1040caff0155c5f",
          "blockNumber": "0x8834b2",
          "blockTimestamp": "0x68937f90",
          "transactionHash": "0x9315b1fe0e53d6d2d27c38ac40352e69152923fdac8f24f92632d487e93a7efb",
          "transactionIndex": "0x6b",
          "logIndex": "0xd3",
          "removed": false
        },
        {
          "address": "0x7dce42830a55d0923b042b03e9de68ee679f7015",
          "topics": [
            "0xcb11cc8aade2f5a556749d1b2380d108a16fac3431e6a5d5ce12ef9de0bd76e3",
            "0x0000000000000000000000006025550717afdbae1820fcd3558e3c6c7c288a7f"
          ],
          "data": "0x000000000000000000000000652ed04cc2e4982f4fe951fc130df21495dbc55a",
          "blockHash": "0xd8eeb1c50eae61e37c55f40b058fcc25001a7669ed9fcd55d1040caff0155c5f",
          "blockNumber": "0x8834b2",
          "blockTimestamp": "0x68937f90",
          "transactionHash": "0x9315b1fe0e53d6d2d27c38ac40352e69152923fdac8f24f92632d487e93a7efb",
          "transactionIndex": "0x6b",
          "logIndex": "0xd4",
          "removed": false
        },
        {
          "address": "0x7dce42830a55d0923b042b03e9de68ee679f7015",
          "topics": [
            "0x51fa58fd85e72d533eb3933ef4dd0bb83a9614f46e076ffa025b0dcbb8dff315",
            "0x0000000000000000000000006025550717afdbae1820fcd3558e3c6c7c288a7f"
          ],
          "data": "0x00000000000000000000000000000000000000000000000000002d79883d2000",
          "blockHash": "0xd8eeb1c50eae61e37c55f40b058fcc25001a7669ed9fcd55d1040caff0155c5f",
          "blockNumber": "0x8834b2",
          "blockTimestamp": "0x68937f90",
          "transactionHash": "0x9315b1fe0e53d6d2d27c38ac40352e69152923fdac8f24f92632d487e93a7efb",
          "transactionIndex": "0x6b",
          "logIndex": "0xd5",
          "removed": false
        },
        {
          "address": "0x7dce42830a55d0923b042b03e9de68ee679f7015",
          "topics": [
            "0xbd0a63c12948fbc9194a5839019f99c9d71db924e5c70018265bc778b8f1a506"
          ],
          "data": "0x0000000000000000000000003406875997ecb92700c695b0a3125bcce64ccbed",
          "blockHash": "0xd8eeb1c50eae61e37c55f40b058fcc25001a7669ed9fcd55d1040caff0155c5f",
          "blockNumber": "0x8834b2",
          "blockTimestamp": "0x68937f90",
          "transactionHash": "0x9315b1fe0e53d6d2d27c38ac40352e69152923fdac8f24f92632d487e93a7efb",
          "transactionIndex": "0x6b",
          "logIndex": "0xd6",
          "removed": false
        },
        {
          "address": "0x7dce42830a55d0923b042b03e9de68ee679f7015",
          "topics": [
            "0xc7f505b2f371ae2175ee4913f4499e1f2633a7b5936321eed1cdaeb6115181d2"
          ],
          "data": "0x0000000000000000000000000000000000000000000000000000000000000001",
          "blockHash": "0xd8eeb1c50eae61e37c55f40b058fcc25001a7669ed9fcd55d1040caff0155c5f",
          "blockNumber": "0x8834b2",
          "blockTimestamp": "0x68937f90",
          "transactionHash": "0x9315b1fe0e53d6d2d27c38ac40352e69152923fdac8f24f92632d487e93a7efb",
          "transactionIndex": "0x6b",
          "logIndex": "0xd7",
          "removed": false
        },
        {
          "address": "0x6025550717afdbae1820fcd3558e3c6c7c288a7f",
          "topics": [
            "0xfac42f3698c5904e90fb16020492752ee10a041c8365163937481c1ad53000a9",
            "0x0000000000000000000000007dce42830a55d0923b042b03e9de68ee679f7015",
            "0x000000000000000000000000e355d5d8aa52ef0fbbd037c4a3c5e6fd659cf46b"
          ],
          "data": "0x00000000000000000000000000000000000000000000000000000000000000200000000000000000000000007662fcf152a9e18280a77f4a8108229e86d398ab0000000000000000000000003406875997ecb92700c695b0a3125bcce64ccbed000000000000000000000000652ed04cc2e4982f4fe951fc130df21495dbc55a0000000000000000000000000000000000000000000000000000000000015180000000000000000000000000cc121ab1098625728950b200490d28f8b2c324fd00000000000000000000000000000000000000000000000000002d79883d2000000000000000000000000000000000000000000000000000000000000000016000000000000000000000000000000000000000000000000000000000000001a000000000000000000000000000000000000000000000000000000000009896800000000000000000000000000000000000000000000000000000000000000000000000000000000000000000000000000000000000000000000000000000000000000000000000000000000000000000000000000000000000000000000000154b6579526f636b2d746573746e65742d5661756c74000000000000000000000000000000000000000000000000000000000000000000000000000000000000154b6579526f636b2d746573746e65742d5661756c740000000000000000000000",
          "blockHash": "0xd8eeb1c50eae61e37c55f40b058fcc25001a7669ed9fcd55d1040caff0155c5f",
          "blockNumber": "0x8834b2",
          "blockTimestamp": "0x68937f90",
          "transactionHash": "0x9315b1fe0e53d6d2d27c38ac40352e69152923fdac8f24f92632d487e93a7efb",
          "transactionIndex": "0x6b",
          "logIndex": "0xd8",
          "removed": false
        }
      ],
      "logsBloom": "0x00000002000000000000000000000040000000000000000800880000000200000000000000000000004800000000000000000000000000400000000000000000000800000000200000000008000000000001800000400040000000000000000000000000020000000000600000000800000000000000000000440000000001420000000000200000000800000040c00200000000000080000000000000000000000080000000000000000000000000028000000000000000000000000000000000082000000004000000000000004000000000000004000000000000000020000100000001000020000000000000000000000200000000500080100000004000",
      "type": "0x2",
      "transactionHash": "0x9315b1fe0e53d6d2d27c38ac40352e69152923fdac8f24f92632d487e93a7efb",
      "transactionIndex": "0x6b",
      "blockHash": "0xd8eeb1c50eae61e37c55f40b058fcc25001a7669ed9fcd55d1040caff0155c5f",
      "blockNumber": "0x8834b2",
      "gasUsed": "0x57d7e",
      "effectiveGasPrice": "0x1e13fc",
      "from": "0xe355d5d8aa52ef0fbbd037c4a3c5e6fd659cf46b",
      "to": "0x6025550717afdbae1820fcd3558e3c6c7c288a7f",
      "contractAddress": null
    }
  ],
  "libraries": [],
  "pending": [],
  "returns": {},
  "timestamp": 1754496913,
  "chain": 11155111,
  "commit": "3b2e1664"
}