{
  "transactions": [
    {
      "hash": "0xe0604f3fd3432b518c56c9adf2465d4a423234722b6ca27dcadebf04daab0f5d",
      "transactionType": "CALL",
      "contractName": null,
      "contractAddress": "0x8d42296938e302e81924e8b5a75eccffc27dc718",
      "function": "createVault((address,address,address,uint256,address,uint256,string,string,uint64,uint64,uint64),uint256)",
      "arguments": [
        "(0x7662FcF152a9E18280A77f4A8108229E86D398Ab, 0xD97Cf93156eA03D37d64469FCC0fD88AbF61801F, 0x5596403f4196F4739268d1F7CaE37144da3396EB, 60, 0xCc121AB1098625728950b200490D28F8B2c324FD, 50000000000000, H3 Vault, H3-Vault, 20000000, 1000000, 10000000)",
        "0"
      ],
      "transaction": {
        "from": "0xe355d5d8aa52ef0fbbd037c4a3c5e6fd659cf46b",
        "to": "0x8d42296938e302e81924e8b5a75eccffc27dc718",
        "gas": "0x80617",
        "value": "0x0",
        "input": "0x8e49c884000000000000000000000000000000000000000000000000000000000000004000000000000000000000000000000000000000000000000000000000000000000000000000000000000000007662fcf152a9e18280a77f4a8108229e86d398ab000000000000000000000000d97cf93156ea03d37d64469fcc0fd88abf61801f0000000000000000000000005596403f4196f4739268d1f7cae37144da3396eb000000000000000000000000000000000000000000000000000000000000003c000000000000000000000000cc121ab1098625728950b200490d28f8b2c324fd00000000000000000000000000000000000000000000000000002d79883d2000000000000000000000000000000000000000000000000000000000000000016000000000000000000000000000000000000000000000000000000000000001a00000000000000000000000000000000000000000000000000000000001312d0000000000000000000000000000000000000000000000000000000000000f4240000000000000000000000000000000000000000000000000000000000098968000000000000000000000000000000000000000000000000000000000000000084833205661756c74000000000000000000000000000000000000000000000000000000000000000000000000000000000000000000000000000000000000000848332d5661756c74000000000000000000000000000000000000000000000000",
        "nonce": "0xdb4",
        "chainId": "0xaa36a7"
      },
      "additionalContracts": [
        {
          "transactionType": "CREATE2",
          "address": "0x3c88440985a14031fd1ded4420223e525df237ce",
          "initCode": "0x3d602d80600a3d3981f3363d3d373d3d3d363d735076e60d6bedabe450a35ac157b1e7cdf63cddc85af43d82803e903d91602b57fd5bf3"
        }
      ],
      "isFixedGasLimit": false
    }
  ],
  "receipts": [
    {
      "status": "0x1",
      "cumulativeGasUsed": "0x366d617",
      "logs": [
        {
          "address": "0x3c88440985a14031fd1ded4420223e525df237ce",
          "topics": [
            "0x8be0079c531659141344cd1fd0a4f28419497f9722a3daafe3b4186f6b6457e0",
            "0x0000000000000000000000000000000000000000000000000000000000000000",
            "0x0000000000000000000000007662fcf152a9e18280a77f4a8108229e86d398ab"
          ],
          "data": "0x",
          "blockHash": "0x332223f1d74990ace62472b026dfe3d3ffc4e8ed3f9ad57a93a05f2866379e87",
          "blockNumber": "0x890730",
          "blockTimestamp": "0x689d6ff0",
          "transactionHash": "0xe0604f3fd3432b518c56c9adf2465d4a423234722b6ca27dcadebf04daab0f5d",
          "transactionIndex": "0x323",
          "logIndex": "0x114",
          "removed": false
        },
        {
          "address": "0x3c88440985a14031fd1ded4420223e525df237ce",
          "topics": [
            "0x20affe2401825617c69366f8c3a3493d9822d1021d0b3023c4e77ea5b3d0fbc5",
            "0x0000000000000000000000008d42296938e302e81924e8b5a75eccffc27dc718"
          ],
          "data": "0x0000000000000000000000000000000000000000000000000000000001312d00",
          "blockHash": "0x332223f1d74990ace62472b026dfe3d3ffc4e8ed3f9ad57a93a05f2866379e87",
          "blockNumber": "0x890730",
          "blockTimestamp": "0x689d6ff0",
          "transactionHash": "0xe0604f3fd3432b518c56c9adf2465d4a423234722b6ca27dcadebf04daab0f5d",
          "transactionIndex": "0x323",
          "logIndex": "0x115",
          "removed": false
        },
        {
          "address": "0x3c88440985a14031fd1ded4420223e525df237ce",
          "topics": [
            "0xd28e9b90ee9b37c5936ff84392d71f29ff18117d7e76bcee60615262a90a3f75",
            "0x0000000000000000000000008d42296938e302e81924e8b5a75eccffc27dc718"
          ],
          "data": "0x000000000000000000000000000000000000000000000000000000000000003c",
          "blockHash": "0x332223f1d74990ace62472b026dfe3d3ffc4e8ed3f9ad57a93a05f2866379e87",
          "blockNumber": "0x890730",
          "blockTimestamp": "0x689d6ff0",
          "transactionHash": "0xe0604f3fd3432b518c56c9adf2465d4a423234722b6ca27dcadebf04daab0f5d",
          "transactionIndex": "0x323",
          "logIndex": "0x116",
          "removed": false
        },
        {
          "address": "0x3c88440985a14031fd1ded4420223e525df237ce",
          "topics": [
            "0x0cdc8c1df674ca6c4f86f6d47b02a15083c5d3bf098ea38f02c2762bad0afad2",
            "0x0000000000000000000000008d42296938e302e81924e8b5a75eccffc27dc718"
          ],
          "data": "0x00000000000000000000000000000000000000000000000000000000000f4240",
          "blockHash": "0x332223f1d74990ace62472b026dfe3d3ffc4e8ed3f9ad57a93a05f2866379e87",
          "blockNumber": "0x890730",
          "blockTimestamp": "0x689d6ff0",
          "transactionHash": "0xe0604f3fd3432b518c56c9adf2465d4a423234722b6ca27dcadebf04daab0f5d",
          "transactionIndex": "0x323",
          "logIndex": "0x117",
          "removed": false
        },
        {
          "address": "0x3c88440985a14031fd1ded4420223e525df237ce",
          "topics": [
            "0x37df918c2fd5f0501a9fdf1651bcdbad7a05d7b163702a82bbe497ee835ebc47",
            "0x0000000000000000000000008d42296938e302e81924e8b5a75eccffc27dc718"
          ],
          "data": "0x0000000000000000000000000000000000000000000000000000000000989680",
          "blockHash": "0x332223f1d74990ace62472b026dfe3d3ffc4e8ed3f9ad57a93a05f2866379e87",
          "blockNumber": "0x890730",
          "blockTimestamp": "0x689d6ff0",
          "transactionHash": "0xe0604f3fd3432b518c56c9adf2465d4a423234722b6ca27dcadebf04daab0f5d",
          "transactionIndex": "0x323",
          "logIndex": "0x118",
          "removed": false
        },
        {
          "address": "0x3c88440985a14031fd1ded4420223e525df237ce",
          "topics": [
            "0xcb11cc8aade2f5a556749d1b2380d108a16fac3431e6a5d5ce12ef9de0bd76e3",
            "0x0000000000000000000000008d42296938e302e81924e8b5a75eccffc27dc718"
          ],
          "data": "0x0000000000000000000000005596403f4196f4739268d1f7cae37144da3396eb",
          "blockHash": "0x332223f1d74990ace62472b026dfe3d3ffc4e8ed3f9ad57a93a05f2866379e87",
          "blockNumber": "0x890730",
          "blockTimestamp": "0x689d6ff0",
          "transactionHash": "0xe0604f3fd3432b518c56c9adf2465d4a423234722b6ca27dcadebf04daab0f5d",
          "transactionIndex": "0x323",
          "logIndex": "0x119",
          "removed": false
        },
        {
          "address": "0x3c88440985a14031fd1ded4420223e525df237ce",
          "topics": [
            "0x51fa58fd85e72d533eb3933ef4dd0bb83a9614f46e076ffa025b0dcbb8dff315",
            "0x0000000000000000000000008d42296938e302e81924e8b5a75eccffc27dc718"
          ],
          "data": "0x00000000000000000000000000000000000000000000000000002d79883d2000",
          "blockHash": "0x332223f1d74990ace62472b026dfe3d3ffc4e8ed3f9ad57a93a05f2866379e87",
          "blockNumber": "0x890730",
          "blockTimestamp": "0x689d6ff0",
          "transactionHash": "0xe0604f3fd3432b518c56c9adf2465d4a423234722b6ca27dcadebf04daab0f5d",
          "transactionIndex": "0x323",
          "logIndex": "0x11a",
          "removed": false
        },
        {
          "address": "0x3c88440985a14031fd1ded4420223e525df237ce",
          "topics": [
            "0xbd0a63c12948fbc9194a5839019f99c9d71db924e5c70018265bc778b8f1a506"
          ],
          "data": "0x000000000000000000000000d97cf93156ea03d37d64469fcc0fd88abf61801f",
          "blockHash": "0x332223f1d74990ace62472b026dfe3d3ffc4e8ed3f9ad57a93a05f2866379e87",
          "blockNumber": "0x890730",
          "blockTimestamp": "0x689d6ff0",
          "transactionHash": "0xe0604f3fd3432b518c56c9adf2465d4a423234722b6ca27dcadebf04daab0f5d",
          "transactionIndex": "0x323",
          "logIndex": "0x11b",
          "removed": false
        },
        {
          "address": "0x3c88440985a14031fd1ded4420223e525df237ce",
          "topics": [
            "0xc7f505b2f371ae2175ee4913f4499e1f2633a7b5936321eed1cdaeb6115181d2"
          ],
          "data": "0x0000000000000000000000000000000000000000000000000000000000000001",
          "blockHash": "0x332223f1d74990ace62472b026dfe3d3ffc4e8ed3f9ad57a93a05f2866379e87",
          "blockNumber": "0x890730",
          "blockTimestamp": "0x689d6ff0",
          "transactionHash": "0xe0604f3fd3432b518c56c9adf2465d4a423234722b6ca27dcadebf04daab0f5d",
          "transactionIndex": "0x323",
          "logIndex": "0x11c",
          "removed": false
        },
        {
          "address": "0x8d42296938e302e81924e8b5a75eccffc27dc718",
          "topics": [
            "0xfac42f3698c5904e90fb16020492752ee10a041c8365163937481c1ad53000a9",
            "0x0000000000000000000000003c88440985a14031fd1ded4420223e525df237ce",
            "0x000000000000000000000000e355d5d8aa52ef0fbbd037c4a3c5e6fd659cf46b"
          ],
          "data": "0x00000000000000000000000000000000000000000000000000000000000000200000000000000000000000007662fcf152a9e18280a77f4a8108229e86d398ab000000000000000000000000d97cf93156ea03d37d64469fcc0fd88abf61801f0000000000000000000000005596403f4196f4739268d1f7cae37144da3396eb000000000000000000000000000000000000000000000000000000000000003c000000000000000000000000cc121ab1098625728950b200490d28f8b2c324fd00000000000000000000000000000000000000000000000000002d79883d2000000000000000000000000000000000000000000000000000000000000000016000000000000000000000000000000000000000000000000000000000000001a00000000000000000000000000000000000000000000000000000000001312d0000000000000000000000000000000000000000000000000000000000000f4240000000000000000000000000000000000000000000000000000000000098968000000000000000000000000000000000000000000000000000000000000000084833205661756c74000000000000000000000000000000000000000000000000000000000000000000000000000000000000000000000000000000000000000848332d5661756c74000000000000000000000000000000000000000000000000",
          "blockHash": "0x332223f1d74990ace62472b026dfe3d3ffc4e8ed3f9ad57a93a05f2866379e87",
          "blockNumber": "0x890730",
          "blockTimestamp": "0x689d6ff0",
          "transactionHash": "0xe0604f3fd3432b518c56c9adf2465d4a423234722b6ca27dcadebf04daab0f5d",
          "transactionIndex": "0x323",
          "logIndex": "0x11d",
          "removed": false
        }
      ],
      "logsBloom": "0x00002002000000000000000000000040000000000000000804880000000200000000000000000000004800800000000000000000000000000000000000000000000800000000200000000008000000000001800000400040000000000000040000000000020000000000400000000800000000000000000200000000000001420000000000080000000800000040000200000000000080000000000000000000000080020000000000000000000000028000200000000000000000000000000000002000000004000000000000004000000000020004000000000000000020004100000000000020000100000000000000000200000000400080100000004000",
      "type": "0x2",
      "transactionHash": "0xe0604f3fd3432b518c56c9adf2465d4a423234722b6ca27dcadebf04daab0f5d",
      "transactionIndex": "0x323",
      "blockHash": "0x332223f1d74990ace62472b026dfe3d3ffc4e8ed3f9ad57a93a05f2866379e87",
      "blockNumber": "0x890730",
      "gasUsed": "0x57c82",
      "effectiveGasPrice": "0x84015257",
      "from": "0xe355d5d8aa52ef0fbbd037c4a3c5e6fd659cf46b",
      "to": "0x8d42296938e302e81924e8b5a75eccffc27dc718",
      "contractAddress": null
    }
  ],
  "libraries": [],
  "pending": [],
  "returns": {},
  "timestamp": 1755148274,
  "chain": 11155111,
  "commit": "cbf2c1ab"
}