{
  "transactions": [
    {
      "hash": "0x818904da2e37ce4cfa6dcc2ed6e1e511b41cc9b5f2488ccf8f548dc98a83ec62",
      "transactionType": "CALL",
      "contractName": "TermMaxVaultFactoryV1Plus",
      "contractAddress": "0x8d42296938e302e81924e8b5a75eccffc27dc718",
      "function": "createVault((address,address,address,uint256,address,uint256,string,string,uint64,uint64,uint64),uint256)",
      "arguments": [
        "(0x7662FcF152a9E18280A77f4A8108229E86D398Ab, 0xDEE84853e34E194ECE8c5add44C1C162288DcAb0, 0x3d3B68e5E0c32d8566a2BD92FA5F34f85412674E, 60, 0xCc121AB1098625728950b200490D28F8B2c324FD, 50000000000000, G2 Vault, G2-Vault, 20000000, 1000000, 10000000)",
        "0"
      ],
      "transaction": {
        "from": "0xe355d5d8aa52ef0fbbd037c4a3c5e6fd659cf46b",
        "to": "0x8d42296938e302e81924e8b5a75eccffc27dc718",
        "gas": "0x80617",
        "value": "0x0",
        "input": "0x8e49c884000000000000000000000000000000000000000000000000000000000000004000000000000000000000000000000000000000000000000000000000000000000000000000000000000000007662fcf152a9e18280a77f4a8108229e86d398ab000000000000000000000000dee84853e34e194ece8c5add44c1c162288dcab00000000000000000000000003d3b68e5e0c32d8566a2bd92fa5f34f85412674e000000000000000000000000000000000000000000000000000000000000003c000000000000000000000000cc121ab1098625728950b200490d28f8b2c324fd00000000000000000000000000000000000000000000000000002d79883d2000000000000000000000000000000000000000000000000000000000000000016000000000000000000000000000000000000000000000000000000000000001a00000000000000000000000000000000000000000000000000000000001312d0000000000000000000000000000000000000000000000000000000000000f4240000000000000000000000000000000000000000000000000000000000098968000000000000000000000000000000000000000000000000000000000000000084732205661756c74000000000000000000000000000000000000000000000000000000000000000000000000000000000000000000000000000000000000000847322d5661756c74000000000000000000000000000000000000000000000000",
        "nonce": "0xdb2",
        "chainId": "0xaa36a7"
      },
      "additionalContracts": [
        {
          "transactionType": "CREATE2",
          "address": "0xf971bda6c8552ad0c91adfd409745a5decb27005",
          "initCode": "0x3d602d80600a3d3981f3363d3d373d3d3d363d735076e60d6bedabe450a35ac157b1e7cdf63cddc85af43d82803e903d91602b57fd5bf3"
        }
      ],
      "isFixedGasLimit": false
    }
  ],
  "receipts": [
    {
      "status": "0x1",
      "cumulativeGasUsed": "0xd16ada",
      "logs": [
        {
          "address": "0xf971bda6c8552ad0c91adfd409745a5decb27005",
          "topics": [
            "0x8be0079c531659141344cd1fd0a4f28419497f9722a3daafe3b4186f6b6457e0",
            "0x0000000000000000000000000000000000000000000000000000000000000000",
            "0x0000000000000000000000007662fcf152a9e18280a77f4a8108229e86d398ab"
          ],
          "data": "0x",
          "blockHash": "0x188d82167f5134211e8d1dd689a4de796eeaba971b2757196b776cf60b57ff85",
          "blockNumber": "0x88d9a7",
          "blockTimestamp": "0x689b4448",
          "transactionHash": "0x818904da2e37ce4cfa6dcc2ed6e1e511b41cc9b5f2488ccf8f548dc98a83ec62",
          "transactionIndex": "0x6b",
          "logIndex": "0xd6",
          "removed": false
        },
        {
          "address": "0xf971bda6c8552ad0c91adfd409745a5decb27005",
          "topics": [
            "0x20affe2401825617c69366f8c3a3493d9822d1021d0b3023c4e77ea5b3d0fbc5",
            "0x0000000000000000000000008d42296938e302e81924e8b5a75eccffc27dc718"
          ],
          "data": "0x0000000000000000000000000000000000000000000000000000000001312d00",
          "blockHash": "0x188d82167f5134211e8d1dd689a4de796eeaba971b2757196b776cf60b57ff85",
          "blockNumber": "0x88d9a7",
          "blockTimestamp": "0x689b4448",
          "transactionHash": "0x818904da2e37ce4cfa6dcc2ed6e1e511b41cc9b5f2488ccf8f548dc98a83ec62",
          "transactionIndex": "0x6b",
          "logIndex": "0xd7",
          "removed": false
        },
        {
          "address": "0xf971bda6c8552ad0c91adfd409745a5decb27005",
          "topics": [
            "0xd28e9b90ee9b37c5936ff84392d71f29ff18117d7e76bcee60615262a90a3f75",
            "0x0000000000000000000000008d42296938e302e81924e8b5a75eccffc27dc718"
          ],
          "data": "0x000000000000000000000000000000000000000000000000000000000000003c",
          "blockHash": "0x188d82167f5134211e8d1dd689a4de796eeaba971b2757196b776cf60b57ff85",
          "blockNumber": "0x88d9a7",
          "blockTimestamp": "0x689b4448",
          "transactionHash": "0x818904da2e37ce4cfa6dcc2ed6e1e511b41cc9b5f2488ccf8f548dc98a83ec62",
          "transactionIndex": "0x6b",
          "logIndex": "0xd8",
          "removed": false
        },
        {
          "address": "0xf971bda6c8552ad0c91adfd409745a5decb27005",
          "topics": [
            "0x0cdc8c1df674ca6c4f86f6d47b02a15083c5d3bf098ea38f02c2762bad0afad2",
            "0x0000000000000000000000008d42296938e302e81924e8b5a75eccffc27dc718"
          ],
          "data": "0x00000000000000000000000000000000000000000000000000000000000f4240",
          "blockHash": "0x188d82167f5134211e8d1dd689a4de796eeaba971b2757196b776cf60b57ff85",
          "blockNumber": "0x88d9a7",
          "blockTimestamp": "0x689b4448",
          "transactionHash": "0x818904da2e37ce4cfa6dcc2ed6e1e511b41cc9b5f2488ccf8f548dc98a83ec62",
          "transactionIndex": "0x6b",
          "logIndex": "0xd9",
          "removed": false
        },
        {
          "address": "0xf971bda6c8552ad0c91adfd409745a5decb27005",
          "topics": [
            "0x37df918c2fd5f0501a9fdf1651bcdbad7a05d7b163702a82bbe497ee835ebc47",
            "0x0000000000000000000000008d42296938e302e81924e8b5a75eccffc27dc718"
          ],
          "data": "0x0000000000000000000000000000000000000000000000000000000000989680",
          "blockHash": "0x188d82167f5134211e8d1dd689a4de796eeaba971b2757196b776cf60b57ff85",
          "blockNumber": "0x88d9a7",
          "blockTimestamp": "0x689b4448",
          "transactionHash": "0x818904da2e37ce4cfa6dcc2ed6e1e511b41cc9b5f2488ccf8f548dc98a83ec62",
          "transactionIndex": "0x6b",
          "logIndex": "0xda",
          "removed": false
        },
        {
          "address": "0xf971bda6c8552ad0c91adfd409745a5decb27005",
          "topics": [
            "0xcb11cc8aade2f5a556749d1b2380d108a16fac3431e6a5d5ce12ef9de0bd76e3",
            "0x0000000000000000000000008d42296938e302e81924e8b5a75eccffc27dc718"
          ],
          "data": "0x0000000000000000000000003d3b68e5e0c32d8566a2bd92fa5f34f85412674e",
          "blockHash": "0x188d82167f5134211e8d1dd689a4de796eeaba971b2757196b776cf60b57ff85",
          "blockNumber": "0x88d9a7",
          "blockTimestamp": "0x689b4448",
          "transactionHash": "0x818904da2e37ce4cfa6dcc2ed6e1e511b41cc9b5f2488ccf8f548dc98a83ec62",
          "transactionIndex": "0x6b",
          "logIndex": "0xdb",
          "removed": false
        },
        {
          "address": "0xf971bda6c8552ad0c91adfd409745a5decb27005",
          "topics": [
            "0x51fa58fd85e72d533eb3933ef4dd0bb83a9614f46e076ffa025b0dcbb8dff315",
            "0x0000000000000000000000008d42296938e302e81924e8b5a75eccffc27dc718"
          ],
          "data": "0x00000000000000000000000000000000000000000000000000002d79883d2000",
          "blockHash": "0x188d82167f5134211e8d1dd689a4de796eeaba971b2757196b776cf60b57ff85",
          "blockNumber": "0x88d9a7",
          "blockTimestamp": "0x689b4448",
          "transactionHash": "0x818904da2e37ce4cfa6dcc2ed6e1e511b41cc9b5f2488ccf8f548dc98a83ec62",
          "transactionIndex": "0x6b",
          "logIndex": "0xdc",
          "removed": false
        },
        {
          "address": "0xf971bda6c8552ad0c91adfd409745a5decb27005",
          "topics": [
            "0xbd0a63c12948fbc9194a5839019f99c9d71db924e5c70018265bc778b8f1a506"
          ],
          "data": "0x000000000000000000000000dee84853e34e194ece8c5add44c1c162288dcab0",
          "blockHash": "0x188d82167f5134211e8d1dd689a4de796eeaba971b2757196b776cf60b57ff85",
          "blockNumber": "0x88d9a7",
          "blockTimestamp": "0x689b4448",
          "transactionHash": "0x818904da2e37ce4cfa6dcc2ed6e1e511b41cc9b5f2488ccf8f548dc98a83ec62",
          "transactionIndex": "0x6b",
          "logIndex": "0xdd",
          "removed": false
        },
        {
          "address": "0xf971bda6c8552ad0c91adfd409745a5decb27005",
          "topics": [
            "0xc7f505b2f371ae2175ee4913f4499e1f2633a7b5936321eed1cdaeb6115181d2"
          ],
          "data": "0x0000000000000000000000000000000000000000000000000000000000000001",
          "blockHash": "0x188d82167f5134211e8d1dd689a4de796eeaba971b2757196b776cf60b57ff85",
          "blockNumber": "0x88d9a7",
          "blockTimestamp": "0x689b4448",
          "transactionHash": "0x818904da2e37ce4cfa6dcc2ed6e1e511b41cc9b5f2488ccf8f548dc98a83ec62",
          "transactionIndex": "0x6b",
          "logIndex": "0xde",
          "removed": false
        },
        {
          "address": "0x8d42296938e302e81924e8b5a75eccffc27dc718",
          "topics": [
            "0xfac42f3698c5904e90fb16020492752ee10a041c8365163937481c1ad53000a9",
            "0x000000000000000000000000f971bda6c8552ad0c91adfd409745a5decb27005",
            "0x000000000000000000000000e355d5d8aa52ef0fbbd037c4a3c5e6fd659cf46b"
          ],
          "data": "0x00000000000000000000000000000000000000000000000000000000000000200000000000000000000000007662fcf152a9e18280a77f4a8108229e86d398ab000000000000000000000000dee84853e34e194ece8c5add44c1c162288dcab00000000000000000000000003d3b68e5e0c32d8566a2bd92fa5f34f85412674e000000000000000000000000000000000000000000000000000000000000003c000000000000000000000000cc121ab1098625728950b200490d28f8b2c324fd00000000000000000000000000000000000000000000000000002d79883d2000000000000000000000000000000000000000000000000000000000000000016000000000000000000000000000000000000000000000000000000000000001a00000000000000000000000000000000000000000000000000000000001312d0000000000000000000000000000000000000000000000000000000000000f4240000000000000000000000000000000000000000000000000000000000098968000000000000000000000000000000000000000000000000000000000000000084732205661756c74000000000000000000000000000000000000000000000000000000000000000000000000000000000000000000000000000000000000000847322d5661756c74000000000000000000000000000000000000000000000000",
          "blockHash": "0x188d82167f5134211e8d1dd689a4de796eeaba971b2757196b776cf60b57ff85",
          "blockNumber": "0x88d9a7",
          "blockTimestamp": "0x689b4448",
          "transactionHash": "0x818904da2e37ce4cfa6dcc2ed6e1e511b41cc9b5f2488ccf8f548dc98a83ec62",
          "transactionIndex": "0x6b",
          "logIndex": "0xdf",
          "removed": false
        }
      ],
      "logsBloom": "0x000000020000000000000000000000400000000000000008008800000002000000000000000000000048008000000000000000000000000000000000000000000008000000002000000000080000000000018000004000000000000000000400000000000200004000004000000008000000000000000002000000000000014200000000000800000008000000400002000000000000880000000000000000000000800000000000000000000000000280002000000000000000000000000000000020000000044000000000000040000000000000040000004008000000200001000000000000200001000000000000000002000000004000c0100000004000",
      "type": "0x2",
      "transactionHash": "0x818904da2e37ce4cfa6dcc2ed6e1e511b41cc9b5f2488ccf8f548dc98a83ec62",
      "transactionIndex": "0x6b",
      "blockHash": "0x188d82167f5134211e8d1dd689a4de796eeaba971b2757196b776cf60b57ff85",
      "blockNumber": "0x88d9a7",
      "gasUsed": "0x57c82",
      "effectiveGasPrice": "0x1f1ae4",
      "from": "0xe355d5d8aa52ef0fbbd037c4a3c5e6fd659cf46b",
      "to": "0x8d42296938e302e81924e8b5a75eccffc27dc718",
      "contractAddress": null
    }
  ],
  "libraries": [],
  "pending": [],
  "returns": {},
  "timestamp": 1755006024,
  "chain": 11155111,
  "commit": "b880c604"
}