{
  "transactions": [
    {
      "hash": "0x928b248182f3937fbfe4e5494c25d3d68c283395cd96db7366c5b476cecc9de7",
      "transactionType": "CALL",
      "contractName": "TermMaxVaultFactoryV1Plus",
      "contractAddress": "0x3a9ecffdbdc595907f65640f810d3ddddde2fa61",
      "function": "createVault((address,address,address,uint256,address,uint256,string,string,uint64,uint64,uint64),uint256)",
      "arguments": [
        "(0xDA4aAF85Bb924B53DCc2DFFa9e1A9C2Ef97aCFDF, 0x313660F9b9bdF5E061dE7892C7927208E4F8080F, 0x20d4E208E8135cd72Cc4f44ff1448635dff34a37, 86400, 0xA0b86991c6218b36c1d19D4a2e9Eb0cE3606eB48, 50000000000000, USDC Boost Yield Vault, USDC-Boost-Yield-Vault, 10000000, 1000000, 10000000)",
        "0"
      ],
      "transaction": {
        "from": "0x56e3665038c5f0b56cc7d81ac66c86521274b251",
        "to": "0x3a9ecffdbdc595907f65640f810d3ddddde2fa61",
        "gas": "0x7c8c9",
        "value": "0x0",
        "input": "0x8e49c88400000000000000000000000000000000000000000000000000000000000000400000000000000000000000000000000000000000000000000000000000000000000000000000000000000000da4aaf85bb924b53dcc2dffa9e1a9c2ef97acfdf000000000000000000000000313660f9b9bdf5e061de7892c7927208e4f8080f00000000000000000000000020d4e208e8135cd72cc4f44ff1448635dff34a370000000000000000000000000000000000000000000000000000000000015180000000000000000000000000a0b86991c6218b36c1d19d4a2e9eb0ce3606eb4800000000000000000000000000000000000000000000000000002d79883d2000000000000000000000000000000000000000000000000000000000000000016000000000000000000000000000000000000000000000000000000000000001a0000000000000000000000000000000000000000000000000000000000098968000000000000000000000000000000000000000000000000000000000000f4240000000000000000000000000000000000000000000000000000000000098968000000000000000000000000000000000000000000000000000000000000000165553444320426f6f7374205969656c64205661756c74000000000000000000000000000000000000000000000000000000000000000000000000000000000016555344432d426f6f73742d5969656c642d5661756c7400000000000000000000",
        "nonce": "0x41b",
        "chainId": "0x1"
      },
      "additionalContracts": [
        {
          "transactionType": "CREATE2",
          "address": "0x0d6b6280915313e7322dcb4d71d511a93a75d98d",
          "initCode": "0x3d602d80600a3d3981f3363d3d373d3d3d363d731d9d0956621bf85d1d4cafc92d76a0448a5e6b9b5af43d82803e903d91602b57fd5bf3"
        }
      ],
      "isFixedGasLimit": false
    }
  ],
  "receipts": [
    {
      "status": "0x1",
      "cumulativeGasUsed": "0xfbe72f",
      "logs": [
        {
          "address": "0x0d6b6280915313e7322dcb4d71d511a93a75d98d",
          "topics": [
            "0x8be0079c531659141344cd1fd0a4f28419497f9722a3daafe3b4186f6b6457e0",
            "0x0000000000000000000000000000000000000000000000000000000000000000",
            "0x000000000000000000000000da4aaf85bb924b53dcc2dffa9e1a9c2ef97acfdf"
          ],
          "data": "0x",
          "blockHash": "0xa60d1cf5e01a853bbdaecc1023d15e84d737af7c2b7bb0401d9b9ca165d3ce11",
          "blockNumber": "0x161d0e2",
          "blockTimestamp": "0x68a6bd3b",
          "transactionHash": "0x928b248182f3937fbfe4e5494c25d3d68c283395cd96db7366c5b476cecc9de7",
          "transactionIndex": "0xf1",
          "logIndex": "0x1a3",
          "removed": false
        },
        {
          "address": "0x0d6b6280915313e7322dcb4d71d511a93a75d98d",
          "topics": [
            "0x20affe2401825617c69366f8c3a3493d9822d1021d0b3023c4e77ea5b3d0fbc5",
            "0x0000000000000000000000003a9ecffdbdc595907f65640f810d3ddddde2fa61"
          ],
          "data": "0x0000000000000000000000000000000000000000000000000000000000989680",
          "blockHash": "0xa60d1cf5e01a853bbdaecc1023d15e84d737af7c2b7bb0401d9b9ca165d3ce11",
          "blockNumber": "0x161d0e2",
          "blockTimestamp": "0x68a6bd3b",
          "transactionHash": "0x928b248182f3937fbfe4e5494c25d3d68c283395cd96db7366c5b476cecc9de7",
          "transactionIndex": "0xf1",
          "logIndex": "0x1a4",
          "removed": false
        },
        {
          "address": "0x0d6b6280915313e7322dcb4d71d511a93a75d98d",
          "topics": [
            "0xd28e9b90ee9b37c5936ff84392d71f29ff18117d7e76bcee60615262a90a3f75",
            "0x0000000000000000000000003a9ecffdbdc595907f65640f810d3ddddde2fa61"
          ],
          "data": "0x0000000000000000000000000000000000000000000000000000000000015180",
          "blockHash": "0xa60d1cf5e01a853bbdaecc1023d15e84d737af7c2b7bb0401d9b9ca165d3ce11",
          "blockNumber": "0x161d0e2",
          "blockTimestamp": "0x68a6bd3b",
          "transactionHash": "0x928b248182f3937fbfe4e5494c25d3d68c283395cd96db7366c5b476cecc9de7",
          "transactionIndex": "0xf1",
          "logIndex": "0x1a5",
          "removed": false
        },
        {
          "address": "0x0d6b6280915313e7322dcb4d71d511a93a75d98d",
          "topics": [
            "0x0cdc8c1df674ca6c4f86f6d47b02a15083c5d3bf098ea38f02c2762bad0afad2",
            "0x0000000000000000000000003a9ecffdbdc595907f65640f810d3ddddde2fa61"
          ],
          "data": "0x00000000000000000000000000000000000000000000000000000000000f4240",
          "blockHash": "0xa60d1cf5e01a853bbdaecc1023d15e84d737af7c2b7bb0401d9b9ca165d3ce11",
          "blockNumber": "0x161d0e2",
          "blockTimestamp": "0x68a6bd3b",
          "transactionHash": "0x928b248182f3937fbfe4e5494c25d3d68c283395cd96db7366c5b476cecc9de7",
          "transactionIndex": "0xf1",
          "logIndex": "0x1a6",
          "removed": false
        },
        {
          "address": "0x0d6b6280915313e7322dcb4d71d511a93a75d98d",
          "topics": [
            "0x37df918c2fd5f0501a9fdf1651bcdbad7a05d7b163702a82bbe497ee835ebc47",
            "0x0000000000000000000000003a9ecffdbdc595907f65640f810d3ddddde2fa61"
          ],
          "data": "0x0000000000000000000000000000000000000000000000000000000000989680",
          "blockHash": "0xa60d1cf5e01a853bbdaecc1023d15e84d737af7c2b7bb0401d9b9ca165d3ce11",
          "blockNumber": "0x161d0e2",
          "blockTimestamp": "0x68a6bd3b",
          "transactionHash": "0x928b248182f3937fbfe4e5494c25d3d68c283395cd96db7366c5b476cecc9de7",
          "transactionIndex": "0xf1",
          "logIndex": "0x1a7",
          "removed": false
        },
        {
          "address": "0x0d6b6280915313e7322dcb4d71d511a93a75d98d",
          "topics": [
            "0xcb11cc8aade2f5a556749d1b2380d108a16fac3431e6a5d5ce12ef9de0bd76e3",
            "0x0000000000000000000000003a9ecffdbdc595907f65640f810d3ddddde2fa61"
          ],
          "data": "0x00000000000000000000000020d4e208e8135cd72cc4f44ff1448635dff34a37",
          "blockHash": "0xa60d1cf5e01a853bbdaecc1023d15e84d737af7c2b7bb0401d9b9ca165d3ce11",
          "blockNumber": "0x161d0e2",
          "blockTimestamp": "0x68a6bd3b",
          "transactionHash": "0x928b248182f3937fbfe4e5494c25d3d68c283395cd96db7366c5b476cecc9de7",
          "transactionIndex": "0xf1",
          "logIndex": "0x1a8",
          "removed": false
        },
        {
          "address": "0x0d6b6280915313e7322dcb4d71d511a93a75d98d",
          "topics": [
            "0x51fa58fd85e72d533eb3933ef4dd0bb83a9614f46e076ffa025b0dcbb8dff315",
            "0x0000000000000000000000003a9ecffdbdc595907f65640f810d3ddddde2fa61"
          ],
          "data": "0x00000000000000000000000000000000000000000000000000002d79883d2000",
          "blockHash": "0xa60d1cf5e01a853bbdaecc1023d15e84d737af7c2b7bb0401d9b9ca165d3ce11",
          "blockNumber": "0x161d0e2",
          "blockTimestamp": "0x68a6bd3b",
          "transactionHash": "0x928b248182f3937fbfe4e5494c25d3d68c283395cd96db7366c5b476cecc9de7",
          "transactionIndex": "0xf1",
          "logIndex": "0x1a9",
          "removed": false
        },
        {
          "address": "0x0d6b6280915313e7322dcb4d71d511a93a75d98d",
          "topics": [
            "0xbd0a63c12948fbc9194a5839019f99c9d71db924e5c70018265bc778b8f1a506"
          ],
          "data": "0x000000000000000000000000313660f9b9bdf5e061de7892c7927208e4f8080f",
          "blockHash": "0xa60d1cf5e01a853bbdaecc1023d15e84d737af7c2b7bb0401d9b9ca165d3ce11",
          "blockNumber": "0x161d0e2",
          "blockTimestamp": "0x68a6bd3b",
          "transactionHash": "0x928b248182f3937fbfe4e5494c25d3d68c283395cd96db7366c5b476cecc9de7",
          "transactionIndex": "0xf1",
          "logIndex": "0x1aa",
          "removed": false
        },
        {
          "address": "0x0d6b6280915313e7322dcb4d71d511a93a75d98d",
          "topics": [
            "0xc7f505b2f371ae2175ee4913f4499e1f2633a7b5936321eed1cdaeb6115181d2"
          ],
          "data": "0x0000000000000000000000000000000000000000000000000000000000000001",
          "blockHash": "0xa60d1cf5e01a853bbdaecc1023d15e84d737af7c2b7bb0401d9b9ca165d3ce11",
          "blockNumber": "0x161d0e2",
          "blockTimestamp": "0x68a6bd3b",
          "transactionHash": "0x928b248182f3937fbfe4e5494c25d3d68c283395cd96db7366c5b476cecc9de7",
          "transactionIndex": "0xf1",
          "logIndex": "0x1ab",
          "removed": false
        },
        {
          "address": "0x3a9ecffdbdc595907f65640f810d3ddddde2fa61",
          "topics": [
            "0xfac42f3698c5904e90fb16020492752ee10a041c8365163937481c1ad53000a9",
            "0x0000000000000000000000000d6b6280915313e7322dcb4d71d511a93a75d98d",
            "0x00000000000000000000000056e3665038c5f0b56cc7d81ac66c86521274b251"
          ],
          "data": "0x0000000000000000000000000000000000000000000000000000000000000020000000000000000000000000da4aaf85bb924b53dcc2dffa9e1a9c2ef97acfdf000000000000000000000000313660f9b9bdf5e061de7892c7927208e4f8080f00000000000000000000000020d4e208e8135cd72cc4f44ff1448635dff34a370000000000000000000000000000000000000000000000000000000000015180000000000000000000000000a0b86991c6218b36c1d19d4a2e9eb0ce3606eb4800000000000000000000000000000000000000000000000000002d79883d2000000000000000000000000000000000000000000000000000000000000000016000000000000000000000000000000000000000000000000000000000000001a0000000000000000000000000000000000000000000000000000000000098968000000000000000000000000000000000000000000000000000000000000f4240000000000000000000000000000000000000000000000000000000000098968000000000000000000000000000000000000000000000000000000000000000165553444320426f6f7374205969656c64205661756c74000000000000000000000000000000000000000000000000000000000000000000000000000000000016555344432d426f6f73742d5969656c642d5661756c7400000000000000000000",
          "blockHash": "0xa60d1cf5e01a853bbdaecc1023d15e84d737af7c2b7bb0401d9b9ca165d3ce11",
          "blockNumber": "0x161d0e2",
          "blockTimestamp": "0x68a6bd3b",
          "transactionHash": "0x928b248182f3937fbfe4e5494c25d3d68c283395cd96db7366c5b476cecc9de7",
          "transactionIndex": "0xf1",
          "logIndex": "0x1ac",
          "removed": false
        }
      ],
      "logsBloom": "0x00000002000000000000000000000440000000000000000800880000000201000000000000000000004800000000000000000000000000000000004000000000000800000000202000000008000000000001800000000000000000100000000000000000020000000800400000010800000000000000000000000000000001420080000000000000000800000040000000000010000080000000000000000000000000000000000000000000000000028000000000800000000000000000000000002000008004000000000000004000000000000204000000000000000020000100000000000000200000002000000004000200000000400000102000000000",
      "type": "0x2",
      "transactionHash": "0x928b248182f3937fbfe4e5494c25d3d68c283395cd96db7366c5b476cecc9de7",
      "transactionIndex": "0xf1",
      "blockHash": "0xa60d1cf5e01a853bbdaecc1023d15e84d737af7c2b7bb0401d9b9ca165d3ce11",
      "blockNumber": "0x161d0e2",
      "gasUsed": "0x5a2bf",
      "effectiveGasPrice": "0xd7b78b5",
      "from": "0x56e3665038c5f0b56cc7d81ac66c86521274b251",
      "to": "0x3a9ecffdbdc595907f65640f810d3ddddde2fa61",
      "contractAddress": null
    }
  ],
  "libraries": [],
  "pending": [],
  "returns": {},
  "timestamp": 1755757887,
  "chain": 1,
  "commit": "fb6b3f6"
}