{
  "transactions": [
    {
      "hash": "0xb0bc0bf23bd4e2661554f6e9444029c0eee577083c67ed2cad8ca7fad18bed2d",
      "transactionType": "CALL",
      "contractName": "TermMaxVaultFactoryV1Plus",
      "contractAddress": "0x3a9ecffdbdc595907f65640f810d3ddddde2fa61",
      "function": "createVault((address,address,address,uint256,address,uint256,string,string,uint64,uint64,uint64),uint256)",
      "arguments": [
        "(0xDA4aAF85Bb924B53DCc2DFFa9e1A9C2Ef97aCFDF, 0x67460001C991708c6A6BAFc511a60c2E414D7Ecf, 0xf1a9676B03Dd3B2066214D2aD8B4B59ED6642C53, 86400, 0xA0b86991c6218b36c1d19D4a2e9Eb0cE3606eB48, 100000000000000, Keyrock USDC, Keyrock-USDC, 10000000, 1000000, 10000000)",
        "0"
      ],
      "transaction": {
        "from": "0x56e3665038c5f0b56cc7d81ac66c86521274b251",
        "to": "0x3a9ecffdbdc595907f65640f810d3ddddde2fa61",
        "gas": "0x83c93",
        "value": "0x0",
        "input": "0x8e49c88400000000000000000000000000000000000000000000000000000000000000400000000000000000000000000000000000000000000000000000000000000000000000000000000000000000da4aaf85bb924b53dcc2dffa9e1a9c2ef97acfdf00000000000000000000000067460001c991708c6a6bafc511a60c2e414d7ecf000000000000000000000000f1a9676b03dd3b2066214d2ad8b4b59ed6642c530000000000000000000000000000000000000000000000000000000000015180000000000000000000000000a0b86991c6218b36c1d19d4a2e9eb0ce3606eb4800000000000000000000000000000000000000000000000000005af3107a4000000000000000000000000000000000000000000000000000000000000000016000000000000000000000000000000000000000000000000000000000000001a0000000000000000000000000000000000000000000000000000000000098968000000000000000000000000000000000000000000000000000000000000f42400000000000000000000000000000000000000000000000000000000000989680000000000000000000000000000000000000000000000000000000000000000c4b6579726f636b20555344430000000000000000000000000000000000000000000000000000000000000000000000000000000000000000000000000000000c4b6579726f636b2d555344430000000000000000000000000000000000000000",
        "nonce": "0x421",
        "chainId": "0x1"
      },
      "additionalContracts": [
        {
          "transactionType": "CREATE2",
          "address": "0xf4b8dcd6509b3cb87da9c491cb0728a2f3088d3f",
          "initCode": "0x3d602d80600a3d3981f3363d3d373d3d3d363d731d9d0956621bf85d1d4cafc92d76a0448a5e6b9b5af43d82803e903d91602b57fd5bf3"
        }
      ],
      "isFixedGasLimit": false
    }
  ],
  "receipts": [
    {
      "status": "0x1",
      "cumulativeGasUsed": "0x2034dc6",
      "logs": [
        {
          "address": "0xf4b8dcd6509b3cb87da9c491cb0728a2f3088d3f",
          "topics": [
            "0x8be0079c531659141344cd1fd0a4f28419497f9722a3daafe3b4186f6b6457e0",
            "0x0000000000000000000000000000000000000000000000000000000000000000",
            "0x000000000000000000000000da4aaf85bb924b53dcc2dffa9e1a9c2ef97acfdf"
          ],
          "data": "0x",
          "blockHash": "0x70fd16a9d1aa5bff97c0097cef2b1fda6f5692491634fe4a7a45ae5c807e489e",
          "blockNumber": "0x16202f0",
          "blockTimestamp": "0x68a918ef",
          "transactionHash": "0xb0bc0bf23bd4e2661554f6e9444029c0eee577083c67ed2cad8ca7fad18bed2d",
          "transactionIndex": "0xfb",
          "logIndex": "0x371",
          "removed": false
        },
        {
          "address": "0xf4b8dcd6509b3cb87da9c491cb0728a2f3088d3f",
          "topics": [
            "0x20affe2401825617c69366f8c3a3493d9822d1021d0b3023c4e77ea5b3d0fbc5",
            "0x0000000000000000000000003a9ecffdbdc595907f65640f810d3ddddde2fa61"
          ],
          "data": "0x0000000000000000000000000000000000000000000000000000000000989680",
          "blockHash": "0x70fd16a9d1aa5bff97c0097cef2b1fda6f5692491634fe4a7a45ae5c807e489e",
          "blockNumber": "0x16202f0",
          "blockTimestamp": "0x68a918ef",
          "transactionHash": "0xb0bc0bf23bd4e2661554f6e9444029c0eee577083c67ed2cad8ca7fad18bed2d",
          "transactionIndex": "0xfb",
          "logIndex": "0x372",
          "removed": false
        },
        {
          "address": "0xf4b8dcd6509b3cb87da9c491cb0728a2f3088d3f",
          "topics": [
            "0xd28e9b90ee9b37c5936ff84392d71f29ff18117d7e76bcee60615262a90a3f75",
            "0x0000000000000000000000003a9ecffdbdc595907f65640f810d3ddddde2fa61"
          ],
          "data": "0x0000000000000000000000000000000000000000000000000000000000015180",
          "blockHash": "0x70fd16a9d1aa5bff97c0097cef2b1fda6f5692491634fe4a7a45ae5c807e489e",
          "blockNumber": "0x16202f0",
          "blockTimestamp": "0x68a918ef",
          "transactionHash": "0xb0bc0bf23bd4e2661554f6e9444029c0eee577083c67ed2cad8ca7fad18bed2d",
          "transactionIndex": "0xfb",
          "logIndex": "0x373",
          "removed": false
        },
        {
          "address": "0xf4b8dcd6509b3cb87da9c491cb0728a2f3088d3f",
          "topics": [
            "0x0cdc8c1df674ca6c4f86f6d47b02a15083c5d3bf098ea38f02c2762bad0afad2",
            "0x0000000000000000000000003a9ecffdbdc595907f65640f810d3ddddde2fa61"
          ],
          "data": "0x00000000000000000000000000000000000000000000000000000000000f4240",
          "blockHash": "0x70fd16a9d1aa5bff97c0097cef2b1fda6f5692491634fe4a7a45ae5c807e489e",
          "blockNumber": "0x16202f0",
          "blockTimestamp": "0x68a918ef",
          "transactionHash": "0xb0bc0bf23bd4e2661554f6e9444029c0eee577083c67ed2cad8ca7fad18bed2d",
          "transactionIndex": "0xfb",
          "logIndex": "0x374",
          "removed": false
        },
        {
          "address": "0xf4b8dcd6509b3cb87da9c491cb0728a2f3088d3f",
          "topics": [
            "0x37df918c2fd5f0501a9fdf1651bcdbad7a05d7b163702a82bbe497ee835ebc47",
            "0x0000000000000000000000003a9ecffdbdc595907f65640f810d3ddddde2fa61"
          ],
          "data": "0x0000000000000000000000000000000000000000000000000000000000989680",
          "blockHash": "0x70fd16a9d1aa5bff97c0097cef2b1fda6f5692491634fe4a7a45ae5c807e489e",
          "blockNumber": "0x16202f0",
          "blockTimestamp": "0x68a918ef",
          "transactionHash": "0xb0bc0bf23bd4e2661554f6e9444029c0eee577083c67ed2cad8ca7fad18bed2d",
          "transactionIndex": "0xfb",
          "logIndex": "0x375",
          "removed": false
        },
        {
          "address": "0xf4b8dcd6509b3cb87da9c491cb0728a2f3088d3f",
          "topics": [
            "0xcb11cc8aade2f5a556749d1b2380d108a16fac3431e6a5d5ce12ef9de0bd76e3",
            "0x0000000000000000000000003a9ecffdbdc595907f65640f810d3ddddde2fa61"
          ],
          "data": "0x000000000000000000000000f1a9676b03dd3b2066214d2ad8b4b59ed6642c53",
          "blockHash": "0x70fd16a9d1aa5bff97c0097cef2b1fda6f5692491634fe4a7a45ae5c807e489e",
          "blockNumber": "0x16202f0",
          "blockTimestamp": "0x68a918ef",
          "transactionHash": "0xb0bc0bf23bd4e2661554f6e9444029c0eee577083c67ed2cad8ca7fad18bed2d",
          "transactionIndex": "0xfb",
          "logIndex": "0x376",
          "removed": false
        },
        {
          "address": "0xf4b8dcd6509b3cb87da9c491cb0728a2f3088d3f",
          "topics": [
            "0x51fa58fd85e72d533eb3933ef4dd0bb83a9614f46e076ffa025b0dcbb8dff315",
            "0x0000000000000000000000003a9ecffdbdc595907f65640f810d3ddddde2fa61"
          ],
          "data": "0x00000000000000000000000000000000000000000000000000005af3107a4000",
          "blockHash": "0x70fd16a9d1aa5bff97c0097cef2b1fda6f5692491634fe4a7a45ae5c807e489e",
          "blockNumber": "0x16202f0",
          "blockTimestamp": "0x68a918ef",
          "transactionHash": "0xb0bc0bf23bd4e2661554f6e9444029c0eee577083c67ed2cad8ca7fad18bed2d",
          "transactionIndex": "0xfb",
          "logIndex": "0x377",
          "removed": false
        },
        {
          "address": "0xf4b8dcd6509b3cb87da9c491cb0728a2f3088d3f",
          "topics": [
            "0xbd0a63c12948fbc9194a5839019f99c9d71db924e5c70018265bc778b8f1a506"
          ],
          "data": "0x00000000000000000000000067460001c991708c6a6bafc511a60c2e414d7ecf",
          "blockHash": "0x70fd16a9d1aa5bff97c0097cef2b1fda6f5692491634fe4a7a45ae5c807e489e",
          "blockNumber": "0x16202f0",
          "blockTimestamp": "0x68a918ef",
          "transactionHash": "0xb0bc0bf23bd4e2661554f6e9444029c0eee577083c67ed2cad8ca7fad18bed2d",
          "transactionIndex": "0xfb",
          "logIndex": "0x378",
          "removed": false
        },
        {
          "address": "0xf4b8dcd6509b3cb87da9c491cb0728a2f3088d3f",
          "topics": [
            "0xc7f505b2f371ae2175ee4913f4499e1f2633a7b5936321eed1cdaeb6115181d2"
          ],
          "data": "0x0000000000000000000000000000000000000000000000000000000000000001",
          "blockHash": "0x70fd16a9d1aa5bff97c0097cef2b1fda6f5692491634fe4a7a45ae5c807e489e",
          "blockNumber": "0x16202f0",
          "blockTimestamp": "0x68a918ef",
          "transactionHash": "0xb0bc0bf23bd4e2661554f6e9444029c0eee577083c67ed2cad8ca7fad18bed2d",
          "transactionIndex": "0xfb",
          "logIndex": "0x379",
          "removed": false
        },
        {
          "address": "0x3a9ecffdbdc595907f65640f810d3ddddde2fa61",
          "topics": [
            "0xfac42f3698c5904e90fb16020492752ee10a041c8365163937481c1ad53000a9",
            "0x000000000000000000000000f4b8dcd6509b3cb87da9c491cb0728a2f3088d3f",
            "0x00000000000000000000000056e3665038c5f0b56cc7d81ac66c86521274b251"
          ],
          "data": "0x0000000000000000000000000000000000000000000000000000000000000020000000000000000000000000da4aaf85bb924b53dcc2dffa9e1a9c2ef97acfdf00000000000000000000000067460001c991708c6a6bafc511a60c2e414d7ecf000000000000000000000000f1a9676b03dd3b2066214d2ad8b4b59ed6642c530000000000000000000000000000000000000000000000000000000000015180000000000000000000000000a0b86991c6218b36c1d19d4a2e9eb0ce3606eb4800000000000000000000000000000000000000000000000000005af3107a4000000000000000000000000000000000000000000000000000000000000000016000000000000000000000000000000000000000000000000000000000000001a0000000000000000000000000000000000000000000000000000000000098968000000000000000000000000000000000000000000000000000000000000f42400000000000000000000000000000000000000000000000000000000000989680000000000000000000000000000000000000000000000000000000000000000c4b6579726f636b20555344430000000000000000000000000000000000000000000000000000000000000000000000000000000000000000000000000000000c4b6579726f636b2d555344430000000000000000000000000000000000000000",
          "blockHash": "0x70fd16a9d1aa5bff97c0097cef2b1fda6f5692491634fe4a7a45ae5c807e489e",
          "blockNumber": "0x16202f0",
          "blockTimestamp": "0x68a918ef",
          "transactionHash": "0xb0bc0bf23bd4e2661554f6e9444029c0eee577083c67ed2cad8ca7fad18bed2d",
          "transactionIndex": "0xfb",
          "logIndex": "0x37a",
          "removed": false
        }
      ],
      "logsBloom": "0x00000002000000000000000000000040000000000000000800880000000201000000000000000000004800000000000000000000000000000000004000000000000800000000202000000008000000000001800000000000000000100000000000000000020000000800400000010800000000000000000000000000000001420000000000000000000800100040000000000200000080000000000000000000000000000000000000001000000000028000000000000000000000000000000000003000008004000000000000004000000000000004000000000000000020000100000028000000200000002000000000000200000000400000102000000000",
      "type": "0x2",
      "transactionHash": "0xb0bc0bf23bd4e2661554f6e9444029c0eee577083c67ed2cad8ca7fad18bed2d",
      "transactionIndex": "0xfb",
      "blockHash": "0x70fd16a9d1aa5bff97c0097cef2b1fda6f5692491634fe4a7a45ae5c807e489e",
      "blockNumber": "0x16202f0",
      "gasUsed": "0x5a1c3",
      "effectiveGasPrice": "0x12963fa1",
      "from": "0x56e3665038c5f0b56cc7d81ac66c86521274b251",
      "to": "0x3a9ecffdbdc595907f65640f810d3ddddde2fa61",
      "contractAddress": null
    }
  ],
  "libraries": [],
  "pending": [],
  "returns": {},
  "timestamp": 1755912433,
  "chain": 1,
  "commit": "30cece4"
}