{
  "transactions": [
    {
      "hash": "0x3ba9eb4fd9732926ac3f5020cbc8b42c4b485c1669966262b3dda7b6a73ce398",
      "transactionType": "CALL",
      "contractName": "TermMaxVaultFactoryV1Plus",
      "contractAddress": "0x3a9ecffdbdc595907f65640f810d3ddddde2fa61",
      "function": "createVault((address,address,address,uint256,address,uint256,string,string,uint64,uint64,uint64),uint256)",
      "arguments": [
        "(0xDA4aAF85Bb924B53DCc2DFFa9e1A9C2Ef97aCFDF, 0x000cA4853bBDca1347f190bbF31B5Bb564A849Be, 0x15fF7Cc1Fa7963B0E31c3163B98F759C4CAf4198, 86400, 0xC02aaA39b223FE8D0A0e5C4F27eAD9083C756Cc2, 50000000000000000000000000, MEV Restaked ETH, MEV-Restaked-ETH, 10000000, 1000000, 10000000)",
        "0"
      ],
      "transaction": {
        "from": "0x56e3665038c5f0b56cc7d81ac66c86521274b251",
        "to": "0x3a9ecffdbdc595907f65640f810d3ddddde2fa61",
        "gas": "0x81414",
        "value": "0x0",
        "input": "0x8e49c88400000000000000000000000000000000000000000000000000000000000000400000000000000000000000000000000000000000000000000000000000000000000000000000000000000000da4aaf85bb924b53dcc2dffa9e1a9c2ef97acfdf000000000000000000000000000ca4853bbdca1347f190bbf31b5bb564a849be00000000000000000000000015ff7cc1fa7963b0e31c3163b98f759c4caf41980000000000000000000000000000000000000000000000000000000000015180000000000000000000000000c02aaa39b223fe8d0a0e5c4f27ead9083c756cc2000000000000000000000000000000000000000000295be96e64066972000000000000000000000000000000000000000000000000000000000000000000016000000000000000000000000000000000000000000000000000000000000001a0000000000000000000000000000000000000000000000000000000000098968000000000000000000000000000000000000000000000000000000000000f4240000000000000000000000000000000000000000000000000000000000098968000000000000000000000000000000000000000000000000000000000000000104d45562052657374616b6564204554480000000000000000000000000000000000000000000000000000000000000000000000000000000000000000000000104d45562d52657374616b65642d45544800000000000000000000000000000000",
        "nonce": "0x420",
        "chainId": "0x1"
      },
      "additionalContracts": [
        {
          "transactionType": "CREATE2",
          "address": "0xb3bad0e31e08395eaae76be47985d074a4112f38",
          "initCode": "0x3d602d80600a3d3981f3363d3d373d3d3d363d731d9d0956621bf85d1d4cafc92d76a0448a5e6b9b5af43d82803e903d91602b57fd5bf3"
        }
      ],
      "isFixedGasLimit": false
    }
  ],
  "receipts": [
    {
      "status": "0x1",
      "cumulativeGasUsed": "0x10695a2",
      "logs": [
        {
          "address": "0xb3bad0e31e08395eaae76be47985d074a4112f38",
          "topics": [
            "0x8be0079c531659141344cd1fd0a4f28419497f9722a3daafe3b4186f6b6457e0",
            "0x0000000000000000000000000000000000000000000000000000000000000000",
            "0x000000000000000000000000da4aaf85bb924b53dcc2dffa9e1a9c2ef97acfdf"
          ],
          "data": "0x",
          "blockHash": "0xc2f83000f47ae1e7f65207890951f0031e52220f039e16a4c76c5a8960c3c098",
          "blockNumber": "0x16202cd",
          "blockTimestamp": "0x68a9173f",
          "transactionHash": "0x3ba9eb4fd9732926ac3f5020cbc8b42c4b485c1669966262b3dda7b6a73ce398",
          "transactionIndex": "0x126",
          "logIndex": "0x191",
          "removed": false
        },
        {
          "address": "0xb3bad0e31e08395eaae76be47985d074a4112f38",
          "topics": [
            "0x20affe2401825617c69366f8c3a3493d9822d1021d0b3023c4e77ea5b3d0fbc5",
            "0x0000000000000000000000003a9ecffdbdc595907f65640f810d3ddddde2fa61"
          ],
          "data": "0x0000000000000000000000000000000000000000000000000000000000989680",
          "blockHash": "0xc2f83000f47ae1e7f65207890951f0031e52220f039e16a4c76c5a8960c3c098",
          "blockNumber": "0x16202cd",
          "blockTimestamp": "0x68a9173f",
          "transactionHash": "0x3ba9eb4fd9732926ac3f5020cbc8b42c4b485c1669966262b3dda7b6a73ce398",
          "transactionIndex": "0x126",
          "logIndex": "0x192",
          "removed": false
        },
        {
          "address": "0xb3bad0e31e08395eaae76be47985d074a4112f38",
          "topics": [
            "0xd28e9b90ee9b37c5936ff84392d71f29ff18117d7e76bcee60615262a90a3f75",
            "0x0000000000000000000000003a9ecffdbdc595907f65640f810d3ddddde2fa61"
          ],
          "data": "0x0000000000000000000000000000000000000000000000000000000000015180",
          "blockHash": "0xc2f83000f47ae1e7f65207890951f0031e52220f039e16a4c76c5a8960c3c098",
          "blockNumber": "0x16202cd",
          "blockTimestamp": "0x68a9173f",
          "transactionHash": "0x3ba9eb4fd9732926ac3f5020cbc8b42c4b485c1669966262b3dda7b6a73ce398",
          "transactionIndex": "0x126",
          "logIndex": "0x193",
          "removed": false
        },
        {
          "address": "0xb3bad0e31e08395eaae76be47985d074a4112f38",
          "topics": [
            "0x0cdc8c1df674ca6c4f86f6d47b02a15083c5d3bf098ea38f02c2762bad0afad2",
            "0x0000000000000000000000003a9ecffdbdc595907f65640f810d3ddddde2fa61"
          ],
          "data": "0x00000000000000000000000000000000000000000000000000000000000f4240",
          "blockHash": "0xc2f83000f47ae1e7f65207890951f0031e52220f039e16a4c76c5a8960c3c098",
          "blockNumber": "0x16202cd",
          "blockTimestamp": "0x68a9173f",
          "transactionHash": "0x3ba9eb4fd9732926ac3f5020cbc8b42c4b485c1669966262b3dda7b6a73ce398",
          "transactionIndex": "0x126",
          "logIndex": "0x194",
          "removed": false
        },
        {
          "address": "0xb3bad0e31e08395eaae76be47985d074a4112f38",
          "topics": [
            "0x37df918c2fd5f0501a9fdf1651bcdbad7a05d7b163702a82bbe497ee835ebc47",
            "0x0000000000000000000000003a9ecffdbdc595907f65640f810d3ddddde2fa61"
          ],
          "data": "0x0000000000000000000000000000000000000000000000000000000000989680",
          "blockHash": "0xc2f83000f47ae1e7f65207890951f0031e52220f039e16a4c76c5a8960c3c098",
          "blockNumber": "0x16202cd",
          "blockTimestamp": "0x68a9173f",
          "transactionHash": "0x3ba9eb4fd9732926ac3f5020cbc8b42c4b485c1669966262b3dda7b6a73ce398",
          "transactionIndex": "0x126",
          "logIndex": "0x195",
          "removed": false
        },
        {
          "address": "0xb3bad0e31e08395eaae76be47985d074a4112f38",
          "topics": [
            "0xcb11cc8aade2f5a556749d1b2380d108a16fac3431e6a5d5ce12ef9de0bd76e3",
            "0x0000000000000000000000003a9ecffdbdc595907f65640f810d3ddddde2fa61"
          ],
          "data": "0x00000000000000000000000015ff7cc1fa7963b0e31c3163b98f759c4caf4198",
          "blockHash": "0xc2f83000f47ae1e7f65207890951f0031e52220f039e16a4c76c5a8960c3c098",
          "blockNumber": "0x16202cd",
          "blockTimestamp": "0x68a9173f",
          "transactionHash": "0x3ba9eb4fd9732926ac3f5020cbc8b42c4b485c1669966262b3dda7b6a73ce398",
          "transactionIndex": "0x126",
          "logIndex": "0x196",
          "removed": false
        },
        {
          "address": "0xb3bad0e31e08395eaae76be47985d074a4112f38",
          "topics": [
            "0x51fa58fd85e72d533eb3933ef4dd0bb83a9614f46e076ffa025b0dcbb8dff315",
            "0x0000000000000000000000003a9ecffdbdc595907f65640f810d3ddddde2fa61"
          ],
          "data": "0x000000000000000000000000000000000000000000295be96e64066972000000",
          "blockHash": "0xc2f83000f47ae1e7f65207890951f0031e52220f039e16a4c76c5a8960c3c098",
          "blockNumber": "0x16202cd",
          "blockTimestamp": "0x68a9173f",
          "transactionHash": "0x3ba9eb4fd9732926ac3f5020cbc8b42c4b485c1669966262b3dda7b6a73ce398",
          "transactionIndex": "0x126",
          "logIndex": "0x197",
          "removed": false
        },
        {
          "address": "0xb3bad0e31e08395eaae76be47985d074a4112f38",
          "topics": [
            "0xbd0a63c12948fbc9194a5839019f99c9d71db924e5c70018265bc778b8f1a506"
          ],
          "data": "0x000000000000000000000000000ca4853bbdca1347f190bbf31b5bb564a849be",
          "blockHash": "0xc2f83000f47ae1e7f65207890951f0031e52220f039e16a4c76c5a8960c3c098",
          "blockNumber": "0x16202cd",
          "blockTimestamp": "0x68a9173f",
          "transactionHash": "0x3ba9eb4fd9732926ac3f5020cbc8b42c4b485c1669966262b3dda7b6a73ce398",
          "transactionIndex": "0x126",
          "logIndex": "0x198",
          "removed": false
        },
        {
          "address": "0xb3bad0e31e08395eaae76be47985d074a4112f38",
          "topics": [
            "0xc7f505b2f371ae2175ee4913f4499e1f2633a7b5936321eed1cdaeb6115181d2"
          ],
          "data": "0x0000000000000000000000000000000000000000000000000000000000000001",
          "blockHash": "0xc2f83000f47ae1e7f65207890951f0031e52220f039e16a4c76c5a8960c3c098",
          "blockNumber": "0x16202cd",
          "blockTimestamp": "0x68a9173f",
          "transactionHash": "0x3ba9eb4fd9732926ac3f5020cbc8b42c4b485c1669966262b3dda7b6a73ce398",
          "transactionIndex": "0x126",
          "logIndex": "0x199",
          "removed": false
        },
        {
          "address": "0x3a9ecffdbdc595907f65640f810d3ddddde2fa61",
          "topics": [
            "0xfac42f3698c5904e90fb16020492752ee10a041c8365163937481c1ad53000a9",
            "0x000000000000000000000000b3bad0e31e08395eaae76be47985d074a4112f38",
            "0x00000000000000000000000056e3665038c5f0b56cc7d81ac66c86521274b251"
          ],
          "data": "0x0000000000000000000000000000000000000000000000000000000000000020000000000000000000000000da4aaf85bb924b53dcc2dffa9e1a9c2ef97acfdf000000000000000000000000000ca4853bbdca1347f190bbf31b5bb564a849be00000000000000000000000015ff7cc1fa7963b0e31c3163b98f759c4caf41980000000000000000000000000000000000000000000000000000000000015180000000000000000000000000c02aaa39b223fe8d0a0e5c4f27ead9083c756cc2000000000000000000000000000000000000000000295be96e64066972000000000000000000000000000000000000000000000000000000000000000000016000000000000000000000000000000000000000000000000000000000000001a0000000000000000000000000000000000000000000000000000000000098968000000000000000000000000000000000000000000000000000000000000f4240000000000000000000000000000000000000000000000000000000000098968000000000000000000000000000000000000000000000000000000000000000104d45562052657374616b6564204554480000000000000000000000000000000000000000000000000000000000000000000000000000000000000000000000104d45562d52657374616b65642d45544800000000000000000000000000000000",
          "blockHash": "0xc2f83000f47ae1e7f65207890951f0031e52220f039e16a4c76c5a8960c3c098",
          "blockNumber": "0x16202cd",
          "blockTimestamp": "0x68a9173f",
          "transactionHash": "0x3ba9eb4fd9732926ac3f5020cbc8b42c4b485c1669966262b3dda7b6a73ce398",
          "transactionIndex": "0x126",
          "logIndex": "0x19a",
          "removed": false
        }
      ],
      "logsBloom": "0x00000002000000000000000000000040000000000000000800880000002201000000000000000000004800000000000000000000000000000000004000000000000800000000202000000008000000000001800000000000000000100000000000000000020000000800400000010800000000000000000000000000000001420000000000000000000800000040000000000000000080000000000000000000000000000000000000000000000000028000000000000000000000000000000000002002008004000000000000004000000000000004000000000004000020040100000040000000a00000002000000000000200000000400000102000000000",
      "type": "0x2",
      "transactionHash": "0x3ba9eb4fd9732926ac3f5020cbc8b42c4b485c1669966262b3dda7b6a73ce398",
      "transactionIndex": "0x126",
      "blockHash": "0xc2f83000f47ae1e7f65207890951f0031e52220f039e16a4c76c5a8960c3c098",
      "blockNumber": "0x16202cd",
      "gasUsed": "0x58613",
      "effectiveGasPrice": "0x160f44e4",
      "from": "0x56e3665038c5f0b56cc7d81ac66c86521274b251",
      "to": "0x3a9ecffdbdc595907f65640f810d3ddddde2fa61",
      "contractAddress": null
    }
  ],
  "libraries": [],
  "pending": [],
  "returns": {},
  "timestamp": 1755912003,
  "chain": 1,
  "commit": "30cece4"
}