{
  "transactions": [
    {
      "hash": "0x3a8928dad338c0e58b3b08bbf8e7d8fd02a61f5bd2a7c1659c41444163132962",
      "transactionType": "CALL",
      "contractName": "TermMaxVaultFactoryV1Plus",
      "contractAddress": "0x3a9ecffdbdc595907f65640f810d3ddddde2fa61",
      "function": "createVault((address,address,address,uint256,address,uint256,string,string,uint64,uint64,uint64),uint256)",
      "arguments": [
        "(0xDA4aAF85Bb924B53DCc2DFFa9e1A9C2Ef97aCFDF, 0xD7D75Bd7Af01640CB887CAD1882FDebD4Fb06032, 0x12be92A16c984824F067bC892d19895d4d2E7fb9, 86400, 0xA0b86991c6218b36c1d19D4a2e9Eb0cE3606eB48, 50000000000000, Edge Capital UltraYield, Edge-Capital-UltraYield, 0, 1000000, 10000000)",
        "0"
      ],
      "transaction": {
        "from": "0x56e3665038c5f0b56cc7d81ac66c86521274b251",
        "to": "0x3a9ecffdbdc595907f65640f810d3ddddde2fa61",
        "gas": "0x83df2",
        "value": "0x0",
        "input": "0x8e49c88400000000000000000000000000000000000000000000000000000000000000400000000000000000000000000000000000000000000000000000000000000000000000000000000000000000da4aaf85bb924b53dcc2dffa9e1a9c2ef97acfdf000000000000000000000000d7d75bd7af01640cb887cad1882fdebd4fb0603200000000000000000000000012be92a16c984824f067bc892d19895d4d2e7fb90000000000000000000000000000000000000000000000000000000000015180000000000000000000000000a0b86991c6218b36c1d19d4a2e9eb0ce3606eb4800000000000000000000000000000000000000000000000000002d79883d2000000000000000000000000000000000000000000000000000000000000000016000000000000000000000000000000000000000000000000000000000000001a0000000000000000000000000000000000000000000000000000000000000000000000000000000000000000000000000000000000000000000000000000f42400000000000000000000000000000000000000000000000000000000000989680000000000000000000000000000000000000000000000000000000000000001745646765204361706974616c20556c7472615969656c640000000000000000000000000000000000000000000000000000000000000000000000000000000017456467652d4361706974616c2d556c7472615969656c64000000000000000000",
        "nonce": "0x416",
        "chainId": "0x1"
      },
      "additionalContracts": [
        {
          "transactionType": "CREATE2",
          "address": "0x581aa6f8d7498e68e02d4fb6abfa7972c9d86286",
          "initCode": "0x3d602d80600a3d3981f3363d3d373d3d3d363d731d9d0956621bf85d1d4cafc92d76a0448a5e6b9b5af43d82803e903d91602b57fd5bf3"
        }
      ],
      "isFixedGasLimit": false
    }
  ],
  "receipts": [
    {
      "status": "0x1",
      "cumulativeGasUsed": "0x125cbfc",
      "logs": [
        {
          "address": "0x581aa6f8d7498e68e02d4fb6abfa7972c9d86286",
          "topics": [
            "0x8be0079c531659141344cd1fd0a4f28419497f9722a3daafe3b4186f6b6457e0",
            "0x0000000000000000000000000000000000000000000000000000000000000000",
            "0x000000000000000000000000da4aaf85bb924b53dcc2dffa9e1a9c2ef97acfdf"
          ],
          "data": "0x",
          "blockHash": "0xed93e91a977ee2a617340d0f7b1e3c488e85b277ca9f80c6f956895331ec08c8",
          "blockNumber": "0x161994b",
          "blockTimestamp": "0x68a41f63",
          "transactionHash": "0x3a8928dad338c0e58b3b08bbf8e7d8fd02a61f5bd2a7c1659c41444163132962",
          "transactionIndex": "0xa9",
          "logIndex": "0x17e",
          "removed": false
        },
        {
          "address": "0x581aa6f8d7498e68e02d4fb6abfa7972c9d86286",
          "topics": [
            "0x20affe2401825617c69366f8c3a3493d9822d1021d0b3023c4e77ea5b3d0fbc5",
            "0x0000000000000000000000003a9ecffdbdc595907f65640f810d3ddddde2fa61"
          ],
          "data": "0x0000000000000000000000000000000000000000000000000000000000000000",
          "blockHash": "0xed93e91a977ee2a617340d0f7b1e3c488e85b277ca9f80c6f956895331ec08c8",
          "blockNumber": "0x161994b",
          "blockTimestamp": "0x68a41f63",
          "transactionHash": "0x3a8928dad338c0e58b3b08bbf8e7d8fd02a61f5bd2a7c1659c41444163132962",
          "transactionIndex": "0xa9",
          "logIndex": "0x17f",
          "removed": false
        },
        {
          "address": "0x581aa6f8d7498e68e02d4fb6abfa7972c9d86286",
          "topics": [
            "0xd28e9b90ee9b37c5936ff84392d71f29ff18117d7e76bcee60615262a90a3f75",
            "0x0000000000000000000000003a9ecffdbdc595907f65640f810d3ddddde2fa61"
          ],
          "data": "0x0000000000000000000000000000000000000000000000000000000000015180",
          "blockHash": "0xed93e91a977ee2a617340d0f7b1e3c488e85b277ca9f80c6f956895331ec08c8",
          "blockNumber": "0x161994b",
          "blockTimestamp": "0x68a41f63",
          "transactionHash": "0x3a8928dad338c0e58b3b08bbf8e7d8fd02a61f5bd2a7c1659c41444163132962",
          "transactionIndex": "0xa9",
          "logIndex": "0x180",
          "removed": false
        },
        {
          "address": "0x581aa6f8d7498e68e02d4fb6abfa7972c9d86286",
          "topics": [
            "0x0cdc8c1df674ca6c4f86f6d47b02a15083c5d3bf098ea38f02c2762bad0afad2",
            "0x0000000000000000000000003a9ecffdbdc595907f65640f810d3ddddde2fa61"
          ],
          "data": "0x00000000000000000000000000000000000000000000000000000000000f4240",
          "blockHash": "0xed93e91a977ee2a617340d0f7b1e3c488e85b277ca9f80c6f956895331ec08c8",
          "blockNumber": "0x161994b",
          "blockTimestamp": "0x68a41f63",
          "transactionHash": "0x3a8928dad338c0e58b3b08bbf8e7d8fd02a61f5bd2a7c1659c41444163132962",
          "transactionIndex": "0xa9",
          "logIndex": "0x181",
          "removed": false
        },
        {
          "address": "0x581aa6f8d7498e68e02d4fb6abfa7972c9d86286",
          "topics": [
            "0x37df918c2fd5f0501a9fdf1651bcdbad7a05d7b163702a82bbe497ee835ebc47",
            "0x0000000000000000000000003a9ecffdbdc595907f65640f810d3ddddde2fa61"
          ],
          "data": "0x0000000000000000000000000000000000000000000000000000000000989680",
          "blockHash": "0xed93e91a977ee2a617340d0f7b1e3c488e85b277ca9f80c6f956895331ec08c8",
          "blockNumber": "0x161994b",
          "blockTimestamp": "0x68a41f63",
          "transactionHash": "0x3a8928dad338c0e58b3b08bbf8e7d8fd02a61f5bd2a7c1659c41444163132962",
          "transactionIndex": "0xa9",
          "logIndex": "0x182",
          "removed": false
        },
        {
          "address": "0x581aa6f8d7498e68e02d4fb6abfa7972c9d86286",
          "topics": [
            "0xcb11cc8aade2f5a556749d1b2380d108a16fac3431e6a5d5ce12ef9de0bd76e3",
            "0x0000000000000000000000003a9ecffdbdc595907f65640f810d3ddddde2fa61"
          ],
          "data": "0x00000000000000000000000012be92a16c984824f067bc892d19895d4d2e7fb9",
          "blockHash": "0xed93e91a977ee2a617340d0f7b1e3c488e85b277ca9f80c6f956895331ec08c8",
          "blockNumber": "0x161994b",
          "blockTimestamp": "0x68a41f63",
          "transactionHash": "0x3a8928dad338c0e58b3b08bbf8e7d8fd02a61f5bd2a7c1659c41444163132962",
          "transactionIndex": "0xa9",
          "logIndex": "0x183",
          "removed": false
        },
        {
          "address": "0x581aa6f8d7498e68e02d4fb6abfa7972c9d86286",
          "topics": [
            "0x51fa58fd85e72d533eb3933ef4dd0bb83a9614f46e076ffa025b0dcbb8dff315",
            "0x0000000000000000000000003a9ecffdbdc595907f65640f810d3ddddde2fa61"
          ],
          "data": "0x00000000000000000000000000000000000000000000000000002d79883d2000",
          "blockHash": "0xed93e91a977ee2a617340d0f7b1e3c488e85b277ca9f80c6f956895331ec08c8",
          "blockNumber": "0x161994b",
          "blockTimestamp": "0x68a41f63",
          "transactionHash": "0x3a8928dad338c0e58b3b08bbf8e7d8fd02a61f5bd2a7c1659c41444163132962",
          "transactionIndex": "0xa9",
          "logIndex": "0x184",
          "removed": false
        },
        {
          "address": "0x581aa6f8d7498e68e02d4fb6abfa7972c9d86286",
          "topics": [
            "0xbd0a63c12948fbc9194a5839019f99c9d71db924e5c70018265bc778b8f1a506"
          ],
          "data": "0x000000000000000000000000d7d75bd7af01640cb887cad1882fdebd4fb06032",
          "blockHash": "0xed93e91a977ee2a617340d0f7b1e3c488e85b277ca9f80c6f956895331ec08c8",
          "blockNumber": "0x161994b",
          "blockTimestamp": "0x68a41f63",
          "transactionHash": "0x3a8928dad338c0e58b3b08bbf8e7d8fd02a61f5bd2a7c1659c41444163132962",
          "transactionIndex": "0xa9",
          "logIndex": "0x185",
          "removed": false
        },
        {
          "address": "0x581aa6f8d7498e68e02d4fb6abfa7972c9d86286",
          "topics": [
            "0xc7f505b2f371ae2175ee4913f4499e1f2633a7b5936321eed1cdaeb6115181d2"
          ],
          "data": "0x0000000000000000000000000000000000000000000000000000000000000001",
          "blockHash": "0xed93e91a977ee2a617340d0f7b1e3c488e85b277ca9f80c6f956895331ec08c8",
          "blockNumber": "0x161994b",
          "blockTimestamp": "0x68a41f63",
          "transactionHash": "0x3a8928dad338c0e58b3b08bbf8e7d8fd02a61f5bd2a7c1659c41444163132962",
          "transactionIndex": "0xa9",
          "logIndex": "0x186",
          "removed": false
        },
        {
          "address": "0x3a9ecffdbdc595907f65640f810d3ddddde2fa61",
          "topics": [
            "0xfac42f3698c5904e90fb16020492752ee10a041c8365163937481c1ad53000a9",
            "0x000000000000000000000000581aa6f8d7498e68e02d4fb6abfa7972c9d86286",
            "0x00000000000000000000000056e3665038c5f0b56cc7d81ac66c86521274b251"
          ],
          "data": "0x0000000000000000000000000000000000000000000000000000000000000020000000000000000000000000da4aaf85bb924b53dcc2dffa9e1a9c2ef97acfdf000000000000000000000000d7d75bd7af01640cb887cad1882fdebd4fb0603200000000000000000000000012be92a16c984824f067bc892d19895d4d2e7fb90000000000000000000000000000000000000000000000000000000000015180000000000000000000000000a0b86991c6218b36c1d19d4a2e9eb0ce3606eb4800000000000000000000000000000000000000000000000000002d79883d2000000000000000000000000000000000000000000000000000000000000000016000000000000000000000000000000000000000000000000000000000000001a0000000000000000000000000000000000000000000000000000000000000000000000000000000000000000000000000000000000000000000000000000f42400000000000000000000000000000000000000000000000000000000000989680000000000000000000000000000000000000000000000000000000000000001745646765204361706974616c20556c7472615969656c640000000000000000000000000000000000000000000000000000000000000000000000000000000017456467652d4361706974616c2d556c7472615969656c64000000000000000000",
          "blockHash": "0xed93e91a977ee2a617340d0f7b1e3c488e85b277ca9f80c6f956895331ec08c8",
          "blockNumber": "0x161994b",
          "blockTimestamp": "0x68a41f63",
          "transactionHash": "0x3a8928dad338c0e58b3b08bbf8e7d8fd02a61f5bd2a7c1659c41444163132962",
          "transactionIndex": "0xa9",
          "logIndex": "0x187",
          "removed": false
        }
      ],
      "logsBloom": "0x00000002000001000000020000000040000000000000000800880000000201000000000000000000004800000000000000000000000000000000004000000000000800000000202000000008000000000001c00000000000000010100000000000000000020000000800400000010800000000100000000000000000000001420000000000000000000800000040000000000000000080000000000000000000000000000000000000100000000000028000000000000000000000000000000000002000008004000000000000004000000000000004000000000000000020000100000000000000200000002000000000000200000000400000102000000000",
      "type": "0x2",
      "transactionHash": "0x3a8928dad338c0e58b3b08bbf8e7d8fd02a61f5bd2a7c1659c41444163132962",
      "transactionIndex": "0xa9",
      "blockHash": "0xed93e91a977ee2a617340d0f7b1e3c488e85b277ca9f80c6f956895331ec08c8",
      "blockNumber": "0x161994b",
      "gasUsed": "0x5a2b3",
      "effectiveGasPrice": "0x6dd8405",
      "from": "0x56e3665038c5f0b56cc7d81ac66c86521274b251",
      "to": "0x3a9ecffdbdc595907f65640f810d3ddddde2fa61",
      "contractAddress": null
    }
  ],
  "libraries": [],
  "pending": [],
  "returns": {},
  "timestamp": 1755586406,
  "chain": 1,
  "commit": "5e58ae6"
}