{
  "transactions": [
    {
      "hash": "0xf922bf9798b27bb092998a16ad5ad0b5e16ab116813b226a860d298993357672",
      "transactionType": "CALL",
      "contractName": null,
      "contractAddress": "0x3a9ecffdbdc595907f65640f810d3ddddde2fa61",
      "function": "createVault((address,address,address,uint256,address,uint256,string,string,uint64,uint64,uint64),uint256)",
      "arguments": [
        "(0xDA4aAF85Bb924B53DCc2DFFa9e1A9C2Ef97aCFDF, 0xEB4Af6fA3AFA08B10d593EC8fF87efB03BC04645, 0x8cF8AA7805dd315372D5B9899554E5F1C4E35540, 86400, 0xC02aaA39b223FE8D0A0e5C4F27eAD9083C756Cc2, 100000000000000000000000000, Alpha wETH Core, Alpha-wETH-Core, 10000000, 1000000, 10000000)",
        "0"
      ],
      "transaction": {
        "from": "0x56e3665038c5f0b56cc7d81ac66c86521274b251",
        "to": "0x3a9ecffdbdc595907f65640f810d3ddddde2fa61",
        "gas": "0x7a11f",
        "value": "0x0",
        "input": "0x8e49c88400000000000000000000000000000000000000000000000000000000000000400000000000000000000000000000000000000000000000000000000000000000000000000000000000000000da4aaf85bb924b53dcc2dffa9e1a9c2ef97acfdf000000000000000000000000eb4af6fa3afa08b10d593ec8ff87efb03bc046450000000000000000000000008cf8aa7805dd315372d5b9899554e5f1c4e355400000000000000000000000000000000000000000000000000000000000015180000000000000000000000000c02aaa39b223fe8d0a0e5c4f27ead9083c756cc200000000000000000000000000000000000000000052b7d2dcc80cd2e4000000000000000000000000000000000000000000000000000000000000000000016000000000000000000000000000000000000000000000000000000000000001a0000000000000000000000000000000000000000000000000000000000098968000000000000000000000000000000000000000000000000000000000000f42400000000000000000000000000000000000000000000000000000000000989680000000000000000000000000000000000000000000000000000000000000000f416c706861207745544820436f72650000000000000000000000000000000000000000000000000000000000000000000000000000000000000000000000000f416c7068612d774554482d436f72650000000000000000000000000000000000",
        "nonce": "0x412",
        "chainId": "0x1"
      },
      "additionalContracts": [
        {
          "transactionType": "CREATE2",
          "address": "0x09400f3a0b358eb408060f5a3272ed7e3b7664e0",
          "initCode": "0x3d602d80600a3d3981f3363d3d373d3d3d363d731d9d0956621bf85d1d4cafc92d76a0448a5e6b9b5af43d82803e903d91602b57fd5bf3"
        }
      ],
      "isFixedGasLimit": false
    }
  ],
  "receipts": [
    {
      "status": "0x1",
      "cumulativeGasUsed": "0x2337624",
      "logs": [
        {
          "address": "0x09400f3a0b358eb408060f5a3272ed7e3b7664e0",
          "topics": [
            "0x8be0079c531659141344cd1fd0a4f28419497f9722a3daafe3b4186f6b6457e0",
            "0x0000000000000000000000000000000000000000000000000000000000000000",
            "0x000000000000000000000000da4aaf85bb924b53dcc2dffa9e1a9c2ef97acfdf"
          ],
          "data": "0x",
          "blockHash": "0x710d24aed486301765c5c5fc5b19695adbd867fda5fc15dfc7f1e84950543111",
          "blockNumber": "0x16114ff",
          "blockTimestamp": "0x689de48f",
          "transactionHash": "0xf922bf9798b27bb092998a16ad5ad0b5e16ab116813b226a860d298993357672",
          "transactionIndex": "0x24d",
          "logIndex": "0x376",
          "removed": false
        },
        {
          "address": "0x09400f3a0b358eb408060f5a3272ed7e3b7664e0",
          "topics": [
            "0x20affe2401825617c69366f8c3a3493d9822d1021d0b3023c4e77ea5b3d0fbc5",
            "0x0000000000000000000000003a9ecffdbdc595907f65640f810d3ddddde2fa61"
          ],
          "data": "0x0000000000000000000000000000000000000000000000000000000000989680",
          "blockHash": "0x710d24aed486301765c5c5fc5b19695adbd867fda5fc15dfc7f1e84950543111",
          "blockNumber": "0x16114ff",
          "blockTimestamp": "0x689de48f",
          "transactionHash": "0xf922bf9798b27bb092998a16ad5ad0b5e16ab116813b226a860d298993357672",
          "transactionIndex": "0x24d",
          "logIndex": "0x377",
          "removed": false
        },
        {
          "address": "0x09400f3a0b358eb408060f5a3272ed7e3b7664e0",
          "topics": [
            "0xd28e9b90ee9b37c5936ff84392d71f29ff18117d7e76bcee60615262a90a3f75",
            "0x0000000000000000000000003a9ecffdbdc595907f65640f810d3ddddde2fa61"
          ],
          "data": "0x0000000000000000000000000000000000000000000000000000000000015180",
          "blockHash": "0x710d24aed486301765c5c5fc5b19695adbd867fda5fc15dfc7f1e84950543111",
          "blockNumber": "0x16114ff",
          "blockTimestamp": "0x689de48f",
          "transactionHash": "0xf922bf9798b27bb092998a16ad5ad0b5e16ab116813b226a860d298993357672",
          "transactionIndex": "0x24d",
          "logIndex": "0x378",
          "removed": false
        },
        {
          "address": "0x09400f3a0b358eb408060f5a3272ed7e3b7664e0",
          "topics": [
            "0x0cdc8c1df674ca6c4f86f6d47b02a15083c5d3bf098ea38f02c2762bad0afad2",
            "0x0000000000000000000000003a9ecffdbdc595907f65640f810d3ddddde2fa61"
          ],
          "data": "0x00000000000000000000000000000000000000000000000000000000000f4240",
          "blockHash": "0x710d24aed486301765c5c5fc5b19695adbd867fda5fc15dfc7f1e84950543111",
          "blockNumber": "0x16114ff",
          "blockTimestamp": "0x689de48f",
          "transactionHash": "0xf922bf9798b27bb092998a16ad5ad0b5e16ab116813b226a860d298993357672",
          "transactionIndex": "0x24d",
          "logIndex": "0x379",
          "removed": false
        },
        {
          "address": "0x09400f3a0b358eb408060f5a3272ed7e3b7664e0",
          "topics": [
            "0x37df918c2fd5f0501a9fdf1651bcdbad7a05d7b163702a82bbe497ee835ebc47",
            "0x0000000000000000000000003a9ecffdbdc595907f65640f810d3ddddde2fa61"
          ],
          "data": "0x0000000000000000000000000000000000000000000000000000000000989680",
          "blockHash": "0x710d24aed486301765c5c5fc5b19695adbd867fda5fc15dfc7f1e84950543111",
          "blockNumber": "0x16114ff",
          "blockTimestamp": "0x689de48f",
          "transactionHash": "0xf922bf9798b27bb092998a16ad5ad0b5e16ab116813b226a860d298993357672",
          "transactionIndex": "0x24d",
          "logIndex": "0x37a",
          "removed": false
        },
        {
          "address": "0x09400f3a0b358eb408060f5a3272ed7e3b7664e0",
          "topics": [
            "0xcb11cc8aade2f5a556749d1b2380d108a16fac3431e6a5d5ce12ef9de0bd76e3",
            "0x0000000000000000000000003a9ecffdbdc595907f65640f810d3ddddde2fa61"
          ],
          "data": "0x0000000000000000000000008cf8aa7805dd315372d5b9899554e5f1c4e35540",
          "blockHash": "0x710d24aed486301765c5c5fc5b19695adbd867fda5fc15dfc7f1e84950543111",
          "blockNumber": "0x16114ff",
          "blockTimestamp": "0x689de48f",
          "transactionHash": "0xf922bf9798b27bb092998a16ad5ad0b5e16ab116813b226a860d298993357672",
          "transactionIndex": "0x24d",
          "logIndex": "0x37b",
          "removed": false
        },
        {
          "address": "0x09400f3a0b358eb408060f5a3272ed7e3b7664e0",
          "topics": [
            "0x51fa58fd85e72d533eb3933ef4dd0bb83a9614f46e076ffa025b0dcbb8dff315",
            "0x0000000000000000000000003a9ecffdbdc595907f65640f810d3ddddde2fa61"
          ],
          "data": "0x00000000000000000000000000000000000000000052b7d2dcc80cd2e4000000",
          "blockHash": "0x710d24aed486301765c5c5fc5b19695adbd867fda5fc15dfc7f1e84950543111",
          "blockNumber": "0x16114ff",
          "blockTimestamp": "0x689de48f",
          "transactionHash": "0xf922bf9798b27bb092998a16ad5ad0b5e16ab116813b226a860d298993357672",
          "transactionIndex": "0x24d",
          "logIndex": "0x37c",
          "removed": false
        },
        {
          "address": "0x09400f3a0b358eb408060f5a3272ed7e3b7664e0",
          "topics": [
            "0xbd0a63c12948fbc9194a5839019f99c9d71db924e5c70018265bc778b8f1a506"
          ],
          "data": "0x000000000000000000000000eb4af6fa3afa08b10d593ec8ff87efb03bc04645",
          "blockHash": "0x710d24aed486301765c5c5fc5b19695adbd867fda5fc15dfc7f1e84950543111",
          "blockNumber": "0x16114ff",
          "blockTimestamp": "0x689de48f",
          "transactionHash": "0xf922bf9798b27bb092998a16ad5ad0b5e16ab116813b226a860d298993357672",
          "transactionIndex": "0x24d",
          "logIndex": "0x37d",
          "removed": false
        },
        {
          "address": "0x09400f3a0b358eb408060f5a3272ed7e3b7664e0",
          "topics": [
            "0xc7f505b2f371ae2175ee4913f4499e1f2633a7b5936321eed1cdaeb6115181d2"
          ],
          "data": "0x0000000000000000000000000000000000000000000000000000000000000001",
          "blockHash": "0x710d24aed486301765c5c5fc5b19695adbd867fda5fc15dfc7f1e84950543111",
          "blockNumber": "0x16114ff",
          "blockTimestamp": "0x689de48f",
          "transactionHash": "0xf922bf9798b27bb092998a16ad5ad0b5e16ab116813b226a860d298993357672",
          "transactionIndex": "0x24d",
          "logIndex": "0x37e",
          "removed": false
        },
        {
          "address": "0x3a9ecffdbdc595907f65640f810d3ddddde2fa61",
          "topics": [
            "0xfac42f3698c5904e90fb16020492752ee10a041c8365163937481c1ad53000a9",
            "0x00000000000000000000000009400f3a0b358eb408060f5a3272ed7e3b7664e0",
            "0x00000000000000000000000056e3665038c5f0b56cc7d81ac66c86521274b251"
          ],
          "data": "0x0000000000000000000000000000000000000000000000000000000000000020000000000000000000000000da4aaf85bb924b53dcc2dffa9e1a9c2ef97acfdf000000000000000000000000eb4af6fa3afa08b10d593ec8ff87efb03bc046450000000000000000000000008cf8aa7805dd315372d5b9899554e5f1c4e355400000000000000000000000000000000000000000000000000000000000015180000000000000000000000000c02aaa39b223fe8d0a0e5c4f27ead9083c756cc200000000000000000000000000000000000000000052b7d2dcc80cd2e4000000000000000000000000000000000000000000000000000000000000000000016000000000000000000000000000000000000000000000000000000000000001a0000000000000000000000000000000000000000000000000000000000098968000000000000000000000000000000000000000000000000000000000000f42400000000000000000000000000000000000000000000000000000000000989680000000000000000000000000000000000000000000000000000000000000000f416c706861207745544820436f72650000000000000000000000000000000000000000000000000000000000000000000000000000000000000000000000000f416c7068612d774554482d436f72650000000000000000000000000000000000",
          "blockHash": "0x710d24aed486301765c5c5fc5b19695adbd867fda5fc15dfc7f1e84950543111",
          "blockNumber": "0x16114ff",
          "blockTimestamp": "0x689de48f",
          "transactionHash": "0xf922bf9798b27bb092998a16ad5ad0b5e16ab116813b226a860d298993357672",
          "transactionIndex": "0x24d",
          "logIndex": "0x37f",
          "removed": false
        }
      ],
      "logsBloom": "0x00000002000000000000000000000040000000000000000800880000000201000000000002000000004800000000000000000000000000000000004000000000000800000000202000000008000000000001800000000000000000100000000000000000020000000800400000010800000000000000000000000000000001420000000000000000000800000040000000000000000080000000000000000002000000000000000000000000000000028000000000000000000000100000000000002000008004000000000000004000000000000004000000000000000030400100004000000000200000002000000000000200000000400000102000000000",
      "type": "0x2",
      "transactionHash": "0xf922bf9798b27bb092998a16ad5ad0b5e16ab116813b226a860d298993357672",
      "transactionIndex": "0x24d",
      "blockHash": "0x710d24aed486301765c5c5fc5b19695adbd867fda5fc15dfc7f1e84950543111",
      "blockNumber": "0x16114ff",
      "gasUsed": "0x58607",
      "effectiveGasPrice": "0x1e2dc4644",
      "from": "0x56e3665038c5f0b56cc7d81ac66c86521274b251",
      "to": "0x3a9ecffdbdc595907f65640f810d3ddddde2fa61",
      "contractAddress": null
    }
  ],
  "libraries": [],
  "pending": [],
  "returns": {},
  "timestamp": 1755178130,
  "chain": 1,
  "commit": "9e12e35"
}