{
  "transactions": [
    {
      "hash": "0xecd507e70e5b3516ddde5eb7808a1c9775089a6fab3c0c92d76b0f39f104fcc1",
      "transactionType": "CALL",
      "contractName": null,
      "contractAddress": "0xb5c4d0d140a333fa0dadaa7b1ef26b10bb1fd194",
      "function": "createVault((address,address,uint256,address,uint256,string,string,uint64),uint256)",
      "arguments": [
        "(0x0709F8B7BdEA284C7352A5b12505f3d70BF9C21b, 0x2A58A3D405c527491Daae4C62561B949e7F87EFE, 1, 0xE7e6EA2B6A1D7E7d80727290a86CCC9FE5fbe0C1, 50000000000000, TermMax USDC Vault, TMX-USDC, 10000000)",
        "0"
      ],
      "transaction": {
        "from": "0xe355d5d8aa52ef0fbbd037c4a3c5e6fd659cf46b",
        "to": "0xb5c4d0d140a333fa0dadaa7b1ef26b10bb1fd194",
        "gas": "0x67fe9",
        "value": "0x0",
        "input": "0x7e790995000000000000000000000000000000000000000000000000000000000000004000000000000000000000000000000000000000000000000000000000000000000000000000000000000000000709f8b7bdea284c7352a5b12505f3d70bf9c21b0000000000000000000000002a58a3d405c527491daae4c62561b949e7f87efe0000000000000000000000000000000000000000000000000000000000000001000000000000000000000000e7e6ea2b6a1d7e7d80727290a86ccc9fe5fbe0c100000000000000000000000000000000000000000000000000002d79883d200000000000000000000000000000000000000000000000000000000000000001000000000000000000000000000000000000000000000000000000000000000140000000000000000000000000000000000000000000000000000000000098968000000000000000000000000000000000000000000000000000000000000000125465726d4d61782055534443205661756c7400000000000000000000000000000000000000000000000000000000000000000000000000000000000000000008544d582d55534443000000000000000000000000000000000000000000000000",
        "nonce": "0xc9a",
        "chainId": "0x66eee"
      },
      "additionalContracts": [
        {
          "transactionType": "CREATE2",
          "address": "0x318e0c4360879d4d98beda7b6401732bf945931b",
          "initCode": "0x3d602d80600a3d3981f3363d3d373d3d3d363d73cf97704867637a8113575fb38006cb4fa7e048775af43d82803e903d91602b57fd5bf3"
        }
      ],
      "isFixedGasLimit": false
    },
    {
      "hash": "0xc5df0a1108b49ec9409320c4c8a3ca76ab34ea0dba207e7e51dcf1df291838b2",
      "transactionType": "CALL",
      "contractName": "ERC1967Proxy",
      "contractAddress": "0x0709f8b7bdea284c7352a5b12505f3d70bf9c21b",
      "function": null,
      "arguments": null,
      "transaction": {
        "from": "0xe355d5d8aa52ef0fbbd037c4a3c5e6fd659cf46b",
        "to": "0x0709f8b7bdea284c7352a5b12505f3d70bf9c21b",
        "gas": "0x15e44",
        "value": "0x0",
        "input": "0xd240ef4b000000000000000000000000318e0c4360879d4d98beda7b6401732bf945931b0000000000000000000000002a58a3d405c527491daae4c62561b949e7f87efe",
        "nonce": "0xc9b",
        "chainId": "0x66eee"
      },
      "additionalContracts": [],
      "isFixedGasLimit": false
    },
    {
      "hash": "0xb5262ab08b3fb391bc71197ccf7668aceb4b004d6c1178f443db1266511a705e",
      "transactionType": "CALL",
      "contractName": "ERC1967Proxy",
      "contractAddress": "0x0709f8b7bdea284c7352a5b12505f3d70bf9c21b",
      "function": null,
      "arguments": null,
      "transaction": {
        "from": "0xe355d5d8aa52ef0fbbd037c4a3c5e6fd659cf46b",
        "to": "0x0709f8b7bdea284c7352a5b12505f3d70bf9c21b",
        "gas": "0x151f5",
        "value": "0x0",
        "input": "0x0f1e44f3000000000000000000000000318e0c4360879d4d98beda7b6401732bf945931b0000000000000000000000002a58a3d405c527491daae4c62561b949e7f87efe0000000000000000000000000000000000000000000000000000000000000001",
        "nonce": "0xc9c",
        "chainId": "0x66eee"
      },
      "additionalContracts": [],
      "isFixedGasLimit": false
    }
  ],
  "receipts": [
    {
      "status": "0x1",
      "cumulativeGasUsed": "0x4e2aa",
      "logs": [
        {
          "address": "0x318e0c4360879d4d98beda7b6401732bf945931b",
          "topics": [
            "0x8be0079c531659141344cd1fd0a4f28419497f9722a3daafe3b4186f6b6457e0",
            "0x0000000000000000000000000000000000000000000000000000000000000000",
            "0x0000000000000000000000000709f8b7bdea284c7352a5b12505f3d70bf9c21b"
          ],
          "data": "0x",
          "blockHash": "0x6e3d3b721a9701ca15cece6e9ee3629e3761a6367bb90666a632fd29a1fa3d78",
          "blockNumber": "0xa238bb1",
          "transactionHash": "0xecd507e70e5b3516ddde5eb7808a1c9775089a6fab3c0c92d76b0f39f104fcc1",
          "transactionIndex": "0x1",
          "logIndex": "0x0",
          "removed": false
        },
        {
          "address": "0x318e0c4360879d4d98beda7b6401732bf945931b",
          "topics": [
            "0xc7f505b2f371ae2175ee4913f4499e1f2633a7b5936321eed1cdaeb6115181d2"
          ],
          "data": "0x0000000000000000000000000000000000000000000000000000000000000001",
          "blockHash": "0x6e3d3b721a9701ca15cece6e9ee3629e3761a6367bb90666a632fd29a1fa3d78",
          "blockNumber": "0xa238bb1",
          "transactionHash": "0xecd507e70e5b3516ddde5eb7808a1c9775089a6fab3c0c92d76b0f39f104fcc1",
          "transactionIndex": "0x1",
          "logIndex": "0x1",
          "removed": false
        },
        {
          "address": "0xb5c4d0d140a333fa0dadaa7b1ef26b10bb1fd194",
          "topics": [
            "0x8d49b14f2b628cc0c1a7ad5e098155260cd1881003c9d3107c728be96f706b33",
            "0x000000000000000000000000318e0c4360879d4d98beda7b6401732bf945931b",
            "0x000000000000000000000000e355d5d8aa52ef0fbbd037c4a3c5e6fd659cf46b",
            "0xc39816801f0b27f3975312aeee6b5f636a7eff1d87c227595c9d7dfee974af10"
          ],
          "data": "0x",
          "blockHash": "0x6e3d3b721a9701ca15cece6e9ee3629e3761a6367bb90666a632fd29a1fa3d78",
          "blockNumber": "0xa238bb1",
          "transactionHash": "0xecd507e70e5b3516ddde5eb7808a1c9775089a6fab3c0c92d76b0f39f104fcc1",
          "transactionIndex": "0x1",
          "logIndex": "0x2",
          "removed": false
        }
      ],
      "logsBloom": "0x00000000000000000000000000000000800000000000000000880000000000000000400000800000000000000000000000001000800000000000000000000000000000000000000000000000000000000001000000100000801000000800000000000000020000004000000000000800000000000000000000000000000000400000000000000000000800100000000200000000000080000000000200000000000000000000000000000000000000000000000000000000000000000000000000000000000000000002000000000000000000000004000000000000300020000000000004000020000000000000000000000000000000020000000000004000",
      "type": "0x2",
      "transactionHash": "0xecd507e70e5b3516ddde5eb7808a1c9775089a6fab3c0c92d76b0f39f104fcc1",
      "transactionIndex": "0x1",
      "blockHash": "0x6e3d3b721a9701ca15cece6e9ee3629e3761a6367bb90666a632fd29a1fa3d78",
      "blockNumber": "0xa238bb1",
      "gasUsed": "0x4e2aa",
      "effectiveGasPrice": "0x5f5e100",
      "from": "0xe355d5d8aa52ef0fbbd037c4a3c5e6fd659cf46b",
      "to": "0xb5c4d0d140a333fa0dadaa7b1ef26b10bb1fd194",
      "contractAddress": null,
      "gasUsedForL1": "0x1a1",
      "l1BlockNumber": "0x8497dd",
      "timeboosted": false
    },
    {
      "status": "0x1",
      "cumulativeGasUsed": "0x6c5a5",
      "logs": [
        {
          "address": "0x318e0c4360879d4d98beda7b6401732bf945931b",
          "topics": [
            "0xcb11cc8aade2f5a556749d1b2380d108a16fac3431e6a5d5ce12ef9de0bd76e3",
            "0x0000000000000000000000000709f8b7bdea284c7352a5b12505f3d70bf9c21b"
          ],
          "data": "0x0000000000000000000000002a58a3d405c527491daae4c62561b949e7f87efe",
          "blockHash": "0xa30ee3566206e1ff2c2b7a31797843d865024c776932fc95d7e3ade884225173",
          "blockNumber": "0xa238bb9",
          "transactionHash": "0xc5df0a1108b49ec9409320c4c8a3ca76ab34ea0dba207e7e51dcf1df291838b2",
          "transactionIndex": "0x3",
          "logIndex": "0x11",
          "removed": false
        }
      ],
      "logsBloom": "0x00000000000000000000000000000040800000000000000000000000000200000000000000000000000800000000000000001000000000000000000000000000000000000000000000000000000000000000000000100000001000000800000000000000000000000000000000000000000000000000000000000000000000000000000000000000000000000000000000000000000000000000000000000000000000000000000000000000000000000000000000000000000000000000000000000000000000000002000000000000000000000000000000000000000000000000000000000000000000000000000000000000000000000000000000000000",
      "type": "0x2",
      "transactionHash": "0xc5df0a1108b49ec9409320c4c8a3ca76ab34ea0dba207e7e51dcf1df291838b2",
      "transactionIndex": "0x3",
      "blockHash": "0xa30ee3566206e1ff2c2b7a31797843d865024c776932fc95d7e3ade884225173",
      "blockNumber": "0xa238bb9",
      "gasUsed": "0xfe66",
      "effectiveGasPrice": "0x5f5e100",
      "from": "0xe355d5d8aa52ef0fbbd037c4a3c5e6fd659cf46b",
      "to": "0x0709f8b7bdea284c7352a5b12505f3d70bf9c21b",
      "contractAddress": null,
      "gasUsedForL1": "0xcf",
      "l1BlockNumber": "0x8497dd",
      "timeboosted": false
    },
    {
      "status": "0x1",
      "cumulativeGasUsed": "0x3728d",
      "logs": [
        {
          "address": "0x318e0c4360879d4d98beda7b6401732bf945931b",
          "topics": [
            "0x74dc60cbc81a9472d04ad1d20e151d369c41104d655ed3f2f3091166a502cd8d",
            "0x0000000000000000000000002a58a3d405c527491daae4c62561b949e7f87efe"
          ],
          "data": "0x0000000000000000000000000000000000000000000000000000000000000001",
          "blockHash": "0x6cd75d1eb026bc18ecad3a23f93e54b5c8ffaf49739024fa37511f6bb6e628b0",
          "blockNumber": "0xa238bc1",
          "transactionHash": "0xb5262ab08b3fb391bc71197ccf7668aceb4b004d6c1178f443db1266511a705e",
          "transactionIndex": "0x3",
          "logIndex": "0x5",
          "removed": false
        }
      ],
      "logsBloom": "0x00000000000000000000000000000000000000000000000000000000000000000000000000040000000000000000000000001000000000000000000000000000000000000000000000000000000000000000000000100000001000000000000000000200040000000000000000000000000000000000800000000000000000000000000000000000000000000000000000000000000000000000000000000000000000000000000000000000000000000000000000000000000000000000000000000000000000000000000000000000000000000000000000000000000000000000000000000001000000000000000000000000000800000000000000000000",
      "type": "0x2",
      "transactionHash": "0xb5262ab08b3fb391bc71197ccf7668aceb4b004d6c1178f443db1266511a705e",
      "transactionIndex": "0x3",
      "blockHash": "0x6cd75d1eb026bc18ecad3a23f93e54b5c8ffaf49739024fa37511f6bb6e628b0",
      "blockNumber": "0xa238bc1",
      "gasUsed": "0xf5a1",
      "effectiveGasPrice": "0x5f5e100",
      "from": "0xe355d5d8aa52ef0fbbd037c4a3c5e6fd659cf46b",
      "to": "0x0709f8b7bdea284c7352a5b12505f3d70bf9c21b",
      "contractAddress": null,
      "gasUsedForL1": "0xf3",
      "l1BlockNumber": "0x8497dd",
      "timeboosted": false
    }
  ],
  "libraries": [],
  "pending": [],
  "returns": {},
  "timestamp": 1751622346,
  "chain": 421614,
  "commit": "80b1348"
}