{
  "transactions": [
    {
      "hash": "0xe3bee6f60867baea8367c0eda7250fde14b81689d838879d30b08ad46be3fbdb",
      "transactionType": "CALL",
      "contractName": null,
      "contractAddress": "0xaed8649c449157f6d99cefa1a99ce40bc3e2500f",
      "function": "createVault((address,address,address,uint256,address,uint256,string,string,uint64,uint64,uint64),uint256)",
      "arguments": [
        "(0x9498764f0c62257B83A04e2A757De30908EC793d, 0x5eC5CB94D271E59f5dfF5A574851ba84Ee713f3D, 0xaAC1EDD499Dc45388dBb43aAA1663A70D43746F3, 60, 0x55d398326f99059fF775485246999027B3197955, 1000000000000, BNB V1Plus Vault test, BNB-V1Plus-Vault-test, 20000000, 1000000, 10000000)",
        "0"
      ],
      "transaction": {
        "from": "0x56e3665038c5f0b56cc7d81ac66c86521274b251",
        "to": "0xaed8649c449157f6d99cefa1a99ce40bc3e2500f",
        "gas": "0x7a168",
        "value": "0x0",
        "input": "0x8e49c884000000000000000000000000000000000000000000000000000000000000004000000000000000000000000000000000000000000000000000000000000000000000000000000000000000009498764f0c62257b83a04e2a757de30908ec793d0000000000000000000000005ec5cb94d271e59f5dff5a574851ba84ee713f3d000000000000000000000000aac1edd499dc45388dbb43aaa1663a70d43746f3000000000000000000000000000000000000000000000000000000000000003c00000000000000000000000055d398326f99059ff775485246999027b3197955000000000000000000000000000000000000000000000000000000e8d4a51000000000000000000000000000000000000000000000000000000000000000016000000000000000000000000000000000000000000000000000000000000001a00000000000000000000000000000000000000000000000000000000001312d0000000000000000000000000000000000000000000000000000000000000f424000000000000000000000000000000000000000000000000000000000009896800000000000000000000000000000000000000000000000000000000000000015424e42205631506c7573205661756c74207465737400000000000000000000000000000000000000000000000000000000000000000000000000000000000015424e422d5631506c75732d5661756c742d746573740000000000000000000000",
        "nonce": "0xc2",
        "chainId": "0x38"
      },
      "additionalContracts": [
        {
          "transactionType": "CREATE2",
          "address": "0xf9e8d54dc938111d1693ae96872cdef138ba74b4",
          "initCode": "0x3d602d80600a3d3981f3363d3d373d3d3d363d73996bbfc49bc9e59b4a5ce6b3215cce860e1349785af43d82803e903d91602b57fd5bf3"
        }
      ],
      "isFixedGasLimit": false
    }
  ],
  "receipts": [
    {
      "status": "0x1",
      "cumulativeGasUsed": "0x9e28ee",
      "logs": [
        {
          "address": "0xf9e8d54dc938111d1693ae96872cdef138ba74b4",
          "topics": [
            "0x8be0079c531659141344cd1fd0a4f28419497f9722a3daafe3b4186f6b6457e0",
            "0x0000000000000000000000000000000000000000000000000000000000000000",
            "0x0000000000000000000000009498764f0c62257b83a04e2a757de30908ec793d"
          ],
          "data": "0x",
          "blockHash": "0x14c753f88000f8f6213cb7b50d2c02868cc93c9ec0c7e3fba56e32c35c117b2a",
          "blockNumber": "0x3642bf5",
          "transactionHash": "0xe3bee6f60867baea8367c0eda7250fde14b81689d838879d30b08ad46be3fbdb",
          "transactionIndex": "0x4a",
          "logIndex": "0x11c",
          "removed": false
        },
        {
          "address": "0xf9e8d54dc938111d1693ae96872cdef138ba74b4",
          "topics": [
            "0x20affe2401825617c69366f8c3a3493d9822d1021d0b3023c4e77ea5b3d0fbc5",
            "0x000000000000000000000000aed8649c449157f6d99cefa1a99ce40bc3e2500f"
          ],
          "data": "0x0000000000000000000000000000000000000000000000000000000001312d00",
          "blockHash": "0x14c753f88000f8f6213cb7b50d2c02868cc93c9ec0c7e3fba56e32c35c117b2a",
          "blockNumber": "0x3642bf5",
          "transactionHash": "0xe3bee6f60867baea8367c0eda7250fde14b81689d838879d30b08ad46be3fbdb",
          "transactionIndex": "0x4a",
          "logIndex": "0x11d",
          "removed": false
        },
        {
          "address": "0xf9e8d54dc938111d1693ae96872cdef138ba74b4",
          "topics": [
            "0xd28e9b90ee9b37c5936ff84392d71f29ff18117d7e76bcee60615262a90a3f75",
            "0x000000000000000000000000aed8649c449157f6d99cefa1a99ce40bc3e2500f"
          ],
          "data": "0x000000000000000000000000000000000000000000000000000000000000003c",
          "blockHash": "0x14c753f88000f8f6213cb7b50d2c02868cc93c9ec0c7e3fba56e32c35c117b2a",
          "blockNumber": "0x3642bf5",
          "transactionHash": "0xe3bee6f60867baea8367c0eda7250fde14b81689d838879d30b08ad46be3fbdb",
          "transactionIndex": "0x4a",
          "logIndex": "0x11e",
          "removed": false
        },
        {
          "address": "0xf9e8d54dc938111d1693ae96872cdef138ba74b4",
          "topics": [
            "0x0cdc8c1df674ca6c4f86f6d47b02a15083c5d3bf098ea38f02c2762bad0afad2",
            "0x000000000000000000000000aed8649c449157f6d99cefa1a99ce40bc3e2500f"
          ],
          "data": "0x00000000000000000000000000000000000000000000000000000000000f4240",
          "blockHash": "0x14c753f88000f8f6213cb7b50d2c02868cc93c9ec0c7e3fba56e32c35c117b2a",
          "blockNumber": "0x3642bf5",
          "transactionHash": "0xe3bee6f60867baea8367c0eda7250fde14b81689d838879d30b08ad46be3fbdb",
          "transactionIndex": "0x4a",
          "logIndex": "0x11f",
          "removed": false
        },
        {
          "address": "0xf9e8d54dc938111d1693ae96872cdef138ba74b4",
          "topics": [
            "0x37df918c2fd5f0501a9fdf1651bcdbad7a05d7b163702a82bbe497ee835ebc47",
            "0x000000000000000000000000aed8649c449157f6d99cefa1a99ce40bc3e2500f"
          ],
          "data": "0x0000000000000000000000000000000000000000000000000000000000989680",
          "blockHash": "0x14c753f88000f8f6213cb7b50d2c02868cc93c9ec0c7e3fba56e32c35c117b2a",
          "blockNumber": "0x3642bf5",
          "transactionHash": "0xe3bee6f60867baea8367c0eda7250fde14b81689d838879d30b08ad46be3fbdb",
          "transactionIndex": "0x4a",
          "logIndex": "0x120",
          "removed": false
        },
        {
          "address": "0xf9e8d54dc938111d1693ae96872cdef138ba74b4",
          "topics": [
            "0xcb11cc8aade2f5a556749d1b2380d108a16fac3431e6a5d5ce12ef9de0bd76e3",
            "0x000000000000000000000000aed8649c449157f6d99cefa1a99ce40bc3e2500f"
          ],
          "data": "0x000000000000000000000000aac1edd499dc45388dbb43aaa1663a70d43746f3",
          "blockHash": "0x14c753f88000f8f6213cb7b50d2c02868cc93c9ec0c7e3fba56e32c35c117b2a",
          "blockNumber": "0x3642bf5",
          "transactionHash": "0xe3bee6f60867baea8367c0eda7250fde14b81689d838879d30b08ad46be3fbdb",
          "transactionIndex": "0x4a",
          "logIndex": "0x121",
          "removed": false
        },
        {
          "address": "0xf9e8d54dc938111d1693ae96872cdef138ba74b4",
          "topics": [
            "0x51fa58fd85e72d533eb3933ef4dd0bb83a9614f46e076ffa025b0dcbb8dff315",
            "0x000000000000000000000000aed8649c449157f6d99cefa1a99ce40bc3e2500f"
          ],
          "data": "0x000000000000000000000000000000000000000000000000000000e8d4a51000",
          "blockHash": "0x14c753f88000f8f6213cb7b50d2c02868cc93c9ec0c7e3fba56e32c35c117b2a",
          "blockNumber": "0x3642bf5",
          "transactionHash": "0xe3bee6f60867baea8367c0eda7250fde14b81689d838879d30b08ad46be3fbdb",
          "transactionIndex": "0x4a",
          "logIndex": "0x122",
          "removed": false
        },
        {
          "address": "0xf9e8d54dc938111d1693ae96872cdef138ba74b4",
          "topics": [
            "0xbd0a63c12948fbc9194a5839019f99c9d71db924e5c70018265bc778b8f1a506"
          ],
          "data": "0x0000000000000000000000005ec5cb94d271e59f5dff5a574851ba84ee713f3d",
          "blockHash": "0x14c753f88000f8f6213cb7b50d2c02868cc93c9ec0c7e3fba56e32c35c117b2a",
          "blockNumber": "0x3642bf5",
          "transactionHash": "0xe3bee6f60867baea8367c0eda7250fde14b81689d838879d30b08ad46be3fbdb",
          "transactionIndex": "0x4a",
          "logIndex": "0x123",
          "removed": false
        },
        {
          "address": "0xf9e8d54dc938111d1693ae96872cdef138ba74b4",
          "topics": [
            "0xc7f505b2f371ae2175ee4913f4499e1f2633a7b5936321eed1cdaeb6115181d2"
          ],
          "data": "0x0000000000000000000000000000000000000000000000000000000000000001",
          "blockHash": "0x14c753f88000f8f6213cb7b50d2c02868cc93c9ec0c7e3fba56e32c35c117b2a",
          "blockNumber": "0x3642bf5",
          "transactionHash": "0xe3bee6f60867baea8367c0eda7250fde14b81689d838879d30b08ad46be3fbdb",
          "transactionIndex": "0x4a",
          "logIndex": "0x124",
          "removed": false
        },
        {
          "address": "0xaed8649c449157f6d99cefa1a99ce40bc3e2500f",
          "topics": [
            "0xfac42f3698c5904e90fb16020492752ee10a041c8365163937481c1ad53000a9",
            "0x000000000000000000000000f9e8d54dc938111d1693ae96872cdef138ba74b4",
            "0x00000000000000000000000056e3665038c5f0b56cc7d81ac66c86521274b251"
          ],
          "data": "0x00000000000000000000000000000000000000000000000000000000000000200000000000000000000000009498764f0c62257b83a04e2a757de30908ec793d0000000000000000000000005ec5cb94d271e59f5dff5a574851ba84ee713f3d000000000000000000000000aac1edd499dc45388dbb43aaa1663a70d43746f3000000000000000000000000000000000000000000000000000000000000003c00000000000000000000000055d398326f99059ff775485246999027b3197955000000000000000000000000000000000000000000000000000000e8d4a51000000000000000000000000000000000000000000000000000000000000000016000000000000000000000000000000000000000000000000000000000000001a00000000000000000000000000000000000000000000000000000000001312d0000000000000000000000000000000000000000000000000000000000000f424000000000000000000000000000000000000000000000000000000000009896800000000000000000000000000000000000000000000000000000000000000015424e42205631506c7573205661756c74207465737400000000000000000000000000000000000000000000000000000000000000000000000000000000000015424e422d5631506c75732d5661756c742d746573740000000000000000000000",
          "blockHash": "0x14c753f88000f8f6213cb7b50d2c02868cc93c9ec0c7e3fba56e32c35c117b2a",
          "blockNumber": "0x3642bf5",
          "transactionHash": "0xe3bee6f60867baea8367c0eda7250fde14b81689d838879d30b08ad46be3fbdb",
          "transactionIndex": "0x4a",
          "logIndex": "0x125",
          "removed": false
        }
      ],
      "logsBloom": "0x0000000200000000000000000000014040000000000000080088000000030000000000000000000000480000000000000000000000000000000000000000000000080000000020000000000c000080000001800400000000000000000041000000000000020000000000400000010800080000002004000000000000000001420000000000000000000800000040000000000000000080000000000000000000000000000000000000000000000000028000040000400000000000000000000000002000000104000000000000004000000000000004000020000000000020000100000000000000000000002000000000000200000000400000100000000000",
      "type": "0x2",
      "transactionHash": "0xe3bee6f60867baea8367c0eda7250fde14b81689d838879d30b08ad46be3fbdb",
      "transactionIndex": "0x4a",
      "blockHash": "0x14c753f88000f8f6213cb7b50d2c02868cc93c9ec0c7e3fba56e32c35c117b2a",
      "blockNumber": "0x3642bf5",
      "gasUsed": "0x5863c",
      "effectiveGasPrice": "0x5f5e100",
      "from": "0x56e3665038c5f0b56cc7d81ac66c86521274b251",
      "to": "0xaed8649c449157f6d99cefa1a99ce40bc3e2500f",
      "contractAddress": null
    }
  ],
  "libraries": [],
  "pending": [],
  "returns": {},
  "timestamp": 1754670445,
  "chain": 56,
  "commit": "b880c60"
}