{
  "transactions": [
    {
      "hash": "0x257e95646e177577e4ff0c22fba80ab37cba8650d32d9fd02c16fef74c845064",
      "transactionType": "CALL",
      "contractName": "Faucet",
      "contractAddress": "0xe877cb4bd6f5f10b3c207f7b691e4275a2a398bc",
      "function": "addToken(string,string,uint8)",
      "arguments": [
        "PT Resolv Liquidity Provider Token 4DEC2025",
        "PT-RLP-4DEC2025",
        "18"
      ],
      "transaction": {
        "from": "0xe355d5d8aa52ef0fbbd037c4a3c5e6fd659cf46b",
        "to": "0xe877cb4bd6f5f10b3c207f7b691e4275a2a398bc",
        "gas": "0x132e73",
        "value": "0x0",
        "input": "0xf3bdd863000000000000000000000000000000000000000000000000000000000000006000000000000000000000000000000000000000000000000000000000000000c00000000000000000000000000000000000000000000000000000000000000012000000000000000000000000000000000000000000000000000000000000002b5054205265736f6c76204c69717569646974792050726f766964657220546f6b656e203444454332303235000000000000000000000000000000000000000000000000000000000000000000000000000000000000000000000000000000000f50542d524c502d34444543323032350000000000000000000000000000000000",
        "nonce": "0xd29",
        "chainId": "0x66eee"
      },
      "additionalContracts": [
        {
          "transactionType": "CREATE",
          "address": "0x63d6c1d63fd504016206613e3491d2465de4cc3c",
          "initCode": "0x60a0604052346103a757610c3680380380610019816103ab565b9283398101906080818303126103a75780516001600160a01b038116908190036103a75760208201516001600160401b0381116103a7578361005c9184016103d0565b60408301519093906001600160401b0381116103a7576060916100809185016103d0565b92015160ff811681036103a75783516001600160401b0381116102b857600354600181811c9116801561039d575b602082101461029a57601f811161033a575b50602094601f82116001146102d7579481929394955f926102cc575b50508160011b915f199060031b1c1916176003555b82516001600160401b0381116102b857600454600181811c911680156102ae575b602082101461029a57601f8111610237575b506020601f82116001146101d457819293945f926101c9575b50508160011b915f199060031b1c1916176004555b81156101b657600580546001600160a01b03198116841790915560405192906001600160a01b03167f8be0079c531659141344cd1fd0a4f28419497f9722a3daafe3b4186f6b6457e05f80a360805261081490816104228239608051816104460152f35b631e4fbdf760e01b5f525f60045260245ffd5b015190505f8061013d565b601f1982169060045f52805f20915f5b81811061021f57509583600195969710610207575b505050811b01600455610152565b01515f1960f88460031b161c191690555f80806101f9565b9192602060018192868b0151815501940192016101e4565b60045f527f8a35acfbc15ff81a39ae7d344fd709f28e8600b4aa8c65c6b64bfe7fe36bd19b601f830160051c81019160208410610290575b601f0160051c01905b8181106102855750610124565b5f8155600101610278565b909150819061026f565b634e487b7160e01b5f52602260045260245ffd5b90607f1690610112565b634e487b7160e01b5f52604160045260245ffd5b015190505f806100dc565b601f1982169560035f52805f20915f5b8881106103225750836001959697981061030a575b505050811b016003556100f1565b01515f1960f88460031b161c191690555f80806102fc565b919260206001819286850151815501940192016102e7565b60035f527fc2575a0e9e593c00f959f8c92f12db2869c3395a3b0502d05e2516446f71f85b601f830160051c81019160208410610393575b601f0160051c01905b81811061038857506100c0565b5f815560010161037b565b9091508190610372565b90607f16906100ae565b5f80fd5b6040519190601f01601f191682016001600160401b038111838210176102b857604052565b81601f820112156103a7578051906001600160401b0382116102b8576103ff601f8301601f19166020016103ab565b92828452602083830101116103a757815f9260208093018386015e830101529056fe6080806040526004361015610012575f80fd5b5f3560e01c90816306fdde03146105e857508063095ea7b31461056657806318160ddd1461054957806323b872dd1461046a578063313ce5671461042d57806340c10f191461038b57806370a0823114610354578063715018a6146102f95780638da5cb5b146102d157806395d89b41146101b6578063a9059cbb14610185578063dd62ed3e146101355763f2fde38b146100ab575f80fd5b34610131576020366003190112610131576100c46106e1565b6100cc6107b7565b6001600160a01b0316801561011e57600580546001600160a01b0319811683179091556001600160a01b03167f8be0079c531659141344cd1fd0a4f28419497f9722a3daafe3b4186f6b6457e05f80a3005b631e4fbdf760e01b5f525f60045260245ffd5b5f80fd5b346101315760403660031901126101315761014e6106e1565b6101566106f7565b6001600160a01b039182165f908152600160209081526040808320949093168252928352819020549051908152f35b34610131576040366003190112610131576101ab6101a16106e1565b602435903361070d565b602060405160018152f35b34610131575f366003190112610131576040515f6004548060011c906001811680156102c7575b6020831081146102b3578285529081156102975750600114610242575b50819003601f01601f191681019067ffffffffffffffff82118183101761022e5761022a829182604052826106b7565b0390f35b634e487b7160e01b5f52604160045260245ffd5b905060045f527f8a35acfbc15ff81a39ae7d344fd709f28e8600b4aa8c65c6b64bfe7fe36bd19b5f905b828210610281575060209150820101826101fa565b600181602092548385880101520191019061026c565b90506020925060ff191682840152151560051b820101826101fa565b634e487b7160e01b5f52602260045260245ffd5b91607f16916101dd565b34610131575f366003190112610131576005546040516001600160a01b039091168152602090f35b34610131575f366003190112610131576103116107b7565b600580546001600160a01b031981169091555f906001600160a01b03167f8be0079c531659141344cd1fd0a4f28419497f9722a3daafe3b4186f6b6457e08280a3005b34610131576020366003190112610131576001600160a01b036103756106e1565b165f525f602052602060405f2054604051908152f35b34610131576040366003190112610131576103a46106e1565b6001600160a01b0316602435811561041a57600254908082018092116104065760207fddf252ad1be2c89b69c2b068fc378daa952ba7f163c4a11628f55a4df523b3ef915f9360025584845283825260408420818154019055604051908152a3005b634e487b7160e01b5f52601160045260245ffd5b63ec442f0560e01b5f525f60045260245ffd5b34610131575f36600319011261013157602060405160ff7f0000000000000000000000000000000000000000000000000000000000000000168152f35b34610131576060366003190112610131576104836106e1565b61048b6106f7565b6001600160a01b0382165f818152600160209081526040808320338452909152902054909260443592915f1981106104c9575b506101ab935061070d565b83811061052e57841561051b573315610508576101ab945f52600160205260405f2060018060a01b0333165f526020528360405f2091039055846104be565b634a1406b160e11b5f525f60045260245ffd5b63e602df0560e01b5f525f60045260245ffd5b8390637dc7a0d960e11b5f523360045260245260445260645ffd5b34610131575f366003190112610131576020600254604051908152f35b346101315760403660031901126101315761057f6106e1565b60243590331561051b576001600160a01b031690811561050857335f52600160205260405f20825f526020528060405f20556040519081527f8c5be1e5ebec7d5bd14f71427d1e84f3dd0314c0f7b2291e5b200ac8c7c3b92560203392a3602060405160018152f35b34610131575f366003190112610131575f6003548060011c906001811680156106ad575b6020831081146102b35782855290811561029757506001146106585750819003601f01601f191681019067ffffffffffffffff82118183101761022e5761022a829182604052826106b7565b905060035f527fc2575a0e9e593c00f959f8c92f12db2869c3395a3b0502d05e2516446f71f85b5f905b828210610697575060209150820101826101fa565b6001816020925483858801015201910190610682565b91607f169161060c565b602060409281835280519182918282860152018484015e5f828201840152601f01601f1916010190565b600435906001600160a01b038216820361013157565b602435906001600160a01b038216820361013157565b6001600160a01b03169081156107a4576001600160a01b031691821561041a57815f525f60205260405f205481811061078b57817fddf252ad1be2c89b69c2b068fc378daa952ba7f163c4a11628f55a4df523b3ef92602092855f525f84520360405f2055845f525f825260405f20818154019055604051908152a3565b8263391434e360e21b5f5260045260245260445260645ffd5b634b637e8f60e11b5f525f60045260245ffd5b6005546001600160a01b031633036107cb57565b63118cdaa760e01b5f523360045260245ffdfea2646970667358221220a86c3c548e79e69a581a35ef876a0ec109475d86c4954f25fd7de1f180f3068164736f6c634300081b0033000000000000000000000000e877cb4bd6f5f10b3c207f7b691e4275a2a398bc000000000000000000000000000000000000000000000000000000000000008000000000000000000000000000000000000000000000000000000000000000e00000000000000000000000000000000000000000000000000000000000000012000000000000000000000000000000000000000000000000000000000000002b5054205265736f6c76204c69717569646974792050726f766964657220546f6b656e203444454332303235000000000000000000000000000000000000000000000000000000000000000000000000000000000000000000000000000000000f50542d524c502d34444543323032350000000000000000000000000000000000"
        },
        {
          "transactionType": "CREATE",
          "address": "0x62fc0752bff0e1c84bc94884205b427c8a2c2fcf",
          "initCode": "0x60803460b857601f61051838819003918201601f19168301916001600160401b0383118484101760bc5780849260209460405283398101031260b857516001600160a01b0381169081900360b857801560a5575f80546001600160a01b031981168317825560405192916001600160a01b03909116907f8be0079c531659141344cd1fd0a4f28419497f9722a3daafe3b4186f6b6457e09080a361044790816100d18239f35b631e4fbdf760e01b5f525f60045260245ffd5b5f80fd5b634e487b7160e01b5f52604160045260245ffdfe6080806040526004361015610012575f80fd5b5f3560e01c908163313ce567146103bc5750806354fd4d50146103a1578063715018a61461034a5780637284e416146102d65780638da5cb5b146102af5780639276e261146101bc5780639a6fc8f51461017a578063f2fde38b146100f15763feaf968c1461007f575f80fd5b346100ed575f3660031901126100ed576001546002546003546004546005546100e9946001600160501b0390811694939291165b604080516001600160501b03968716815260208101959095528401929092526060830152909116608082015290819060a0820190565b0390f35b5f80fd5b346100ed5760203660031901126100ed576004356001600160a01b038116908190036100ed5761011f6103eb565b8015610167575f80546001600160a01b03198116831782556001600160a01b0316907f8be0079c531659141344cd1fd0a4f28419497f9722a3daafe3b4186f6b6457e09080a3005b631e4fbdf760e01b5f525f60045260245ffd5b346100ed5760203660031901126100ed576101936103d5565b506001546002546003546004546005546100e9946001600160501b0390811694939291166100b3565b346100ed5760a03660031901126100ed5760405160a0810181811067ffffffffffffffff82111761029b576040526101f26103d5565b815260208101906024358252604081019060443582526060810160643581526084356001600160501b03811681036100ed576001600160501b03602092818560807f0559884fd3a460db3073b7fc896cc77986f16e378210ded43186175bf646fc5f97019485526102616103eb565b51169687831960015416176001555195866002555160035551918260045551166001600160501b03196005541617600555604051908152a3005b634e487b7160e01b5f52604160045260245ffd5b346100ed575f3660031901126100ed575f546040516001600160a01b039091168152602090f35b346100ed575f3660031901126100ed576040516040810181811067ffffffffffffffff82111761029b57604052600b8152604060208201916a54657374204f7261636c6560a81b83528151928391602083525180918160208501528484015e5f828201840152601f01601f19168101030190f35b346100ed575f3660031901126100ed576103626103eb565b5f80546001600160a01b0319811682556001600160a01b03167f8be0079c531659141344cd1fd0a4f28419497f9722a3daafe3b4186f6b6457e08280a3005b346100ed575f3660031901126100ed57602060405160018152f35b346100ed575f3660031901126100ed5780600860209252f35b600435906001600160501b03821682036100ed57565b5f546001600160a01b031633036103fe57565b63118cdaa760e01b5f523360045260245ffdfea26469706673582212202daec443b3462d410351801c2286c42d2abc35f6720e79773e086f4282a14d9664736f6c634300081b0033000000000000000000000000e355d5d8aa52ef0fbbd037c4a3c5e6fd659cf46b"
        }
      ],
      "isFixedGasLimit": false
    },
    {
      "hash": "0x4500d815f499fe01bd2af125b5f5791b3b0197a4782b5d5e0618752a8e79df15",
      "transactionType": "CALL",
      "contractName": "MockPriceFeed",
      "contractAddress": "0x62fc0752bff0e1c84bc94884205b427c8a2c2fcf",
      "function": "updateRoundData((uint80,int256,uint256,uint256,uint80))",
      "arguments": [
        "(1, 96410000, 1756448992, 1756448992, 1)"
      ],
      "transaction": {
        "from": "0xe355d5d8aa52ef0fbbd037c4a3c5e6fd659cf46b",
        "to": "0x62fc0752bff0e1c84bc94884205b427c8a2c2fcf",
        "gas": "0x6ffb",
        "value": "0x0",
        "input": "0x9276e26100000000000000000000000000000000000000000000000000000000000000010000000000000000000000000000000000000000000000000000000005bf19900000000000000000000000000000000000000000000000000000000068b148e00000000000000000000000000000000000000000000000000000000068b148e00000000000000000000000000000000000000000000000000000000000000001",
        "nonce": "0xd2a",
        "chainId": "0x66eee"
      },
      "additionalContracts": [],
      "isFixedGasLimit": false
    },
    {
      "hash": "0x40fdb6cae0c9457ef038dac261cdc5f7074a72f12d17f83eb30521bbd8da72d4",
      "transactionType": "CALL",
      "contractName": "MockPriceFeed",
      "contractAddress": "0x62fc0752bff0e1c84bc94884205b427c8a2c2fcf",
      "function": "transferOwnership(address)",
      "arguments": [
        "0x2A58A3D405c527491Daae4C62561B949e7F87EFE"
      ],
      "transaction": {
        "from": "0xe355d5d8aa52ef0fbbd037c4a3c5e6fd659cf46b",
        "to": "0x62fc0752bff0e1c84bc94884205b427c8a2c2fcf",
        "gas": "0x6db9",
        "value": "0x0",
        "input": "0xf2fde38b0000000000000000000000002a58a3d405c527491daae4c62561b949e7f87efe",
        "nonce": "0xd2b",
        "chainId": "0x66eee"
      },
      "additionalContracts": [],
      "isFixedGasLimit": false
    },
    {
      "hash": "0x70912df6a5bc02cede8eacabb617455dc73edcc39aac3156ffafc93783a2ffe1",
      "transactionType": "CALL",
      "contractName": "ERC1967Proxy",
      "contractAddress": "0x0709f8b7bdea284c7352a5b12505f3d70bf9c21b",
      "function": null,
      "arguments": null,
      "transaction": {
        "from": "0xe355d5d8aa52ef0fbbd037c4a3c5e6fd659cf46b",
        "to": "0x0709f8b7bdea284c7352a5b12505f3d70bf9c21b",
        "gas": "0x2285a",
        "value": "0x0",
        "input": "0x13182df7000000000000000000000000d58b80655ed0342a297560ad1f3251c2b99752cf00000000000000000000000063d6c1d63fd504016206613e3491d2465de4cc3c00000000000000000000000062fc0752bff0e1c84bc94884205b427c8a2c2fcf00000000000000000000000062fc0752bff0e1c84bc94884205b427c8a2c2fcf0000000000000000000000000000000000000000000000000000000001e13380",
        "nonce": "0xd2c",
        "chainId": "0x66eee"
      },
      "additionalContracts": [],
      "isFixedGasLimit": false
    },
    {
      "hash": "0x090b23071873abda92ca11fe4159237bea1e9ed7ced6668684821febf3063470",
      "transactionType": "CALL",
      "contractName": "ERC1967Proxy",
      "contractAddress": "0x0709f8b7bdea284c7352a5b12505f3d70bf9c21b",
      "function": null,
      "arguments": null,
      "transaction": {
        "from": "0xe355d5d8aa52ef0fbbd037c4a3c5e6fd659cf46b",
        "to": "0x0709f8b7bdea284c7352a5b12505f3d70bf9c21b",
        "gas": "0x1b1eb",
        "value": "0x0",
        "input": "0x198506f3000000000000000000000000d58b80655ed0342a297560ad1f3251c2b99752cf00000000000000000000000063d6c1d63fd504016206613e3491d2465de4cc3c",
        "nonce": "0xd2d",
        "chainId": "0x66eee"
      },
      "additionalContracts": [],
      "isFixedGasLimit": false
    },
    {
      "hash": "0xbf0ea3b47fb636da046337f0f59f07bca2f494571b90b61c420d0305b9809c49",
      "transactionType": "CALL",
      "contractName": "ERC1967Proxy",
      "contractAddress": "0x0709f8b7bdea284c7352a5b12505f3d70bf9c21b",
      "function": null,
      "arguments": null,
      "transaction": {
        "from": "0xe355d5d8aa52ef0fbbd037c4a3c5e6fd659cf46b",
        "to": "0x0709f8b7bdea284c7352a5b12505f3d70bf9c21b",
        "gas": "0x1a4cda",
        "value": "0x0",
        "input": "0xdc496c20000000000000000000000000c1d2224d57f1a156d59073ed791c7f7c41c03877d9eb2aaa5f19c272f06ea2b4c8449687a8c2ac90aa2cfba9b3c9de0dca6ca6950000000000000000000000000000000000000000000000000000000000000080000000000000000000000000000000000000000000000000000000000000000000000000000000000000000063d6c1d63fd504016206613e3491d2465de4cc3c000000000000000000000000e7e6ea2b6a1d7e7d80727290a86ccc9fe5fbe0c10000000000000000000000000709f8b7bdea284c7352a5b12505f3d70bf9c21b00000000000000000000000000000000000000000000000000000000000000000000000000000000000000009ec927f61542dcd12def83797d8d1022064dcfa4000000000000000000000000000000000000000000000000000000006932208000000000000000000000000000000000000000000000000000000000001e848000000000000000000000000000000000000000000000000000000000001e848000000000000000000000000000000000000000000000000000000000002dc6c000000000000000000000000000000000000000000000000000000000002dc6c000000000000000000000000000000000000000000000000000000000000f42400000000000000000000000000000000000000000000000000000000000061a80000000000000000000000000d58b80655ed0342a297560ad1f3251c2b99752cf00000000000000000000000000000000000000000000000000000000059a538000000000000000000000000000000000000000000000000000000000055d4a800000000000000000000000000000000000000000000000000000000000000001000000000000000000000000000000000000000000000000000000000000026000000000000000000000000000000000000000000000000000000000000002a000000000000000000000000000000000000000000000000000000000000002e00000000000000000000000000000000000000000000000000000000000000020ffffffffffffffffffffffffffffffffffffffffffffffffffffffffffffffff000000000000000000000000000000000000000000000000000000000000001e555344432f50542d524c502d3444454332303235403035444543323032350000000000000000000000000000000000000000000000000000000000000000001e555344432f50542d524c502d3444454332303235403035444543323032350000",
        "nonce": "0xd2e",
        "chainId": "0x66eee"
      },
      "additionalContracts": [
        {
          "transactionType": "CREATE2",
          "address": "0x67bf06b8d0876fad026bfc956d2a1b27fe624440",
          "initCode": "0x3d602d80600a3d3981f3363d3d373d3d3d363d731e51379fd56b930ca95c70a57da7b90baaedc25e5af43d82803e903d91602b57fd5bf3"
        },
        {
          "transactionType": "CREATE",
          "address": "0x01b6ea399ca7a4a7ec6c1f9960c260c625f57ea0",
          "initCode": "0x3d602d80600a3d3981f3363d3d373d3d3d363d73eebc49f73bc2faf0e6b52fd78aec4a4eaa3e64d55af43d82803e903d91602b57fd5bf3"
        },
        {
          "transactionType": "CREATE",
          "address": "0xa77fa54b453d5118579499fb9eeec3f333de2001",
          "initCode": "0x3d602d80600a3d3981f3363d3d373d3d3d363d73eebc49f73bc2faf0e6b52fd78aec4a4eaa3e64d55af43d82803e903d91602b57fd5bf3"
        },
        {
          "transactionType": "CREATE",
          "address": "0x9a0f3e111f06c0532a16d5eeeffd815b2428a12c",
          "initCode": "0x3d602d80600a3d3981f3363d3d373d3d3d363d73e4ce930ad6de3596efd6112428ac7736e0db4d215af43d82803e903d91602b57fd5bf3"
        }
      ],
      "isFixedGasLimit": false
    }
  ],
  "receipts": [
    {
      "status": "0x1",
      "cumulativeGasUsed": "0x12daa2",
      "logs": [
        {
          "address": "0x63d6c1d63fd504016206613e3491d2465de4cc3c",
          "topics": [
            "0x8be0079c531659141344cd1fd0a4f28419497f9722a3daafe3b4186f6b6457e0",
            "0x0000000000000000000000000000000000000000000000000000000000000000",
            "0x000000000000000000000000e877cb4bd6f5f10b3c207f7b691e4275a2a398bc"
          ],
          "data": "0x",
          "blockHash": "0xbb0d4501847adae11d3be59143c1115fd96228ab31615cbdec66fe2576e830e8",
          "blockNumber": "0xb4059f2",
          "transactionHash": "0x257e95646e177577e4ff0c22fba80ab37cba8650d32d9fd02c16fef74c845064",
          "transactionIndex": "0x4",
          "logIndex": "0x9",
          "removed": false
        },
        {
          "address": "0x62fc0752bff0e1c84bc94884205b427c8a2c2fcf",
          "topics": [
            "0x8be0079c531659141344cd1fd0a4f28419497f9722a3daafe3b4186f6b6457e0",
            "0x0000000000000000000000000000000000000000000000000000000000000000",
            "0x000000000000000000000000e355d5d8aa52ef0fbbd037c4a3c5e6fd659cf46b"
          ],
          "data": "0x",
          "blockHash": "0xbb0d4501847adae11d3be59143c1115fd96228ab31615cbdec66fe2576e830e8",
          "blockNumber": "0xb4059f2",
          "transactionHash": "0x257e95646e177577e4ff0c22fba80ab37cba8650d32d9fd02c16fef74c845064",
          "transactionIndex": "0x4",
          "logIndex": "0xa",
          "removed": false
        }
      ],
      "logsBloom": "0x00000000000000000000000000000000000000000000000000800000000000000000100000400000000000000000000000100000000000000000000000000000000000000000000000000000000000000001000000000000000000000002000000000000020000000000000000000800000000000000000000000000000000400000000000000000000000100000000200000000000000000000000000000400000000000000000000000000000000000000000000000000000000000000000000000000000000000000000000000000000000000000000000000000000020000000080000000020000000100000100000000000000000000000000000004000",
      "type": "0x2",
      "transactionHash": "0x257e95646e177577e4ff0c22fba80ab37cba8650d32d9fd02c16fef74c845064",
      "transactionIndex": "0x4",
      "blockHash": "0xbb0d4501847adae11d3be59143c1115fd96228ab31615cbdec66fe2576e830e8",
      "blockNumber": "0xb4059f2",
      "gasUsed": "0xe9efe",
      "effectiveGasPrice": "0x5f5e100",
      "from": "0xe355d5d8aa52ef0fbbd037c4a3c5e6fd659cf46b",
      "to": "0xe877cb4bd6f5f10b3c207f7b691e4275a2a398bc",
      "contractAddress": null,
      "gasUsedForL1": "0xe",
      "l1BlockNumber": "0x8aa9d3",
      "timeboosted": false
    },
    {
      "status": "0x1",
      "cumulativeGasUsed": "0x52893",
      "logs": [
        {
          "address": "0x62fc0752bff0e1c84bc94884205b427c8a2c2fcf",
          "topics": [
            "0x0559884fd3a460db3073b7fc896cc77986f16e378210ded43186175bf646fc5f",
            "0x0000000000000000000000000000000000000000000000000000000005bf1990",
            "0x0000000000000000000000000000000000000000000000000000000000000001"
          ],
          "data": "0x0000000000000000000000000000000000000000000000000000000068b148e0",
          "blockHash": "0x4534542db760a518c7cefc7005f86d51d36cdc53cc83c7609c0fbedb7b3115ae",
          "blockNumber": "0xb4059fc",
          "transactionHash": "0x4500d815f499fe01bd2af125b5f5791b3b0197a4782b5d5e0618752a8e79df15",
          "transactionIndex": "0x2",
          "logIndex": "0xd",
          "removed": false
        }
      ],
      "logsBloom": "0x00000000000000000000000000000000000000000000000000000000000000000000000000000000000000000000000000000000000200000000000000040000000000000000000000000000000000000000000000040000000000000000000000000000000000000000000000000000000000000000000000000000000000000000000000000000000000300000000000000480000000000000000000000400000000000000000000000000000000008000000000000000000000000000000000000000000000000000000000000000000000000000000000000000000040000000000000000000000000100000000000000000000000000004000000000000",
      "type": "0x2",
      "transactionHash": "0x4500d815f499fe01bd2af125b5f5791b3b0197a4782b5d5e0618752a8e79df15",
      "transactionIndex": "0x2",
      "blockHash": "0x4534542db760a518c7cefc7005f86d51d36cdc53cc83c7609c0fbedb7b3115ae",
      "blockNumber": "0xb4059fc",
      "gasUsed": "0x2170a",
      "effectiveGasPrice": "0x5f5e100",
      "from": "0xe355d5d8aa52ef0fbbd037c4a3c5e6fd659cf46b",
      "to": "0x62fc0752bff0e1c84bc94884205b427c8a2c2fcf",
      "contractAddress": null,
      "gasUsedForL1": "0xb",
      "l1BlockNumber": "0x8aa9d4",
      "timeboosted": false
    },
    {
      "status": "0x1",
      "cumulativeGasUsed": "0xb2557",
      "logs": [
        {
          "address": "0x62fc0752bff0e1c84bc94884205b427c8a2c2fcf",
          "topics": [
            "0x8be0079c531659141344cd1fd0a4f28419497f9722a3daafe3b4186f6b6457e0",
            "0x000000000000000000000000e355d5d8aa52ef0fbbd037c4a3c5e6fd659cf46b",
            "0x0000000000000000000000002a58a3d405c527491daae4c62561b949e7f87efe"
          ],
          "data": "0x",
          "blockHash": "0x105a28680d3da849d0474f5c39de65d2e62da6fdaa9c79b726bf83dc86ff6c50",
          "blockNumber": "0xb405a06",
          "transactionHash": "0x40fdb6cae0c9457ef038dac261cdc5f7074a72f12d17f83eb30521bbd8da72d4",
          "transactionIndex": "0x5",
          "logIndex": "0xa",
          "removed": false
        }
      ],
      "logsBloom": "0x00000000000000000000000000000000000000000000000000800000000000000000000000040000000000000000000000000000000000000000000000000000000000000000000000000000000000000001000000000000000000000000000000000000040000000000000000000000000000000000000000000000000000400000000000000000000000100000000200000000000000000000000000000400000000000000000000000000000000000000000000000000000000000000000000000000000000000000000000000000000000000000000000000000000000000000000000000021000000100000000000000000000000000000000000004000",
      "type": "0x2",
      "transactionHash": "0x40fdb6cae0c9457ef038dac261cdc5f7074a72f12d17f83eb30521bbd8da72d4",
      "transactionIndex": "0x5",
      "blockHash": "0x105a28680d3da849d0474f5c39de65d2e62da6fdaa9c79b726bf83dc86ff6c50",
      "blockNumber": "0xb405a06",
      "gasUsed": "0x6f6c",
      "effectiveGasPrice": "0x5f5e100",
      "from": "0xe355d5d8aa52ef0fbbd037c4a3c5e6fd659cf46b",
      "to": "0x62fc0752bff0e1c84bc94884205b427c8a2c2fcf",
      "contractAddress": null,
      "gasUsedForL1": "0x7",
      "l1BlockNumber": "0x8aa9d4",
      "timeboosted": false
    },
    {
      "status": "0x1",
      "cumulativeGasUsed": "0x9021a",
      "logs": [
        {
          "address": "0xd58b80655ed0342a297560ad1f3251c2b99752cf",
          "topics": [
            "0x3fa96d5be1017ee5b004406bdd188cafc8b272e02d02e80dfae54d13ab6524e6",
            "0x00000000000000000000000063d6c1d63fd504016206613e3491d2465de4cc3c",
            "0x00000000000000000000000062fc0752bff0e1c84bc94884205b427c8a2c2fcf",
            "0x00000000000000000000000062fc0752bff0e1c84bc94884205b427c8a2c2fcf"
          ],
          "data": "0x0000000000000000000000000000000000000000000000000000000001e133800000000000000000000000000000000000000000000000000000000068b14906",
          "blockHash": "0x72bae687eb9986f326ce447db5210bcdedb34e5145ae8f7ee2524ee7031e4647",
          "blockNumber": "0xb405a10",
          "transactionHash": "0x70912df6a5bc02cede8eacabb617455dc73edcc39aac3156ffafc93783a2ffe1",
          "transactionIndex": "0x5",
          "logIndex": "0xd",
          "removed": false
        }
      ],
      "logsBloom": "0x00000400000000000000000000000000000000000000000000200000800000000000000000000000000000000000000000000000000200000000000000000000000000000000000800000004000000000000000000000000000000000000000000000000000000000000000000000000000000000000000000000000000000000000000000000000000000000000000000040000000000000000000000000000000000000000000000000000000000000000000000000000000400000000000000000000008000000000000000000004008000000000000000000000000000000000000000000000000000000000000000000000000000000000000000000004",
      "type": "0x2",
      "transactionHash": "0x70912df6a5bc02cede8eacabb617455dc73edcc39aac3156ffafc93783a2ffe1",
      "transactionIndex": "0x5",
      "blockHash": "0x72bae687eb9986f326ce447db5210bcdedb34e5145ae8f7ee2524ee7031e4647",
      "blockNumber": "0xb405a10",
      "gasUsed": "0x19d1d",
      "effectiveGasPrice": "0x5f5e100",
      "from": "0xe355d5d8aa52ef0fbbd037c4a3c5e6fd659cf46b",
      "to": "0x0709f8b7bdea284c7352a5b12505f3d70bf9c21b",
      "contractAddress": null,
      "gasUsedForL1": "0xd",
      "l1BlockNumber": "0x8aa9d4",
      "timeboosted": false
    },
    {
      "status": "0x1",
      "cumulativeGasUsed": "0x2f61d",
      "logs": [
        {
          "address": "0xd58b80655ed0342a297560ad1f3251c2b99752cf",
          "topics": [
            "0x1fde9522e8fecea62ddfd7a16a09129167e338cfdce86f3b8742a7aacaf34535",
            "0x00000000000000000000000063d6c1d63fd504016206613e3491d2465de4cc3c",
            "0x00000000000000000000000062fc0752bff0e1c84bc94884205b427c8a2c2fcf",
            "0x00000000000000000000000062fc0752bff0e1c84bc94884205b427c8a2c2fcf"
          ],
          "data": "0x0000000000000000000000000000000000000000000000000000000001e13380",
          "blockHash": "0x42db6fb565f3f75f1a9260f373175f80c70b79a8c9ebe6d8699126507f0af101",
          "blockNumber": "0xb405a19",
          "transactionHash": "0x090b23071873abda92ca11fe4159237bea1e9ed7ced6668684821febf3063470",
          "transactionIndex": "0x2",
          "logIndex": "0x4",
          "removed": false
        }
      ],
      "logsBloom": "0x00000400000000000000000000000000000000000000000000200000800000000000000000000000000000000000000000000000000200000000000000000000000000000000000000000004000000000000000000000000000000000000000000000000000000000000000000000000000000000000000000000000000000000000000000000000000000000000020000000000000000000000000000000000000000000000000000000000000000000000000000000000000400000000000000000000008000004000000000000004000400000000000000000000000000000000000000000000000000000000000000000000000000000000000000000004",
      "type": "0x2",
      "transactionHash": "0x090b23071873abda92ca11fe4159237bea1e9ed7ced6668684821febf3063470",
      "transactionIndex": "0x2",
      "blockHash": "0x42db6fb565f3f75f1a9260f373175f80c70b79a8c9ebe6d8699126507f0af101",
      "blockNumber": "0xb405a19",
      "gasUsed": "0x13a2f",
      "effectiveGasPrice": "0x5f5e100",
      "from": "0xe355d5d8aa52ef0fbbd037c4a3c5e6fd659cf46b",
      "to": "0x0709f8b7bdea284c7352a5b12505f3d70bf9c21b",
      "contractAddress": null,
      "gasUsedForL1": "0x8",
      "l1BlockNumber": "0x8aa9d4",
      "timeboosted": false
    },
    {
      "status": "0x1",
      "cumulativeGasUsed": "0x1c70ae",
      "logs": [
        {
          "address": "0x67bf06b8d0876fad026bfc956d2a1b27fe624440",
          "topics": [
            "0x8be0079c531659141344cd1fd0a4f28419497f9722a3daafe3b4186f6b6457e0",
            "0x0000000000000000000000000000000000000000000000000000000000000000",
            "0x0000000000000000000000000709f8b7bdea284c7352a5b12505f3d70bf9c21b"
          ],
          "data": "0x",
          "blockHash": "0x02ae6049faf73b826439ba315150d1b6f280cb761e009c3daa89122b137da56f",
          "blockNumber": "0xb405a22",
          "transactionHash": "0xbf0ea3b47fb636da046337f0f59f07bca2f494571b90b61c420d0305b9809c49",
          "transactionIndex": "0x5",
          "logIndex": "0x14",
          "removed": false
        },
        {
          "address": "0x01b6ea399ca7a4a7ec6c1f9960c260c625f57ea0",
          "topics": [
            "0x8be0079c531659141344cd1fd0a4f28419497f9722a3daafe3b4186f6b6457e0",
            "0x0000000000000000000000000000000000000000000000000000000000000000",
            "0x00000000000000000000000067bf06b8d0876fad026bfc956d2a1b27fe624440"
          ],
          "data": "0x",
          "blockHash": "0x02ae6049faf73b826439ba315150d1b6f280cb761e009c3daa89122b137da56f",
          "blockNumber": "0xb405a22",
          "transactionHash": "0xbf0ea3b47fb636da046337f0f59f07bca2f494571b90b61c420d0305b9809c49",
          "transactionIndex": "0x5",
          "logIndex": "0x15",
          "removed": false
        },
        {
          "address": "0x01b6ea399ca7a4a7ec6c1f9960c260c625f57ea0",
          "topics": [
            "0xc7f505b2f371ae2175ee4913f4499e1f2633a7b5936321eed1cdaeb6115181d2"
          ],
          "data": "0x0000000000000000000000000000000000000000000000000000000000000001",
          "blockHash": "0x02ae6049faf73b826439ba315150d1b6f280cb761e009c3daa89122b137da56f",
          "blockNumber": "0xb405a22",
          "transactionHash": "0xbf0ea3b47fb636da046337f0f59f07bca2f494571b90b61c420d0305b9809c49",
          "transactionIndex": "0x5",
          "logIndex": "0x16",
          "removed": false
        },
        {
          "address": "0xa77fa54b453d5118579499fb9eeec3f333de2001",
          "topics": [
            "0x8be0079c531659141344cd1fd0a4f28419497f9722a3daafe3b4186f6b6457e0",
            "0x0000000000000000000000000000000000000000000000000000000000000000",
            "0x00000000000000000000000067bf06b8d0876fad026bfc956d2a1b27fe624440"
          ],
          "data": "0x",
          "blockHash": "0x02ae6049faf73b826439ba315150d1b6f280cb761e009c3daa89122b137da56f",
          "blockNumber": "0xb405a22",
          "transactionHash": "0xbf0ea3b47fb636da046337f0f59f07bca2f494571b90b61c420d0305b9809c49",
          "transactionIndex": "0x5",
          "logIndex": "0x17",
          "removed": false
        },
        {
          "address": "0xa77fa54b453d5118579499fb9eeec3f333de2001",
          "topics": [
            "0xc7f505b2f371ae2175ee4913f4499e1f2633a7b5936321eed1cdaeb6115181d2"
          ],
          "data": "0x0000000000000000000000000000000000000000000000000000000000000001",
          "blockHash": "0x02ae6049faf73b826439ba315150d1b6f280cb761e009c3daa89122b137da56f",
          "blockNumber": "0xb405a22",
          "transactionHash": "0xbf0ea3b47fb636da046337f0f59f07bca2f494571b90b61c420d0305b9809c49",
          "transactionIndex": "0x5",
          "logIndex": "0x18",
          "removed": false
        },
        {
          "address": "0x9a0f3e111f06c0532a16d5eeeffd815b2428a12c",
          "topics": [
            "0x8be0079c531659141344cd1fd0a4f28419497f9722a3daafe3b4186f6b6457e0",
            "0x0000000000000000000000000000000000000000000000000000000000000000",
            "0x00000000000000000000000067bf06b8d0876fad026bfc956d2a1b27fe624440"
          ],
          "data": "0x",
          "blockHash": "0x02ae6049faf73b826439ba315150d1b6f280cb761e009c3daa89122b137da56f",
          "blockNumber": "0xb405a22",
          "transactionHash": "0xbf0ea3b47fb636da046337f0f59f07bca2f494571b90b61c420d0305b9809c49",
          "transactionIndex": "0x5",
          "logIndex": "0x19",
          "removed": false
        },
        {
          "address": "0x9a0f3e111f06c0532a16d5eeeffd815b2428a12c",
          "topics": [
            "0xc7f505b2f371ae2175ee4913f4499e1f2633a7b5936321eed1cdaeb6115181d2"
          ],
          "data": "0x0000000000000000000000000000000000000000000000000000000000000001",
          "blockHash": "0x02ae6049faf73b826439ba315150d1b6f280cb761e009c3daa89122b137da56f",
          "blockNumber": "0xb405a22",
          "transactionHash": "0xbf0ea3b47fb636da046337f0f59f07bca2f494571b90b61c420d0305b9809c49",
          "transactionIndex": "0x5",
          "logIndex": "0x1a",
          "removed": false
        },
        {
          "address": "0x67bf06b8d0876fad026bfc956d2a1b27fe624440",
          "topics": [
            "0x923c07a7269eb05c7b48c4002081d856ef37b3cbc4c2bae12d7493178477e306",
            "0x00000000000000000000000063d6c1d63fd504016206613e3491d2465de4cc3c",
            "0x000000000000000000000000e7e6ea2b6a1d7e7d80727290a86ccc9fe5fbe0c1"
          ],
          "data": "0x000000000000000000000000000000000000000000000000000000006932208000000000000000000000000001b6ea399ca7a4a7ec6c1f9960c260c625f57ea0000000000000000000000000a77fa54b453d5118579499fb9eeec3f333de20010000000000000000000000009a0f3e111f06c0532a16d5eeeffd815b2428a12c",
          "blockHash": "0x02ae6049faf73b826439ba315150d1b6f280cb761e009c3daa89122b137da56f",
          "blockNumber": "0xb405a22",
          "transactionHash": "0xbf0ea3b47fb636da046337f0f59f07bca2f494571b90b61c420d0305b9809c49",
          "transactionIndex": "0x5",
          "logIndex": "0x1b",
          "removed": false
        },
        {
          "address": "0x67bf06b8d0876fad026bfc956d2a1b27fe624440",
          "topics": [
            "0xc7f505b2f371ae2175ee4913f4499e1f2633a7b5936321eed1cdaeb6115181d2"
          ],
          "data": "0x0000000000000000000000000000000000000000000000000000000000000001",
          "blockHash": "0x02ae6049faf73b826439ba315150d1b6f280cb761e009c3daa89122b137da56f",
          "blockNumber": "0xb405a22",
          "transactionHash": "0xbf0ea3b47fb636da046337f0f59f07bca2f494571b90b61c420d0305b9809c49",
          "transactionIndex": "0x5",
          "logIndex": "0x1c",
          "removed": false
        },
        {
          "address": "0xc1d2224d57f1a156d59073ed791c7f7c41c03877",
          "topics": [
            "0x3f53d2c2743b2b162c0aa5d678be4058d3ae2043700424be52c04105df3e2411",
            "0x00000000000000000000000067bf06b8d0876fad026bfc956d2a1b27fe624440",
            "0x00000000000000000000000063d6c1d63fd504016206613e3491d2465de4cc3c",
            "0x000000000000000000000000e7e6ea2b6a1d7e7d80727290a86ccc9fe5fbe0c1"
          ],
          "data": "0x",
          "blockHash": "0x02ae6049faf73b826439ba315150d1b6f280cb761e009c3daa89122b137da56f",
          "blockNumber": "0xb405a22",
          "transactionHash": "0xbf0ea3b47fb636da046337f0f59f07bca2f494571b90b61c420d0305b9809c49",
          "transactionIndex": "0x5",
          "logIndex": "0x1d",
          "removed": false
        }
      ],
      "logsBloom": "0x00000004000000000000008000000040800082000000000000a00000800000000000008000000000800000000000000000000000000200000000000000000000000000000000000000000000000008000011800000000000000000000800000200000800020000000000000000000800000008000000000000040000000000400000000000040000000800000000000000000000000080000000000000000000000000000000000000000000000000000000000020000001000000000002000000000010000000010002000000200000000800000004000000000000000820000000000000000800000020001000000000000000000000000000000001000000",
      "type": "0x2",
      "transactionHash": "0xbf0ea3b47fb636da046337f0f59f07bca2f494571b90b61c420d0305b9809c49",
      "transactionIndex": "0x5",
      "blockHash": "0x02ae6049faf73b826439ba315150d1b6f280cb761e009c3daa89122b137da56f",
      "blockNumber": "0xb405a22",
      "gasUsed": "0x130a8e",
      "effectiveGasPrice": "0x5f5e100",
      "from": "0xe355d5d8aa52ef0fbbd037c4a3c5e6fd659cf46b",
      "to": "0x0709f8b7bdea284c7352a5b12505f3d70bf9c21b",
      "contractAddress": null,
      "gasUsedForL1": "0x17",
      "l1BlockNumber": "0x8aa9d4",
      "timeboosted": false
    }
  ],
  "libraries": [],
  "pending": [],
  "returns": {},
  "timestamp": 1756449036,
  "chain": 421614,
  "commit": "0a2af4e1"
}